{"contracts/OracleIntegration.sol":{"OracleIntegration":{"abi":[{"inputs":[],"stateMutability":"nonpayable","type":"constructor"},{"anonymous":false,"inputs":[{"indexed":true,"internalType":"uint256","name":"marketId","type":"uint256"},{"indexed":true,"internalType":"address","name":"disputer","type":"address"},{"indexed":false,"internalType":"uint256","name":"stake","type":"uint256"}],"name":"DisputeRaised","type":"event"},{"anonymous":false,"inputs":[{"indexed":true,"internalType":"uint256","name":"marketId","type":"uint256"},{"indexed":false,"internalType":"bool","name":"finalOutcome","type":"bool"},{"indexed":false,"internalType":"uint256","name":"disputeVotes","type":"uint256"}],"name":"DisputeResolved","type":"event"},{"anonymous":false,"inputs":[{"indexed":true,"internalType":"uint256","name":"marketId","type":"uint256"},{"indexed":false,"internalType":"bool","name":"outcome","type":"bool"},{"indexed":true,"internalType":"address","name":"resolver","type":"address"},{"indexed":false,"internalType":"string","name":"evidence","type":"string"}],"name":"MarketResolved","type":"event"},{"anonymous":false,"inputs":[{"indexed":true,"internalType":"uint256","name":"marketId","type":"uint256"},{"indexed":false,"internalType":"enum OracleIntegration.OracleType","name":"oracleType","type":"uint8"},{"indexed":true,"internalType":"address","name":"dataFeed","type":"address"}],"name":"OracleConfigured","type":"event"},{"inputs":[],"name":"DISPUTE_PERIOD","outputs":[{"internalType":"uint256","name":"","type":"uint256"}],"stateMutability":"view","type":"function"},{"inputs":[],"name":"MIN_DISPUTE_STAKE","outputs":[{"internalType":"uint256","name":"","type":"uint256"}],"stateMutability":"view","type":"function"},{"inputs":[{"internalType":"address","name":"","type":"address"}],"name":"authorizedOracles","outputs":[{"internalType":"bool","name":"","type":"bool"}],"stateMutability":"view","type":"function"},{"inputs":[{"internalType":"uint256","name":"marketId","type":"uint256"},{"internalType":"enum OracleIntegration.OracleType","name":"oracleType","type":"uint8"},{"internalType":"address","name":"dataFeed","type":"address"},{"internalType":"string","name":"apiEndpoint","type":"string"},{"internalType":"uint256","name":"threshold","type":"uint256"},{"internalType":"address[]","name":"consensusOracles","type":"address[]"}],"name":"configureOracle","outputs":[],"stateMutability":"nonpayable","type":"function"},{"inputs":[{"internalType":"uint256","name":"","type":"uint256"}],"name":"disputeVoteCount","outputs":[{"internalType":"uint256","name":"","type":"uint256"}],"stateMutability":"view","type":"function"},{"inputs":[{"internalType":"uint256","name":"","type":"uint256"},{"internalType":"address","name":"","type":"address"}],"name":"disputeVotes","outputs":[{"internalType":"bool","name":"","type":"bool"}],"stateMutability":"view","type":"function"},{"inputs":[{"internalType":"uint256","name":"marketId","type":"uint256"},{"internalType":"bool","name":"outcome","type":"bool"},{"internalType":"string","name":"reason","type":"string"}],"name":"emergencyResolve","outputs":[],"stateMutability":"nonpayable","type":"function"},{"inputs":[{"internalType":"uint256","name":"marketId","type":"uint256"}],"name":"getOracleConfig","outputs":[{"components":[{"internalType":"enum OracleIntegration.OracleType","name":"oracleType","type":"uint8"},{"internalType":"address","name":"dataFeed","type":"address"},{"internalType":"string","name":"apiEndpoint","type":"string"},{"internalType":"uint256","name":"threshold","type":"uint256"},{"internalType":"bool","name":"isActive","type":"bool"},{"internalType":"uint256","name":"lastUpdate","type":"uint256"},{"internalType":"address[]","name":"consensusOracles","type":"address[]"}],"internalType":"struct OracleIntegration.OracleData","name":"","type":"tuple"}],"stateMutability":"view","type":"function"},{"inputs":[{"internalType":"uint256","name":"marketId","type":"uint256"}],"name":"getResolution","outputs":[{"components":[{"internalType":"uint256","name":"marketId","type":"uint256"},{"internalType":"bool","name":"outcome","type":"bool"},{"internalType":"uint256","name":"timestamp","type":"uint256"},{"internalType":"string","name":"evidence","type":"string"},{"internalType":"address","name":"resolver","type":"address"},{"internalType":"bool","name":"isDisputed","type":"bool"},{"internalType":"uint256","name":"disputeDeadline","type":"uint256"}],"internalType":"struct OracleIntegration.ResolutionData","name":"","type":"tuple"}],"stateMutability":"view","type":"function"},{"inputs":[{"internalType":"uint256","name":"","type":"uint256"}],"name":"marketOracles","outputs":[{"internalType":"enum OracleIntegration.OracleType","name":"oracleType","type":"uint8"},{"internalType":"address","name":"dataFeed","type":"address"},{"internalType":"string","name":"apiEndpoint","type":"string"},{"internalType":"uint256","name":"threshold","type":"uint256"},{"internalType":"bool","name":"isActive","type":"bool"},{"internalType":"uint256","name":"lastUpdate","type":"uint256"}],"stateMutability":"view","type":"function"},{"inputs":[],"name":"owner","outputs":[{"internalType":"address","name":"","type":"address"}],"stateMutability":"view","type":"function"},{"inputs":[],"name":"predictionMarket","outputs":[{"internalType":"address","name":"","type":"address"}],"stateMutability":"view","type":"function"},{"inputs":[{"internalType":"uint256","name":"marketId","type":"uint256"}],"name":"raiseDispute","outputs":[],"stateMutability":"payable","type":"function"},{"inputs":[{"internalType":"uint256","name":"","type":"uint256"}],"name":"resolutions","outputs":[{"internalType":"uint256","name":"marketId","type":"uint256"},{"internalType":"bool","name":"outcome","type":"bool"},{"internalType":"uint256","name":"timestamp","type":"uint256"},{"internalType":"string","name":"evidence","type":"string"},{"internalType":"address","name":"resolver","type":"address"},{"internalType":"bool","name":"isDisputed","type":"bool"},{"internalType":"uint256","name":"disputeDeadline","type":"uint256"}],"stateMutability":"view","type":"function"},{"inputs":[{"internalType":"uint256","name":"marketId","type":"uint256"},{"internalType":"bool","name":"finalOutcome","type":"bool"}],"name":"resolveDispute","outputs":[],"stateMutability":"nonpayable","type":"function"},{"inputs":[{"internalType":"uint256","name":"marketId","type":"uint256"}],"name":"resolveMarketChainlink","outputs":[],"stateMutability":"nonpayable","type":"function"},{"inputs":[{"internalType":"uint256","name":"marketId","type":"uint256"},{"internalType":"bool","name":"outcome","type":"bool"},{"internalType":"string","name":"evidence","type":"string"}],"name":"resolveMarketManual","outputs":[],"stateMutability":"nonpayable","type":"function"},{"inputs":[{"internalType":"address","name":"oracle","type":"address"},{"internalType":"bool","name":"authorized","type":"bool"}],"name":"setAuthorizedOracle","outputs":[],"stateMutability":"nonpayable","type":"function"},{"inputs":[{"internalType":"address","name":"_predictionMarket","type":"address"}],"name":"setPredictionMarket","outputs":[],"stateMutability":"nonpayable","type":"function"},{"inputs":[{"internalType":"uint256","name":"marketId","type":"uint256"},{"internalType":"bool","name":"outcome","type":"bool"},{"internalType":"string","name":"evidence","type":"string"}],"name":"submitConsensusVote","outputs":[],"stateMutability":"nonpayable","type":"function"}],"evm":{"bytecode":{"linkReferences":{},"object":"60a080604052346100465733608052611a68908161004b8239608051818181610268015281816107f0015281816108450152818161090801528181610f3d01526112490152f35b5f80fdfe6080806040526004361015610012575f80fd5b60e05f35811c91826303abc7521461129e5750816303b88ba21461122157816316e66e94146110c5578163203d82cb1461107857816334b25ee214610f145781633bd2b07914610e315781633e1cf1d814610cce5781634c8d1eda14610c3f57816361c992a314610c0257816376cc96af14610bd8578163799dcaf6146108695781638da5cb5b14610826578163a04382b2146107cd578163a4b7f5ce14610739578163a5bbe22b1461071c578163a5c1674e14610541578163c438ff01146102ae578163c7a6de4d14610234578163d565a53314610124575063def114b6146100fa575f80fd5b34610120575f3660031901126101205760206001600160a01b0360055416604051908152f35b5f80fd5b346101205760209081600319360112610120575f60c0604051610146816113dc565b82815282858201528260408201526060808201528260808201528260a082015201526004355f526001825260405f2060405191610182836113dc565b8154835260ff60018301541684840190151581526002830154604085019081526101ae6003850161142e565b906060860191825261021b6004860154926001600160a01b0392600560808a01988587168a5260ff60a08c019760a01c161515875201549560c08a019687526040519a8b9a818c5251908b015251151560408a01525160608901525185608089015261010088019061137f565b94511660a086015251151560c085015251908301520390f35b34610120576040366003190112610120576102ac6102506112be565b6102586112d4565b906001600160a01b039061028f827f00000000000000000000000000000000000000000000000000000000000000001633146114d0565b165f52600260205260405f209060ff801983541691151516179055565b005b34610120576020806003193601126101205760043590815f525f815260405f2091825460ff8116600481101561052d576001036104e9576001600160a01b03906102fe60ff6003870154166115c6565b60081c169283156104a55760a060049394604051948580927ffeaf968c0000000000000000000000000000000000000000000000000000000082525afa92831561049a575f9361044c575b505f83131561040857906102ac936103fe603e60026103ef9501549261036e8761192d565b906103788561192d565b906040519788937f436861696e6c696e6b2070726963653a20000000000000000000000000000000838601526103b7815180928560318901910161135e565b8401917f2c207468726573686f6c643a200000000000000000000000000000000000000060318401528351938491878501910161135e565b0103601e81018652018461140c565b3393101590611755565b6064846040519062461bcd60e51b82526004820152601260248201527f496e76616c6964207072696365206461746100000000000000000000000000006044820152fd5b90925060a0813d60a011610492575b8161046860a0938361140c565b8101031261012057610479816116c1565b5061048a60808583015192016116c1565b509184610349565b3d915061045b565b6040513d5f823e3d90fd5b6064836040519062461bcd60e51b82526004820152601760248201527f4e6f2064617461206665656420636f6e666967757265640000000000000000006044820152fd5b6064836040519062461bcd60e51b82526004820152601460248201527f4e6f7420436861696e6c696e6b206f7261636c650000000000000000000000006044820152fd5b634e487b7160e01b5f52602160045260245ffd5b6020806003193601126101205760043567016345785d8a000034106106d857805f526001825260405f20600281015480156106945760048201805460ff8160a01c166106505762015180928381018091116105f857421161060c5760ff60a01b197401000000000000000000000000000000000000000091161790554201908142116105f857600501557fe0e58e9cc5ed7ef092d3e14cff6136d23ebf75a16cf3c8257ef8804811d8b0f3604051923484523393a3005b634e487b7160e01b5f52601160045260245ffd5b6064866040519062461bcd60e51b82526004820152601460248201527f4469737075746520706572696f6420656e6465640000000000000000000000006044820152fd5b6064866040519062461bcd60e51b82526004820152601060248201527f416c7265616479206469737075746564000000000000000000000000000000006044820152fd5b6064846040519062461bcd60e51b82526004820152601360248201527f4d61726b6574206e6f74207265736f6c766564000000000000000000000000006044820152fd5b6064826040519062461bcd60e51b82526004820152601a60248201527f496e73756666696369656e742064697370757465207374616b650000000000006044820152fd5b34610120575f366003190112610120576020604051620151808152f35b34610120576020366003190112610120576004355f52600160205260405f2080549060ff6001820154169260ff6107a960028401549261077b6003860161142e565b906005600487015496015494604051988998895215156020890152604088015280606088015286019061137f565b926001600160a01b038116608086015260a01c16151560a084015260c08301520390f35b34610120576102ac6108206107e136611311565b93906108176001600160a01b037f00000000000000000000000000000000000000000000000000000000000000001633146114d0565b33943691611590565b91611755565b34610120575f3660031901126101205760206040516001600160a01b037f0000000000000000000000000000000000000000000000000000000000000000168152f35b346101205760c03660031901126101205760043560249060048235101561012057604435916001600160a01b038316928381036101205767ffffffffffffffff606435818111610120576108c19036906004016112e3565b918060a435116101205736602360a435011215610120578060a435600401351161012057368560a4356004013560051b60a4350101116101205761092f6001600160a01b037f00000000000000000000000000000000000000000000000000000000000000001633146114d0565b855f525f60205260405f209374ffffffffffffffffffffffffffffffffffffffff0085549160081b169074ffffffffffffffffffffffffffffffffffffffffff1960ff8835169116171784558211610bc55761099b8261099260018601546113a4565b6001860161167e565b5f90601f8311600114610b58576109c992915f9183610b4d575b50508160011b915f199060031b1c19161790565b60018201555b60843560028201556003808201805460ff19166001179055426004830155823514610a2b575b5060207fbc065c247f5a8faa5e96b3a1917d71b14b086e500e71f897fa8b58fc6319d3c091610a28604051809235611351565ba3005b600360a4356004013510610ae3576005016801000000000000000060a4356004013511610ad0578054600460a43501358083558111610aae575b505f908152602081209060a43583015b60a435600401358210610a895750506109f5565b8035916001600160a01b03831683036101205760206001920192818501550190610a75565b610aca90825f5260205f209081019060a4356004013501611668565b84610a65565b50634e487b7160e01b5f5260416004525ffd5b60848260216040519162461bcd60e51b8352602060048401528201527f4e656564206174206c65617374203320636f6e73656e737573206f7261636c6560448201527f73000000000000000000000000000000000000000000000000000000000000006064820152fd5b0135905087806109b5565b600184939293015f5260205f20905f935b601f1984168510610bad576001945083601f19811610610b94575b505050811b0160018201556109cf565b01355f19600384901b60f8161c19169055868080610b84565b81810135835560209485019460019093019201610b69565b83634e487b7160e01b5f5260416004525ffd5b34610120576020366003190112610120576004355f526004602052602060405f2054604051908152f35b34610120576020366003190112610120576001600160a01b03610c236112be565b165f526002602052602060ff60405f2054166040519015158152f35b34610120576020366003190112610120576004355f525f6020526001600160a01b0360405f20805490610c746001820161142e565b600282015491610cb8600460ff600384015416920154926040519686610c9e8960ff819a16611351565b60081c16602087015260c0604087015260c086019061137f565b9260608501521515608084015260a08301520390f35b346101205760208060031936011261012057606060c0604051610cf0816113dc565b5f81525f848201528260408201525f838201525f60808201525f60a082015201526004355f525f815260405f2091604051610d2a816113dc565b83549060ff821690600482101561052d57849286928252836001600160a01b0392838282019360081c168352600194610d656001820161142e565b9360408301948552610ddc600283015495606085019687528760ff60038601541693608087019415158552610dc3610dab600560048901549860a08b01998a5201611611565b9760c081019889526040519d8e818152019051611351565b511660408b0152518a60608b01526101008a019061137f565b9451608089015251151560a08801525160c08701525195601f1986840301908601528080875193848152019601925f905b838210610e1a5786880387f35b845181168852968201969382019390850190610e0d565b3461012057610e3f36611311565b91929092335f52600260205260ff60405f20541615610ed057815f525f60205260405f2060ff815416600481101561052d57610e8c576102ac9461081760ff6003610820940154166115c6565b606460405162461bcd60e51b815260206004820152601160248201527f4e6f74206d616e75616c206f7261636c650000000000000000000000000000006044820152fd5b606460405162461bcd60e51b815260206004820152601560248201527f4e6f7420617574686f72697a6564206f7261636c6500000000000000000000006044820152fd5b3461012057604036600319011261012057600435610f306112d4565b610f646001600160a01b037f00000000000000000000000000000000000000000000000000000000000000001633146114d0565b815f52600160205260405f20600481019160ff835460a01c16156110345760058201544210610ff0577f5add0b1fc2a3dfd95be33d1d5feb6709087e50213b7a73c3c3b2c387001221e792610fca826001604095019060ff801983541691151516179055565b60ff60a01b198154169055835f526004602052815f2054825191151582526020820152a2005b606460405162461bcd60e51b815260206004820152601860248201527f4469737075746520706572696f64206e6f7420656e64656400000000000000006044820152fd5b606460405162461bcd60e51b815260206004820152601160248201527f4e6f2061637469766520646973707574650000000000000000000000000000006044820152fd5b34610120576040366003190112610120576024356001600160a01b038116809103610120576004355f52600360205260405f20905f52602052602060ff60405f2054166040519015158152f35b34610120576110d336611311565b919290815f5260205f815260405f2060ff8082541696600488101561052d5761113a906111036003809a1461151b565b6111156111103389611700565b61151b565b865f526003855260405f20335f52855260405f209060ff801983541691151516179055565b845f526004835260405f2061114f8154611566565b9055845f5260048352600560405f2054920154916001928060011b90808204600214901517156105f85760039004111561118557005b845f525f835261119a600560405f2001611611565b925f97835f905b6111c2575b50505050506102ac94610820915160011c109130943691611590565b855181101561121c57875f5281835260405f206001600160a01b036111e783896116d8565b51165f5283528360405f205416611201575b8401846111a1565b98908461121081959493611566565b9a9192939450506111f9565b6111a6565b346101205760203660031901126101205761123a6112be565b6001600160a01b0390611270827f00000000000000000000000000000000000000000000000000000000000000001633146114d0565b167fffffffffffffffffffffffff000000000000000000000000000000000000000060055416176005555f80f35b34610120575f366003190112610120578067016345785d8a000060209252f35b600435906001600160a01b038216820361012057565b60243590811515820361012057565b9181601f840112156101205782359167ffffffffffffffff8311610120576020838186019501011161012057565b60606003198201126101205760043591602435801515810361012057916044359067ffffffffffffffff82116101205761134d916004016112e3565b9091565b90600482101561052d5752565b5f5b83811061136f5750505f910152565b8181015183820152602001611360565b906020916113988151809281855285808601910161135e565b601f01601f1916010190565b90600182811c921680156113d2575b60208310146113be57565b634e487b7160e01b5f52602260045260245ffd5b91607f16916113b3565b60e0810190811067ffffffffffffffff8211176113f857604052565b634e487b7160e01b5f52604160045260245ffd5b90601f8019910116810190811067ffffffffffffffff8211176113f857604052565b9060405191825f8254611440816113a4565b908184526020946001916001811690815f146114ae5750600114611470575b50505061146e9250038361140c565b565b5f90815285812095935091905b81831061149657505061146e93508201015f808061145f565b8554888401850152948501948794509183019161147d565b9250505061146e94925060ff191682840152151560051b8201015f808061145f565b156114d757565b606460405162461bcd60e51b815260206004820152600960248201527f4e6f74206f776e657200000000000000000000000000000000000000000000006044820152fd5b1561152257565b606460405162461bcd60e51b815260206004820152601460248201527f4e6f7420636f6e73656e737573206f7261636c650000000000000000000000006044820152fd5b5f1981146105f85760010190565b67ffffffffffffffff81116113f857601f01601f191660200190565b92919261159c82611574565b916115aa604051938461140c565b829481845281830111610120578281602093845f960137010152565b156115cd57565b606460405162461bcd60e51b815260206004820152601160248201527f4f7261636c65206e6f74206163746976650000000000000000000000000000006044820152fd5b90604051918281549182825260209260208301915f5260205f20935f905b8282106116455750505061146e9250038361140c565b85546001600160a01b03168452600195860195889550938101939091019061162f565b818110611673575050565b5f8155600101611668565b9190601f811161168d57505050565b61146e925f5260205f20906020601f840160051c830193106116b7575b601f0160051c0190611668565b90915081906116aa565b519069ffffffffffffffffffff8216820361012057565b80518210156116ec5760209160051b010190565b634e487b7160e01b5f52603260045260245ffd5b5f525f602052611715600560405f2001611611565b905f5b825181101561174e576001600160a01b038061173483866116d8565b51169083161461174657600101611718565b505050600190565b5050505f90565b9190825f5260019060209160018352604093845f20916002830180546118ea5787845561179185600186019060ff801983541691151516179055565b4290558151600384019167ffffffffffffffff82116113f8576117be826117b885546113a4565b8561167e565b8690601f8311600114611887575090806117ec925f9161187c575b508160011b915f199060031b1c19161790565b90555b6001600160a01b03600483019716968774ffffffffffffffffffffffffffffffffffffffffff19825416179055620151804201948542116105f8577f17fadd484298b74931ca66be78c452c4e6d66b66682d7bf575d3b6cabec20d0d956005611877940155865f525f8552426004825f2001558080519586951515865285015283019061137f565b0390a3565b90508401515f6117d9565b90601f198316845f52885f20925f905b8a8383106118d35750505090836001949392106118bb575b5050811b0190556117ef565b8501515f1960f88460031b161c191690555f806118af565b818596829394968b01518155019501930190611897565b60648688519062461bcd60e51b82526004820152601060248201527f416c7265616479207265736f6c766564000000000000000000000000000000006044820152fd5b80156119e7575f81805b6119d3575061194581611574565b90611953604051928361140c565b808252601f1961196282611574565b01366020840137915b829080156119cc57600a9160309483830686018096116105f85780156105f8575f19019484518610156116ec5760f81b7fff00000000000000000000000000000000000000000000000000000000000000165f1a908401601f01530461196b565b5050905090565b906119df600a91611566565b910480611937565b506040516040810181811067ffffffffffffffff8211176113f857604052600181527f300000000000000000000000000000000000000000000000000000000000000060208201529056fea26469706673582212204e3bcc10f93ef6338558f0a26052a1df37e16a68e4327c60d3b2667ea08531b664736f6c63430008180033","opcodes":"PUSH1 0xA0 DUP1 PUSH1 0x40 MSTORE CALLVALUE PUSH2 0x46 JUMPI CALLER PUSH1 0x80 MSTORE PUSH2 0x1A68 SWAP1 DUP2 PUSH2 0x4B DUP3 CODECOPY PUSH1 0x80 MLOAD DUP2 DUP2 DUP2 PUSH2 0x268 ADD MSTORE DUP2 DUP2 PUSH2 0x7F0 ADD MSTORE DUP2 DUP2 PUSH2 0x845 ADD MSTORE DUP2 DUP2 PUSH2 0x908 ADD MSTORE DUP2 DUP2 PUSH2 0xF3D ADD MSTORE PUSH2 0x1249 ADD MSTORE RETURN JUMPDEST PUSH0 DUP1 REVERT INVALID PUSH1 0x80 DUP1 PUSH1 0x40 MSTORE PUSH1 0x4 CALLDATASIZE LT ISZERO PUSH2 0x12 JUMPI PUSH0 DUP1 REVERT JUMPDEST PUSH1 0xE0 PUSH0 CALLDATALOAD DUP2 SHR SWAP2 DUP3 PUSH4 0x3ABC752 EQ PUSH2 0x129E JUMPI POP DUP2 PUSH4 0x3B88BA2 EQ PUSH2 0x1221 JUMPI DUP2 PUSH4 0x16E66E94 EQ PUSH2 0x10C5 JUMPI DUP2 PUSH4 0x203D82CB EQ PUSH2 0x1078 JUMPI DUP2 PUSH4 0x34B25EE2 EQ PUSH2 0xF14 JUMPI DUP2 PUSH4 0x3BD2B079 EQ PUSH2 0xE31 JUMPI DUP2 PUSH4 0x3E1CF1D8 EQ PUSH2 0xCCE JUMPI DUP2 PUSH4 0x4C8D1EDA EQ PUSH2 0xC3F JUMPI DUP2 PUSH4 0x61C992A3 EQ PUSH2 0xC02 JUMPI DUP2 PUSH4 0x76CC96AF EQ PUSH2 0xBD8 JUMPI DUP2 PUSH4 0x799DCAF6 EQ PUSH2 0x869 JUMPI DUP2 PUSH4 0x8DA5CB5B EQ PUSH2 0x826 JUMPI DUP2 PUSH4 0xA04382B2 EQ PUSH2 0x7CD JUMPI DUP2 PUSH4 0xA4B7F5CE EQ PUSH2 0x739 JUMPI DUP2 PUSH4 0xA5BBE22B EQ PUSH2 0x71C JUMPI DUP2 PUSH4 0xA5C1674E EQ PUSH2 0x541 JUMPI DUP2 PUSH4 0xC438FF01 EQ PUSH2 0x2AE JUMPI DUP2 PUSH4 0xC7A6DE4D EQ PUSH2 0x234 JUMPI DUP2 PUSH4 0xD565A533 EQ PUSH2 0x124 JUMPI POP PUSH4 0xDEF114B6 EQ PUSH2 0xFA JUMPI PUSH0 DUP1 REVERT JUMPDEST CALLVALUE PUSH2 0x120 JUMPI PUSH0 CALLDATASIZE PUSH1 0x3 NOT ADD SLT PUSH2 0x120 JUMPI PUSH1 0x20 PUSH1 0x1 PUSH1 0x1 PUSH1 0xA0 SHL SUB PUSH1 0x5 SLOAD AND PUSH1 0x40 MLOAD SWAP1 DUP2 MSTORE RETURN JUMPDEST PUSH0 DUP1 REVERT JUMPDEST CALLVALUE PUSH2 0x120 JUMPI PUSH1 0x20 SWAP1 DUP2 PUSH1 0x3 NOT CALLDATASIZE ADD SLT PUSH2 0x120 JUMPI PUSH0 PUSH1 0xC0 PUSH1 0x40 MLOAD PUSH2 0x146 DUP2 PUSH2 0x13DC JUMP JUMPDEST DUP3 DUP2 MSTORE DUP3 DUP6 DUP3 ADD MSTORE DUP3 PUSH1 0x40 DUP3 ADD MSTORE PUSH1 0x60 DUP1 DUP3 ADD MSTORE DUP3 PUSH1 0x80 DUP3 ADD MSTORE DUP3 PUSH1 0xA0 DUP3 ADD MSTORE ADD MSTORE PUSH1 0x4 CALLDATALOAD PUSH0 MSTORE PUSH1 0x1 DUP3 MSTORE PUSH1 0x40 PUSH0 KECCAK256 PUSH1 0x40 MLOAD SWAP2 PUSH2 0x182 DUP4 PUSH2 0x13DC JUMP JUMPDEST DUP2 SLOAD DUP4 MSTORE PUSH1 0xFF PUSH1 0x1 DUP4 ADD SLOAD AND DUP5 DUP5 ADD SWAP1 ISZERO ISZERO DUP2 MSTORE PUSH1 0x2 DUP4 ADD SLOAD PUSH1 0x40 DUP6 ADD SWAP1 DUP2 MSTORE PUSH2 0x1AE PUSH1 0x3 DUP6 ADD PUSH2 0x142E JUMP JUMPDEST SWAP1 PUSH1 0x60 DUP7 ADD SWAP2 DUP3 MSTORE PUSH2 0x21B PUSH1 0x4 DUP7 ADD SLOAD SWAP3 PUSH1 0x1 PUSH1 0x1 PUSH1 0xA0 SHL SUB SWAP3 PUSH1 0x5 PUSH1 0x80 DUP11 ADD SWAP9 DUP6 DUP8 AND DUP11 MSTORE PUSH1 0xFF PUSH1 0xA0 DUP13 ADD SWAP8 PUSH1 0xA0 SHR AND ISZERO ISZERO DUP8 MSTORE ADD SLOAD SWAP6 PUSH1 0xC0 DUP11 ADD SWAP7 DUP8 MSTORE PUSH1 0x40 MLOAD SWAP11 DUP12 SWAP11 DUP2 DUP13 MSTORE MLOAD SWAP1 DUP12 ADD MSTORE MLOAD ISZERO ISZERO PUSH1 0x40 DUP11 ADD MSTORE MLOAD PUSH1 0x60 DUP10 ADD MSTORE MLOAD DUP6 PUSH1 0x80 DUP10 ADD MSTORE PUSH2 0x100 DUP9 ADD SWAP1 PUSH2 0x137F JUMP JUMPDEST SWAP5 MLOAD AND PUSH1 0xA0 DUP7 ADD MSTORE MLOAD ISZERO ISZERO PUSH1 0xC0 DUP6 ADD MSTORE MLOAD SWAP1 DUP4 ADD MSTORE SUB SWAP1 RETURN JUMPDEST CALLVALUE PUSH2 0x120 JUMPI PUSH1 0x40 CALLDATASIZE PUSH1 0x3 NOT ADD SLT PUSH2 0x120 JUMPI PUSH2 0x2AC PUSH2 0x250 PUSH2 0x12BE JUMP JUMPDEST PUSH2 0x258 PUSH2 0x12D4 JUMP JUMPDEST SWAP1 PUSH1 0x1 PUSH1 0x1 PUSH1 0xA0 SHL SUB SWAP1 PUSH2 0x28F DUP3 PUSH32 0x0 AND CALLER EQ PUSH2 0x14D0 JUMP JUMPDEST AND PUSH0 MSTORE PUSH1 0x2 PUSH1 0x20 MSTORE PUSH1 0x40 PUSH0 KECCAK256 SWAP1 PUSH1 0xFF DUP1 NOT DUP4 SLOAD AND SWAP2 ISZERO ISZERO AND OR SWAP1 SSTORE JUMP JUMPDEST STOP JUMPDEST CALLVALUE PUSH2 0x120 JUMPI PUSH1 0x20 DUP1 PUSH1 0x3 NOT CALLDATASIZE ADD SLT PUSH2 0x120 JUMPI PUSH1 0x4 CALLDATALOAD SWAP1 DUP2 PUSH0 MSTORE PUSH0 DUP2 MSTORE PUSH1 0x40 PUSH0 KECCAK256 SWAP2 DUP3 SLOAD PUSH1 0xFF DUP2 AND PUSH1 0x4 DUP2 LT ISZERO PUSH2 0x52D JUMPI PUSH1 0x1 SUB PUSH2 0x4E9 JUMPI PUSH1 0x1 PUSH1 0x1 PUSH1 0xA0 SHL SUB SWAP1 PUSH2 0x2FE PUSH1 0xFF PUSH1 0x3 DUP8 ADD SLOAD AND PUSH2 0x15C6 JUMP JUMPDEST PUSH1 0x8 SHR AND SWAP3 DUP4 ISZERO PUSH2 0x4A5 JUMPI PUSH1 0xA0 PUSH1 0x4 SWAP4 SWAP5 PUSH1 0x40 MLOAD SWAP5 DUP6 DUP1 SWAP3 PUSH32 0xFEAF968C00000000000000000000000000000000000000000000000000000000 DUP3 MSTORE GAS STATICCALL SWAP3 DUP4 ISZERO PUSH2 0x49A JUMPI PUSH0 SWAP4 PUSH2 0x44C JUMPI JUMPDEST POP PUSH0 DUP4 SGT ISZERO PUSH2 0x408 JUMPI SWAP1 PUSH2 0x2AC SWAP4 PUSH2 0x3FE PUSH1 0x3E PUSH1 0x2 PUSH2 0x3EF SWAP6 ADD SLOAD SWAP3 PUSH2 0x36E DUP8 PUSH2 0x192D JUMP JUMPDEST SWAP1 PUSH2 0x378 DUP6 PUSH2 0x192D JUMP JUMPDEST SWAP1 PUSH1 0x40 MLOAD SWAP8 DUP9 SWAP4 PUSH32 0x436861696E6C696E6B2070726963653A20000000000000000000000000000000 DUP4 DUP7 ADD MSTORE PUSH2 0x3B7 DUP2 MLOAD DUP1 SWAP3 DUP6 PUSH1 0x31 DUP10 ADD SWAP2 ADD PUSH2 0x135E JUMP JUMPDEST DUP5 ADD SWAP2 PUSH32 0x2C207468726573686F6C643A2000000000000000000000000000000000000000 PUSH1 0x31 DUP5 ADD MSTORE DUP4 MLOAD SWAP4 DUP5 SWAP2 DUP8 DUP6 ADD SWAP2 ADD PUSH2 0x135E JUMP JUMPDEST ADD SUB PUSH1 0x1E DUP2 ADD DUP7 MSTORE ADD DUP5 PUSH2 0x140C JUMP JUMPDEST CALLER SWAP4 LT ISZERO SWAP1 PUSH2 0x1755 JUMP JUMPDEST PUSH1 0x64 DUP5 PUSH1 0x40 MLOAD SWAP1 PUSH3 0x461BCD PUSH1 0xE5 SHL DUP3 MSTORE PUSH1 0x4 DUP3 ADD MSTORE PUSH1 0x12 PUSH1 0x24 DUP3 ADD MSTORE PUSH32 0x496E76616C696420707269636520646174610000000000000000000000000000 PUSH1 0x44 DUP3 ADD MSTORE REVERT JUMPDEST SWAP1 SWAP3 POP PUSH1 0xA0 DUP2 RETURNDATASIZE PUSH1 0xA0 GT PUSH2 0x492 JUMPI JUMPDEST DUP2 PUSH2 0x468 PUSH1 0xA0 SWAP4 DUP4 PUSH2 0x140C JUMP JUMPDEST DUP2 ADD SUB SLT PUSH2 0x120 JUMPI PUSH2 0x479 DUP2 PUSH2 0x16C1 JUMP JUMPDEST POP PUSH2 0x48A PUSH1 0x80 DUP6 DUP4 ADD MLOAD SWAP3 ADD PUSH2 0x16C1 JUMP JUMPDEST POP SWAP2 DUP5 PUSH2 0x349 JUMP JUMPDEST RETURNDATASIZE SWAP2 POP PUSH2 0x45B JUMP JUMPDEST PUSH1 0x40 MLOAD RETURNDATASIZE PUSH0 DUP3 RETURNDATACOPY RETURNDATASIZE SWAP1 REVERT JUMPDEST PUSH1 0x64 DUP4 PUSH1 0x40 MLOAD SWAP1 PUSH3 0x461BCD PUSH1 0xE5 SHL DUP3 MSTORE PUSH1 0x4 DUP3 ADD MSTORE PUSH1 0x17 PUSH1 0x24 DUP3 ADD MSTORE PUSH32 0x4E6F2064617461206665656420636F6E66696775726564000000000000000000 PUSH1 0x44 DUP3 ADD MSTORE REVERT JUMPDEST PUSH1 0x64 DUP4 PUSH1 0x40 MLOAD SWAP1 PUSH3 0x461BCD PUSH1 0xE5 SHL DUP3 MSTORE PUSH1 0x4 DUP3 ADD MSTORE PUSH1 0x14 PUSH1 0x24 DUP3 ADD MSTORE PUSH32 0x4E6F7420436861696E6C696E6B206F7261636C65000000000000000000000000 PUSH1 0x44 DUP3 ADD MSTORE REVERT JUMPDEST PUSH4 0x4E487B71 PUSH1 0xE0 SHL PUSH0 MSTORE PUSH1 0x21 PUSH1 0x4 MSTORE PUSH1 0x24 PUSH0 REVERT JUMPDEST PUSH1 0x20 DUP1 PUSH1 0x3 NOT CALLDATASIZE ADD SLT PUSH2 0x120 JUMPI PUSH1 0x4 CALLDATALOAD PUSH8 0x16345785D8A0000 CALLVALUE LT PUSH2 0x6D8 JUMPI DUP1 PUSH0 MSTORE PUSH1 0x1 DUP3 MSTORE PUSH1 0x40 PUSH0 KECCAK256 PUSH1 0x2 DUP2 ADD SLOAD DUP1 ISZERO PUSH2 0x694 JUMPI PUSH1 0x4 DUP3 ADD DUP1 SLOAD PUSH1 0xFF DUP2 PUSH1 0xA0 SHR AND PUSH2 0x650 JUMPI PUSH3 0x15180 SWAP3 DUP4 DUP2 ADD DUP1 SWAP2 GT PUSH2 0x5F8 JUMPI TIMESTAMP GT PUSH2 0x60C JUMPI PUSH1 0xFF PUSH1 0xA0 SHL NOT PUSH21 0x10000000000000000000000000000000000000000 SWAP2 AND OR SWAP1 SSTORE TIMESTAMP ADD SWAP1 DUP2 TIMESTAMP GT PUSH2 0x5F8 JUMPI PUSH1 0x5 ADD SSTORE PUSH32 0xE0E58E9CC5ED7EF092D3E14CFF6136D23EBF75A16CF3C8257EF8804811D8B0F3 PUSH1 0x40 MLOAD SWAP3 CALLVALUE DUP5 MSTORE CALLER SWAP4 LOG3 STOP JUMPDEST PUSH4 0x4E487B71 PUSH1 0xE0 SHL PUSH0 MSTORE PUSH1 0x11 PUSH1 0x4 MSTORE PUSH1 0x24 PUSH0 REVERT JUMPDEST PUSH1 0x64 DUP7 PUSH1 0x40 MLOAD SWAP1 PUSH3 0x461BCD PUSH1 0xE5 SHL DUP3 MSTORE PUSH1 0x4 DUP3 ADD MSTORE PUSH1 0x14 PUSH1 0x24 DUP3 ADD MSTORE PUSH32 0x4469737075746520706572696F6420656E646564000000000000000000000000 PUSH1 0x44 DUP3 ADD MSTORE REVERT JUMPDEST PUSH1 0x64 DUP7 PUSH1 0x40 MLOAD SWAP1 PUSH3 0x461BCD PUSH1 0xE5 SHL DUP3 MSTORE PUSH1 0x4 DUP3 ADD MSTORE PUSH1 0x10 PUSH1 0x24 DUP3 ADD MSTORE PUSH32 0x416C726561647920646973707574656400000000000000000000000000000000 PUSH1 0x44 DUP3 ADD MSTORE REVERT JUMPDEST PUSH1 0x64 DUP5 PUSH1 0x40 MLOAD SWAP1 PUSH3 0x461BCD PUSH1 0xE5 SHL DUP3 MSTORE PUSH1 0x4 DUP3 ADD MSTORE PUSH1 0x13 PUSH1 0x24 DUP3 ADD MSTORE PUSH32 0x4D61726B6574206E6F74207265736F6C76656400000000000000000000000000 PUSH1 0x44 DUP3 ADD MSTORE REVERT JUMPDEST PUSH1 0x64 DUP3 PUSH1 0x40 MLOAD SWAP1 PUSH3 0x461BCD PUSH1 0xE5 SHL DUP3 MSTORE PUSH1 0x4 DUP3 ADD MSTORE PUSH1 0x1A PUSH1 0x24 DUP3 ADD MSTORE PUSH32 0x496E73756666696369656E742064697370757465207374616B65000000000000 PUSH1 0x44 DUP3 ADD MSTORE REVERT JUMPDEST CALLVALUE PUSH2 0x120 JUMPI PUSH0 CALLDATASIZE PUSH1 0x3 NOT ADD SLT PUSH2 0x120 JUMPI PUSH1 0x20 PUSH1 0x40 MLOAD PUSH3 0x15180 DUP2 MSTORE RETURN JUMPDEST CALLVALUE PUSH2 0x120 JUMPI PUSH1 0x20 CALLDATASIZE PUSH1 0x3 NOT ADD SLT PUSH2 0x120 JUMPI PUSH1 0x4 CALLDATALOAD PUSH0 MSTORE PUSH1 0x1 PUSH1 0x20 MSTORE PUSH1 0x40 PUSH0 KECCAK256 DUP1 SLOAD SWAP1 PUSH1 0xFF PUSH1 0x1 DUP3 ADD SLOAD AND SWAP3 PUSH1 0xFF PUSH2 0x7A9 PUSH1 0x2 DUP5 ADD SLOAD SWAP3 PUSH2 0x77B PUSH1 0x3 DUP7 ADD PUSH2 0x142E JUMP JUMPDEST SWAP1 PUSH1 0x5 PUSH1 0x4 DUP8 ADD SLOAD SWAP7 ADD SLOAD SWAP5 PUSH1 0x40 MLOAD SWAP9 DUP10 SWAP9 DUP10 MSTORE ISZERO ISZERO PUSH1 0x20 DUP10 ADD MSTORE PUSH1 0x40 DUP9 ADD MSTORE DUP1 PUSH1 0x60 DUP9 ADD MSTORE DUP7 ADD SWAP1 PUSH2 0x137F JUMP JUMPDEST SWAP3 PUSH1 0x1 PUSH1 0x1 PUSH1 0xA0 SHL SUB DUP2 AND PUSH1 0x80 DUP7 ADD MSTORE PUSH1 0xA0 SHR AND ISZERO ISZERO PUSH1 0xA0 DUP5 ADD MSTORE PUSH1 0xC0 DUP4 ADD MSTORE SUB SWAP1 RETURN JUMPDEST CALLVALUE PUSH2 0x120 JUMPI PUSH2 0x2AC PUSH2 0x820 PUSH2 0x7E1 CALLDATASIZE PUSH2 0x1311 JUMP JUMPDEST SWAP4 SWAP1 PUSH2 0x817 PUSH1 0x1 PUSH1 0x1 PUSH1 0xA0 SHL SUB PUSH32 0x0 AND CALLER EQ PUSH2 0x14D0 JUMP JUMPDEST CALLER SWAP5 CALLDATASIZE SWAP2 PUSH2 0x1590 JUMP JUMPDEST SWAP2 PUSH2 0x1755 JUMP JUMPDEST CALLVALUE PUSH2 0x120 JUMPI PUSH0 CALLDATASIZE PUSH1 0x3 NOT ADD SLT PUSH2 0x120 JUMPI PUSH1 0x20 PUSH1 0x40 MLOAD PUSH1 0x1 PUSH1 0x1 PUSH1 0xA0 SHL SUB PUSH32 0x0 AND DUP2 MSTORE RETURN JUMPDEST CALLVALUE PUSH2 0x120 JUMPI PUSH1 0xC0 CALLDATASIZE PUSH1 0x3 NOT ADD SLT PUSH2 0x120 JUMPI PUSH1 0x4 CALLDATALOAD PUSH1 0x24 SWAP1 PUSH1 0x4 DUP3 CALLDATALOAD LT ISZERO PUSH2 0x120 JUMPI PUSH1 0x44 CALLDATALOAD SWAP2 PUSH1 0x1 PUSH1 0x1 PUSH1 0xA0 SHL SUB DUP4 AND SWAP3 DUP4 DUP2 SUB PUSH2 0x120 JUMPI PUSH8 0xFFFFFFFFFFFFFFFF PUSH1 0x64 CALLDATALOAD DUP2 DUP2 GT PUSH2 0x120 JUMPI PUSH2 0x8C1 SWAP1 CALLDATASIZE SWAP1 PUSH1 0x4 ADD PUSH2 0x12E3 JUMP JUMPDEST SWAP2 DUP1 PUSH1 0xA4 CALLDATALOAD GT PUSH2 0x120 JUMPI CALLDATASIZE PUSH1 0x23 PUSH1 0xA4 CALLDATALOAD ADD SLT ISZERO PUSH2 0x120 JUMPI DUP1 PUSH1 0xA4 CALLDATALOAD PUSH1 0x4 ADD CALLDATALOAD GT PUSH2 0x120 JUMPI CALLDATASIZE DUP6 PUSH1 0xA4 CALLDATALOAD PUSH1 0x4 ADD CALLDATALOAD PUSH1 0x5 SHL PUSH1 0xA4 CALLDATALOAD ADD ADD GT PUSH2 0x120 JUMPI PUSH2 0x92F PUSH1 0x1 PUSH1 0x1 PUSH1 0xA0 SHL SUB PUSH32 0x0 AND CALLER EQ PUSH2 0x14D0 JUMP JUMPDEST DUP6 PUSH0 MSTORE PUSH0 PUSH1 0x20 MSTORE PUSH1 0x40 PUSH0 KECCAK256 SWAP4 PUSH21 0xFFFFFFFFFFFFFFFFFFFFFFFFFFFFFFFFFFFFFFFF00 DUP6 SLOAD SWAP2 PUSH1 0x8 SHL AND SWAP1 PUSH21 0xFFFFFFFFFFFFFFFFFFFFFFFFFFFFFFFFFFFFFFFFFF NOT PUSH1 0xFF DUP9 CALLDATALOAD AND SWAP2 AND OR OR DUP5 SSTORE DUP3 GT PUSH2 0xBC5 JUMPI PUSH2 0x99B DUP3 PUSH2 0x992 PUSH1 0x1 DUP7 ADD SLOAD PUSH2 0x13A4 JUMP JUMPDEST PUSH1 0x1 DUP7 ADD PUSH2 0x167E JUMP JUMPDEST PUSH0 SWAP1 PUSH1 0x1F DUP4 GT PUSH1 0x1 EQ PUSH2 0xB58 JUMPI PUSH2 0x9C9 SWAP3 SWAP2 PUSH0 SWAP2 DUP4 PUSH2 0xB4D JUMPI JUMPDEST POP POP DUP2 PUSH1 0x1 SHL SWAP2 PUSH0 NOT SWAP1 PUSH1 0x3 SHL SHR NOT AND OR SWAP1 JUMP JUMPDEST PUSH1 0x1 DUP3 ADD SSTORE JUMPDEST PUSH1 0x84 CALLDATALOAD PUSH1 0x2 DUP3 ADD SSTORE PUSH1 0x3 DUP1 DUP3 ADD DUP1 SLOAD PUSH1 0xFF NOT AND PUSH1 0x1 OR SWAP1 SSTORE TIMESTAMP PUSH1 0x4 DUP4 ADD SSTORE DUP3 CALLDATALOAD EQ PUSH2 0xA2B JUMPI JUMPDEST POP PUSH1 0x20 PUSH32 0xBC065C247F5A8FAA5E96B3A1917D71B14B086E500E71F897FA8B58FC6319D3C0 SWAP2 PUSH2 0xA28 PUSH1 0x40 MLOAD DUP1 SWAP3 CALLDATALOAD PUSH2 0x1351 JUMP JUMPDEST LOG3 STOP JUMPDEST PUSH1 0x3 PUSH1 0xA4 CALLDATALOAD PUSH1 0x4 ADD CALLDATALOAD LT PUSH2 0xAE3 JUMPI PUSH1 0x5 ADD PUSH9 0x10000000000000000 PUSH1 0xA4 CALLDATALOAD PUSH1 0x4 ADD CALLDATALOAD GT PUSH2 0xAD0 JUMPI DUP1 SLOAD PUSH1 0x4 PUSH1 0xA4 CALLDATALOAD ADD CALLDATALOAD DUP1 DUP4 SSTORE DUP2 GT PUSH2 0xAAE JUMPI JUMPDEST POP PUSH0 SWAP1 DUP2 MSTORE PUSH1 0x20 DUP2 KECCAK256 SWAP1 PUSH1 0xA4 CALLDATALOAD DUP4 ADD JUMPDEST PUSH1 0xA4 CALLDATALOAD PUSH1 0x4 ADD CALLDATALOAD DUP3 LT PUSH2 0xA89 JUMPI POP POP PUSH2 0x9F5 JUMP JUMPDEST DUP1 CALLDATALOAD SWAP2 PUSH1 0x1 PUSH1 0x1 PUSH1 0xA0 SHL SUB DUP4 AND DUP4 SUB PUSH2 0x120 JUMPI PUSH1 0x20 PUSH1 0x1 SWAP3 ADD SWAP3 DUP2 DUP6 ADD SSTORE ADD SWAP1 PUSH2 0xA75 JUMP JUMPDEST PUSH2 0xACA SWAP1 DUP3 PUSH0 MSTORE PUSH1 0x20 PUSH0 KECCAK256 SWAP1 DUP2 ADD SWAP1 PUSH1 0xA4 CALLDATALOAD PUSH1 0x4 ADD CALLDATALOAD ADD PUSH2 0x1668 JUMP JUMPDEST DUP5 PUSH2 0xA65 JUMP JUMPDEST POP PUSH4 0x4E487B71 PUSH1 0xE0 SHL PUSH0 MSTORE PUSH1 0x41 PUSH1 0x4 MSTORE PUSH0 REVERT JUMPDEST PUSH1 0x84 DUP3 PUSH1 0x21 PUSH1 0x40 MLOAD SWAP2 PUSH3 0x461BCD PUSH1 0xE5 SHL DUP4 MSTORE PUSH1 0x20 PUSH1 0x4 DUP5 ADD MSTORE DUP3 ADD MSTORE PUSH32 0x4E656564206174206C65617374203320636F6E73656E737573206F7261636C65 PUSH1 0x44 DUP3 ADD MSTORE PUSH32 0x7300000000000000000000000000000000000000000000000000000000000000 PUSH1 0x64 DUP3 ADD MSTORE REVERT JUMPDEST ADD CALLDATALOAD SWAP1 POP DUP8 DUP1 PUSH2 0x9B5 JUMP JUMPDEST PUSH1 0x1 DUP5 SWAP4 SWAP3 SWAP4 ADD PUSH0 MSTORE PUSH1 0x20 PUSH0 KECCAK256 SWAP1 PUSH0 SWAP4 JUMPDEST PUSH1 0x1F NOT DUP5 AND DUP6 LT PUSH2 0xBAD JUMPI PUSH1 0x1 SWAP5 POP DUP4 PUSH1 0x1F NOT DUP2 AND LT PUSH2 0xB94 JUMPI JUMPDEST POP POP POP DUP2 SHL ADD PUSH1 0x1 DUP3 ADD SSTORE PUSH2 0x9CF JUMP JUMPDEST ADD CALLDATALOAD PUSH0 NOT PUSH1 0x3 DUP5 SWAP1 SHL PUSH1 0xF8 AND SHR NOT AND SWAP1 SSTORE DUP7 DUP1 DUP1 PUSH2 0xB84 JUMP JUMPDEST DUP2 DUP2 ADD CALLDATALOAD DUP4 SSTORE PUSH1 0x20 SWAP5 DUP6 ADD SWAP5 PUSH1 0x1 SWAP1 SWAP4 ADD SWAP3 ADD PUSH2 0xB69 JUMP JUMPDEST DUP4 PUSH4 0x4E487B71 PUSH1 0xE0 SHL PUSH0 MSTORE PUSH1 0x41 PUSH1 0x4 MSTORE PUSH0 REVERT JUMPDEST CALLVALUE PUSH2 0x120 JUMPI PUSH1 0x20 CALLDATASIZE PUSH1 0x3 NOT ADD SLT PUSH2 0x120 JUMPI PUSH1 0x4 CALLDATALOAD PUSH0 MSTORE PUSH1 0x4 PUSH1 0x20 MSTORE PUSH1 0x20 PUSH1 0x40 PUSH0 KECCAK256 SLOAD PUSH1 0x40 MLOAD SWAP1 DUP2 MSTORE RETURN JUMPDEST CALLVALUE PUSH2 0x120 JUMPI PUSH1 0x20 CALLDATASIZE PUSH1 0x3 NOT ADD SLT PUSH2 0x120 JUMPI PUSH1 0x1 PUSH1 0x1 PUSH1 0xA0 SHL SUB PUSH2 0xC23 PUSH2 0x12BE JUMP JUMPDEST AND PUSH0 MSTORE PUSH1 0x2 PUSH1 0x20 MSTORE PUSH1 0x20 PUSH1 0xFF PUSH1 0x40 PUSH0 KECCAK256 SLOAD AND PUSH1 0x40 MLOAD SWAP1 ISZERO ISZERO DUP2 MSTORE RETURN JUMPDEST CALLVALUE PUSH2 0x120 JUMPI PUSH1 0x20 CALLDATASIZE PUSH1 0x3 NOT ADD SLT PUSH2 0x120 JUMPI PUSH1 0x4 CALLDATALOAD PUSH0 MSTORE PUSH0 PUSH1 0x20 MSTORE PUSH1 0x1 PUSH1 0x1 PUSH1 0xA0 SHL SUB PUSH1 0x40 PUSH0 KECCAK256 DUP1 SLOAD SWAP1 PUSH2 0xC74 PUSH1 0x1 DUP3 ADD PUSH2 0x142E JUMP JUMPDEST PUSH1 0x2 DUP3 ADD SLOAD SWAP2 PUSH2 0xCB8 PUSH1 0x4 PUSH1 0xFF PUSH1 0x3 DUP5 ADD SLOAD AND SWAP3 ADD SLOAD SWAP3 PUSH1 0x40 MLOAD SWAP7 DUP7 PUSH2 0xC9E DUP10 PUSH1 0xFF DUP2 SWAP11 AND PUSH2 0x1351 JUMP JUMPDEST PUSH1 0x8 SHR AND PUSH1 0x20 DUP8 ADD MSTORE PUSH1 0xC0 PUSH1 0x40 DUP8 ADD MSTORE PUSH1 0xC0 DUP7 ADD SWAP1 PUSH2 0x137F JUMP JUMPDEST SWAP3 PUSH1 0x60 DUP6 ADD MSTORE ISZERO ISZERO PUSH1 0x80 DUP5 ADD MSTORE PUSH1 0xA0 DUP4 ADD MSTORE SUB SWAP1 RETURN JUMPDEST CALLVALUE PUSH2 0x120 JUMPI PUSH1 0x20 DUP1 PUSH1 0x3 NOT CALLDATASIZE ADD SLT PUSH2 0x120 JUMPI PUSH1 0x60 PUSH1 0xC0 PUSH1 0x40 MLOAD PUSH2 0xCF0 DUP2 PUSH2 0x13DC JUMP JUMPDEST PUSH0 DUP2 MSTORE PUSH0 DUP5 DUP3 ADD MSTORE DUP3 PUSH1 0x40 DUP3 ADD MSTORE PUSH0 DUP4 DUP3 ADD MSTORE PUSH0 PUSH1 0x80 DUP3 ADD MSTORE PUSH0 PUSH1 0xA0 DUP3 ADD MSTORE ADD MSTORE PUSH1 0x4 CALLDATALOAD PUSH0 MSTORE PUSH0 DUP2 MSTORE PUSH1 0x40 PUSH0 KECCAK256 SWAP2 PUSH1 0x40 MLOAD PUSH2 0xD2A DUP2 PUSH2 0x13DC JUMP JUMPDEST DUP4 SLOAD SWAP1 PUSH1 0xFF DUP3 AND SWAP1 PUSH1 0x4 DUP3 LT ISZERO PUSH2 0x52D JUMPI DUP5 SWAP3 DUP7 SWAP3 DUP3 MSTORE DUP4 PUSH1 0x1 PUSH1 0x1 PUSH1 0xA0 SHL SUB SWAP3 DUP4 DUP3 DUP3 ADD SWAP4 PUSH1 0x8 SHR AND DUP4 MSTORE PUSH1 0x1 SWAP5 PUSH2 0xD65 PUSH1 0x1 DUP3 ADD PUSH2 0x142E JUMP JUMPDEST SWAP4 PUSH1 0x40 DUP4 ADD SWAP5 DUP6 MSTORE PUSH2 0xDDC PUSH1 0x2 DUP4 ADD SLOAD SWAP6 PUSH1 0x60 DUP6 ADD SWAP7 DUP8 MSTORE DUP8 PUSH1 0xFF PUSH1 0x3 DUP7 ADD SLOAD AND SWAP4 PUSH1 0x80 DUP8 ADD SWAP5 ISZERO ISZERO DUP6 MSTORE PUSH2 0xDC3 PUSH2 0xDAB PUSH1 0x5 PUSH1 0x4 DUP10 ADD SLOAD SWAP9 PUSH1 0xA0 DUP12 ADD SWAP10 DUP11 MSTORE ADD PUSH2 0x1611 JUMP JUMPDEST SWAP8 PUSH1 0xC0 DUP2 ADD SWAP9 DUP10 MSTORE PUSH1 0x40 MLOAD SWAP14 DUP15 DUP2 DUP2 MSTORE ADD SWAP1 MLOAD PUSH2 0x1351 JUMP JUMPDEST MLOAD AND PUSH1 0x40 DUP12 ADD MSTORE MLOAD DUP11 PUSH1 0x60 DUP12 ADD MSTORE PUSH2 0x100 DUP11 ADD SWAP1 PUSH2 0x137F JUMP JUMPDEST SWAP5 MLOAD PUSH1 0x80 DUP10 ADD MSTORE MLOAD ISZERO ISZERO PUSH1 0xA0 DUP9 ADD MSTORE MLOAD PUSH1 0xC0 DUP8 ADD MSTORE MLOAD SWAP6 PUSH1 0x1F NOT DUP7 DUP5 SUB ADD SWAP1 DUP7 ADD MSTORE DUP1 DUP1 DUP8 MLOAD SWAP4 DUP5 DUP2 MSTORE ADD SWAP7 ADD SWAP3 PUSH0 SWAP1 JUMPDEST DUP4 DUP3 LT PUSH2 0xE1A JUMPI DUP7 DUP9 SUB DUP8 RETURN JUMPDEST DUP5 MLOAD DUP2 AND DUP9 MSTORE SWAP7 DUP3 ADD SWAP7 SWAP4 DUP3 ADD SWAP4 SWAP1 DUP6 ADD SWAP1 PUSH2 0xE0D JUMP JUMPDEST CALLVALUE PUSH2 0x120 JUMPI PUSH2 0xE3F CALLDATASIZE PUSH2 0x1311 JUMP JUMPDEST SWAP2 SWAP3 SWAP1 SWAP3 CALLER PUSH0 MSTORE PUSH1 0x2 PUSH1 0x20 MSTORE PUSH1 0xFF PUSH1 0x40 PUSH0 KECCAK256 SLOAD AND ISZERO PUSH2 0xED0 JUMPI DUP2 PUSH0 MSTORE PUSH0 PUSH1 0x20 MSTORE PUSH1 0x40 PUSH0 KECCAK256 PUSH1 0xFF DUP2 SLOAD AND PUSH1 0x4 DUP2 LT ISZERO PUSH2 0x52D JUMPI PUSH2 0xE8C JUMPI PUSH2 0x2AC SWAP5 PUSH2 0x817 PUSH1 0xFF PUSH1 0x3 PUSH2 0x820 SWAP5 ADD SLOAD AND PUSH2 0x15C6 JUMP JUMPDEST PUSH1 0x64 PUSH1 0x40 MLOAD PUSH3 0x461BCD PUSH1 0xE5 SHL DUP2 MSTORE PUSH1 0x20 PUSH1 0x4 DUP3 ADD MSTORE PUSH1 0x11 PUSH1 0x24 DUP3 ADD MSTORE PUSH32 0x4E6F74206D616E75616C206F7261636C65000000000000000000000000000000 PUSH1 0x44 DUP3 ADD MSTORE REVERT JUMPDEST PUSH1 0x64 PUSH1 0x40 MLOAD PUSH3 0x461BCD PUSH1 0xE5 SHL DUP2 MSTORE PUSH1 0x20 PUSH1 0x4 DUP3 ADD MSTORE PUSH1 0x15 PUSH1 0x24 DUP3 ADD MSTORE PUSH32 0x4E6F7420617574686F72697A6564206F7261636C650000000000000000000000 PUSH1 0x44 DUP3 ADD MSTORE REVERT JUMPDEST CALLVALUE PUSH2 0x120 JUMPI PUSH1 0x40 CALLDATASIZE PUSH1 0x3 NOT ADD SLT PUSH2 0x120 JUMPI PUSH1 0x4 CALLDATALOAD PUSH2 0xF30 PUSH2 0x12D4 JUMP JUMPDEST PUSH2 0xF64 PUSH1 0x1 PUSH1 0x1 PUSH1 0xA0 SHL SUB PUSH32 0x0 AND CALLER EQ PUSH2 0x14D0 JUMP JUMPDEST DUP2 PUSH0 MSTORE PUSH1 0x1 PUSH1 0x20 MSTORE PUSH1 0x40 PUSH0 KECCAK256 PUSH1 0x4 DUP2 ADD SWAP2 PUSH1 0xFF DUP4 SLOAD PUSH1 0xA0 SHR AND ISZERO PUSH2 0x1034 JUMPI PUSH1 0x5 DUP3 ADD SLOAD TIMESTAMP LT PUSH2 0xFF0 JUMPI PUSH32 0x5ADD0B1FC2A3DFD95BE33D1D5FEB6709087E50213B7A73C3C3B2C387001221E7 SWAP3 PUSH2 0xFCA DUP3 PUSH1 0x1 PUSH1 0x40 SWAP6 ADD SWAP1 PUSH1 0xFF DUP1 NOT DUP4 SLOAD AND SWAP2 ISZERO ISZERO AND OR SWAP1 SSTORE JUMP JUMPDEST PUSH1 0xFF PUSH1 0xA0 SHL NOT DUP2 SLOAD AND SWAP1 SSTORE DUP4 PUSH0 MSTORE PUSH1 0x4 PUSH1 0x20 MSTORE DUP2 PUSH0 KECCAK256 SLOAD DUP3 MLOAD SWAP2 ISZERO ISZERO DUP3 MSTORE PUSH1 0x20 DUP3 ADD MSTORE LOG2 STOP JUMPDEST PUSH1 0x64 PUSH1 0x40 MLOAD PUSH3 0x461BCD PUSH1 0xE5 SHL DUP2 MSTORE PUSH1 0x20 PUSH1 0x4 DUP3 ADD MSTORE PUSH1 0x18 PUSH1 0x24 DUP3 ADD MSTORE PUSH32 0x4469737075746520706572696F64206E6F7420656E6465640000000000000000 PUSH1 0x44 DUP3 ADD MSTORE REVERT JUMPDEST PUSH1 0x64 PUSH1 0x40 MLOAD PUSH3 0x461BCD PUSH1 0xE5 SHL DUP2 MSTORE PUSH1 0x20 PUSH1 0x4 DUP3 ADD MSTORE PUSH1 0x11 PUSH1 0x24 DUP3 ADD MSTORE PUSH32 0x4E6F206163746976652064697370757465000000000000000000000000000000 PUSH1 0x44 DUP3 ADD MSTORE REVERT JUMPDEST CALLVALUE PUSH2 0x120 JUMPI PUSH1 0x40 CALLDATASIZE PUSH1 0x3 NOT ADD SLT PUSH2 0x120 JUMPI PUSH1 0x24 CALLDATALOAD PUSH1 0x1 PUSH1 0x1 PUSH1 0xA0 SHL SUB DUP2 AND DUP1 SWAP2 SUB PUSH2 0x120 JUMPI PUSH1 0x4 CALLDATALOAD PUSH0 MSTORE PUSH1 0x3 PUSH1 0x20 MSTORE PUSH1 0x40 PUSH0 KECCAK256 SWAP1 PUSH0 MSTORE PUSH1 0x20 MSTORE PUSH1 0x20 PUSH1 0xFF PUSH1 0x40 PUSH0 KECCAK256 SLOAD AND PUSH1 0x40 MLOAD SWAP1 ISZERO ISZERO DUP2 MSTORE RETURN JUMPDEST CALLVALUE PUSH2 0x120 JUMPI PUSH2 0x10D3 CALLDATASIZE PUSH2 0x1311 JUMP JUMPDEST SWAP2 SWAP3 SWAP1 DUP2 PUSH0 MSTORE PUSH1 0x20 PUSH0 DUP2 MSTORE PUSH1 0x40 PUSH0 KECCAK256 PUSH1 0xFF DUP1 DUP3 SLOAD AND SWAP7 PUSH1 0x4 DUP9 LT ISZERO PUSH2 0x52D JUMPI PUSH2 0x113A SWAP1 PUSH2 0x1103 PUSH1 0x3 DUP1 SWAP11 EQ PUSH2 0x151B JUMP JUMPDEST PUSH2 0x1115 PUSH2 0x1110 CALLER DUP10 PUSH2 0x1700 JUMP JUMPDEST PUSH2 0x151B JUMP JUMPDEST DUP7 PUSH0 MSTORE PUSH1 0x3 DUP6 MSTORE PUSH1 0x40 PUSH0 KECCAK256 CALLER PUSH0 MSTORE DUP6 MSTORE PUSH1 0x40 PUSH0 KECCAK256 SWAP1 PUSH1 0xFF DUP1 NOT DUP4 SLOAD AND SWAP2 ISZERO ISZERO AND OR SWAP1 SSTORE JUMP JUMPDEST DUP5 PUSH0 MSTORE PUSH1 0x4 DUP4 MSTORE PUSH1 0x40 PUSH0 KECCAK256 PUSH2 0x114F DUP2 SLOAD PUSH2 0x1566 JUMP JUMPDEST SWAP1 SSTORE DUP5 PUSH0 MSTORE PUSH1 0x4 DUP4 MSTORE PUSH1 0x5 PUSH1 0x40 PUSH0 KECCAK256 SLOAD SWAP3 ADD SLOAD SWAP2 PUSH1 0x1 SWAP3 DUP1 PUSH1 0x1 SHL SWAP1 DUP1 DUP3 DIV PUSH1 0x2 EQ SWAP1 ISZERO OR ISZERO PUSH2 0x5F8 JUMPI PUSH1 0x3 SWAP1 DIV GT ISZERO PUSH2 0x1185 JUMPI STOP JUMPDEST DUP5 PUSH0 MSTORE PUSH0 DUP4 MSTORE PUSH2 0x119A PUSH1 0x5 PUSH1 0x40 PUSH0 KECCAK256 ADD PUSH2 0x1611 JUMP JUMPDEST SWAP3 PUSH0 SWAP8 DUP4 PUSH0 SWAP1 JUMPDEST PUSH2 0x11C2 JUMPI JUMPDEST POP POP POP POP POP PUSH2 0x2AC SWAP5 PUSH2 0x820 SWAP2 MLOAD PUSH1 0x1 SHR LT SWAP2 ADDRESS SWAP5 CALLDATASIZE SWAP2 PUSH2 0x1590 JUMP JUMPDEST DUP6 MLOAD DUP2 LT ISZERO PUSH2 0x121C JUMPI DUP8 PUSH0 MSTORE DUP2 DUP4 MSTORE PUSH1 0x40 PUSH0 KECCAK256 PUSH1 0x1 PUSH1 0x1 PUSH1 0xA0 SHL SUB PUSH2 0x11E7 DUP4 DUP10 PUSH2 0x16D8 JUMP JUMPDEST MLOAD AND PUSH0 MSTORE DUP4 MSTORE DUP4 PUSH1 0x40 PUSH0 KECCAK256 SLOAD AND PUSH2 0x1201 JUMPI JUMPDEST DUP5 ADD DUP5 PUSH2 0x11A1 JUMP JUMPDEST SWAP9 SWAP1 DUP5 PUSH2 0x1210 DUP2 SWAP6 SWAP5 SWAP4 PUSH2 0x1566 JUMP JUMPDEST SWAP11 SWAP2 SWAP3 SWAP4 SWAP5 POP POP PUSH2 0x11F9 JUMP JUMPDEST PUSH2 0x11A6 JUMP JUMPDEST CALLVALUE PUSH2 0x120 JUMPI PUSH1 0x20 CALLDATASIZE PUSH1 0x3 NOT ADD SLT PUSH2 0x120 JUMPI PUSH2 0x123A PUSH2 0x12BE JUMP JUMPDEST PUSH1 0x1 PUSH1 0x1 PUSH1 0xA0 SHL SUB SWAP1 PUSH2 0x1270 DUP3 PUSH32 0x0 AND CALLER EQ PUSH2 0x14D0 JUMP JUMPDEST AND PUSH32 0xFFFFFFFFFFFFFFFFFFFFFFFF0000000000000000000000000000000000000000 PUSH1 0x5 SLOAD AND OR PUSH1 0x5 SSTORE PUSH0 DUP1 RETURN JUMPDEST CALLVALUE PUSH2 0x120 JUMPI PUSH0 CALLDATASIZE PUSH1 0x3 NOT ADD SLT PUSH2 0x120 JUMPI DUP1 PUSH8 0x16345785D8A0000 PUSH1 0x20 SWAP3 MSTORE RETURN JUMPDEST PUSH1 0x4 CALLDATALOAD SWAP1 PUSH1 0x1 PUSH1 0x1 PUSH1 0xA0 SHL SUB DUP3 AND DUP3 SUB PUSH2 0x120 JUMPI JUMP JUMPDEST PUSH1 0x24 CALLDATALOAD SWAP1 DUP2 ISZERO ISZERO DUP3 SUB PUSH2 0x120 JUMPI JUMP JUMPDEST SWAP2 DUP2 PUSH1 0x1F DUP5 ADD SLT ISZERO PUSH2 0x120 JUMPI DUP3 CALLDATALOAD SWAP2 PUSH8 0xFFFFFFFFFFFFFFFF DUP4 GT PUSH2 0x120 JUMPI PUSH1 0x20 DUP4 DUP2 DUP7 ADD SWAP6 ADD ADD GT PUSH2 0x120 JUMPI JUMP JUMPDEST PUSH1 0x60 PUSH1 0x3 NOT DUP3 ADD SLT PUSH2 0x120 JUMPI PUSH1 0x4 CALLDATALOAD SWAP2 PUSH1 0x24 CALLDATALOAD DUP1 ISZERO ISZERO DUP2 SUB PUSH2 0x120 JUMPI SWAP2 PUSH1 0x44 CALLDATALOAD SWAP1 PUSH8 0xFFFFFFFFFFFFFFFF DUP3 GT PUSH2 0x120 JUMPI PUSH2 0x134D SWAP2 PUSH1 0x4 ADD PUSH2 0x12E3 JUMP JUMPDEST SWAP1 SWAP2 JUMP JUMPDEST SWAP1 PUSH1 0x4 DUP3 LT ISZERO PUSH2 0x52D JUMPI MSTORE JUMP JUMPDEST PUSH0 JUMPDEST DUP4 DUP2 LT PUSH2 0x136F JUMPI POP POP PUSH0 SWAP2 ADD MSTORE JUMP JUMPDEST DUP2 DUP2 ADD MLOAD DUP4 DUP3 ADD MSTORE PUSH1 0x20 ADD PUSH2 0x1360 JUMP JUMPDEST SWAP1 PUSH1 0x20 SWAP2 PUSH2 0x1398 DUP2 MLOAD DUP1 SWAP3 DUP2 DUP6 MSTORE DUP6 DUP1 DUP7 ADD SWAP2 ADD PUSH2 0x135E JUMP JUMPDEST PUSH1 0x1F ADD PUSH1 0x1F NOT AND ADD ADD SWAP1 JUMP JUMPDEST SWAP1 PUSH1 0x1 DUP3 DUP2 SHR SWAP3 AND DUP1 ISZERO PUSH2 0x13D2 JUMPI JUMPDEST PUSH1 0x20 DUP4 LT EQ PUSH2 0x13BE JUMPI JUMP JUMPDEST PUSH4 0x4E487B71 PUSH1 0xE0 SHL PUSH0 MSTORE PUSH1 0x22 PUSH1 0x4 MSTORE PUSH1 0x24 PUSH0 REVERT JUMPDEST SWAP2 PUSH1 0x7F AND SWAP2 PUSH2 0x13B3 JUMP JUMPDEST PUSH1 0xE0 DUP2 ADD SWAP1 DUP2 LT PUSH8 0xFFFFFFFFFFFFFFFF DUP3 GT OR PUSH2 0x13F8 JUMPI PUSH1 0x40 MSTORE JUMP JUMPDEST PUSH4 0x4E487B71 PUSH1 0xE0 SHL PUSH0 MSTORE PUSH1 0x41 PUSH1 0x4 MSTORE PUSH1 0x24 PUSH0 REVERT JUMPDEST SWAP1 PUSH1 0x1F DUP1 NOT SWAP2 ADD AND DUP2 ADD SWAP1 DUP2 LT PUSH8 0xFFFFFFFFFFFFFFFF DUP3 GT OR PUSH2 0x13F8 JUMPI PUSH1 0x40 MSTORE JUMP JUMPDEST SWAP1 PUSH1 0x40 MLOAD SWAP2 DUP3 PUSH0 DUP3 SLOAD PUSH2 0x1440 DUP2 PUSH2 0x13A4 JUMP JUMPDEST SWAP1 DUP2 DUP5 MSTORE PUSH1 0x20 SWAP5 PUSH1 0x1 SWAP2 PUSH1 0x1 DUP2 AND SWAP1 DUP2 PUSH0 EQ PUSH2 0x14AE JUMPI POP PUSH1 0x1 EQ PUSH2 0x1470 JUMPI JUMPDEST POP POP POP PUSH2 0x146E SWAP3 POP SUB DUP4 PUSH2 0x140C JUMP JUMPDEST JUMP JUMPDEST PUSH0 SWAP1 DUP2 MSTORE DUP6 DUP2 KECCAK256 SWAP6 SWAP4 POP SWAP2 SWAP1 JUMPDEST DUP2 DUP4 LT PUSH2 0x1496 JUMPI POP POP PUSH2 0x146E SWAP4 POP DUP3 ADD ADD PUSH0 DUP1 DUP1 PUSH2 0x145F JUMP JUMPDEST DUP6 SLOAD DUP9 DUP5 ADD DUP6 ADD MSTORE SWAP5 DUP6 ADD SWAP5 DUP8 SWAP5 POP SWAP2 DUP4 ADD SWAP2 PUSH2 0x147D JUMP JUMPDEST SWAP3 POP POP POP PUSH2 0x146E SWAP5 SWAP3 POP PUSH1 0xFF NOT AND DUP3 DUP5 ADD MSTORE ISZERO ISZERO PUSH1 0x5 SHL DUP3 ADD ADD PUSH0 DUP1 DUP1 PUSH2 0x145F JUMP JUMPDEST ISZERO PUSH2 0x14D7 JUMPI JUMP JUMPDEST PUSH1 0x64 PUSH1 0x40 MLOAD PUSH3 0x461BCD PUSH1 0xE5 SHL DUP2 MSTORE PUSH1 0x20 PUSH1 0x4 DUP3 ADD MSTORE PUSH1 0x9 PUSH1 0x24 DUP3 ADD MSTORE PUSH32 0x4E6F74206F776E65720000000000000000000000000000000000000000000000 PUSH1 0x44 DUP3 ADD MSTORE REVERT JUMPDEST ISZERO PUSH2 0x1522 JUMPI JUMP JUMPDEST PUSH1 0x64 PUSH1 0x40 MLOAD PUSH3 0x461BCD PUSH1 0xE5 SHL DUP2 MSTORE PUSH1 0x20 PUSH1 0x4 DUP3 ADD MSTORE PUSH1 0x14 PUSH1 0x24 DUP3 ADD MSTORE PUSH32 0x4E6F7420636F6E73656E737573206F7261636C65000000000000000000000000 PUSH1 0x44 DUP3 ADD MSTORE REVERT JUMPDEST PUSH0 NOT DUP2 EQ PUSH2 0x5F8 JUMPI PUSH1 0x1 ADD SWAP1 JUMP JUMPDEST PUSH8 0xFFFFFFFFFFFFFFFF DUP2 GT PUSH2 0x13F8 JUMPI PUSH1 0x1F ADD PUSH1 0x1F NOT AND PUSH1 0x20 ADD SWAP1 JUMP JUMPDEST SWAP3 SWAP2 SWAP3 PUSH2 0x159C DUP3 PUSH2 0x1574 JUMP JUMPDEST SWAP2 PUSH2 0x15AA PUSH1 0x40 MLOAD SWAP4 DUP5 PUSH2 0x140C JUMP JUMPDEST DUP3 SWAP5 DUP2 DUP5 MSTORE DUP2 DUP4 ADD GT PUSH2 0x120 JUMPI DUP3 DUP2 PUSH1 0x20 SWAP4 DUP5 PUSH0 SWAP7 ADD CALLDATACOPY ADD ADD MSTORE JUMP JUMPDEST ISZERO PUSH2 0x15CD JUMPI JUMP JUMPDEST PUSH1 0x64 PUSH1 0x40 MLOAD PUSH3 0x461BCD PUSH1 0xE5 SHL DUP2 MSTORE PUSH1 0x20 PUSH1 0x4 DUP3 ADD MSTORE PUSH1 0x11 PUSH1 0x24 DUP3 ADD MSTORE PUSH32 0x4F7261636C65206E6F7420616374697665000000000000000000000000000000 PUSH1 0x44 DUP3 ADD MSTORE REVERT JUMPDEST SWAP1 PUSH1 0x40 MLOAD SWAP2 DUP3 DUP2 SLOAD SWAP2 DUP3 DUP3 MSTORE PUSH1 0x20 SWAP3 PUSH1 0x20 DUP4 ADD SWAP2 PUSH0 MSTORE PUSH1 0x20 PUSH0 KECCAK256 SWAP4 PUSH0 SWAP1 JUMPDEST DUP3 DUP3 LT PUSH2 0x1645 JUMPI POP POP POP PUSH2 0x146E SWAP3 POP SUB DUP4 PUSH2 0x140C JUMP JUMPDEST DUP6 SLOAD PUSH1 0x1 PUSH1 0x1 PUSH1 0xA0 SHL SUB AND DUP5 MSTORE PUSH1 0x1 SWAP6 DUP7 ADD SWAP6 DUP9 SWAP6 POP SWAP4 DUP2 ADD SWAP4 SWAP1 SWAP2 ADD SWAP1 PUSH2 0x162F JUMP JUMPDEST DUP2 DUP2 LT PUSH2 0x1673 JUMPI POP POP JUMP JUMPDEST PUSH0 DUP2 SSTORE PUSH1 0x1 ADD PUSH2 0x1668 JUMP JUMPDEST SWAP2 SWAP1 PUSH1 0x1F DUP2 GT PUSH2 0x168D JUMPI POP POP POP JUMP JUMPDEST PUSH2 0x146E SWAP3 PUSH0 MSTORE PUSH1 0x20 PUSH0 KECCAK256 SWAP1 PUSH1 0x20 PUSH1 0x1F DUP5 ADD PUSH1 0x5 SHR DUP4 ADD SWAP4 LT PUSH2 0x16B7 JUMPI JUMPDEST PUSH1 0x1F ADD PUSH1 0x5 SHR ADD SWAP1 PUSH2 0x1668 JUMP JUMPDEST SWAP1 SWAP2 POP DUP2 SWAP1 PUSH2 0x16AA JUMP JUMPDEST MLOAD SWAP1 PUSH10 0xFFFFFFFFFFFFFFFFFFFF DUP3 AND DUP3 SUB PUSH2 0x120 JUMPI JUMP JUMPDEST DUP1 MLOAD DUP3 LT ISZERO PUSH2 0x16EC JUMPI PUSH1 0x20 SWAP2 PUSH1 0x5 SHL ADD ADD SWAP1 JUMP JUMPDEST PUSH4 0x4E487B71 PUSH1 0xE0 SHL PUSH0 MSTORE PUSH1 0x32 PUSH1 0x4 MSTORE PUSH1 0x24 PUSH0 REVERT JUMPDEST PUSH0 MSTORE PUSH0 PUSH1 0x20 MSTORE PUSH2 0x1715 PUSH1 0x5 PUSH1 0x40 PUSH0 KECCAK256 ADD PUSH2 0x1611 JUMP JUMPDEST SWAP1 PUSH0 JUMPDEST DUP3 MLOAD DUP2 LT ISZERO PUSH2 0x174E JUMPI PUSH1 0x1 PUSH1 0x1 PUSH1 0xA0 SHL SUB DUP1 PUSH2 0x1734 DUP4 DUP7 PUSH2 0x16D8 JUMP JUMPDEST MLOAD AND SWAP1 DUP4 AND EQ PUSH2 0x1746 JUMPI PUSH1 0x1 ADD PUSH2 0x1718 JUMP JUMPDEST POP POP POP PUSH1 0x1 SWAP1 JUMP JUMPDEST POP POP POP PUSH0 SWAP1 JUMP JUMPDEST SWAP2 SWAP1 DUP3 PUSH0 MSTORE PUSH1 0x1 SWAP1 PUSH1 0x20 SWAP2 PUSH1 0x1 DUP4 MSTORE PUSH1 0x40 SWAP4 DUP5 PUSH0 KECCAK256 SWAP2 PUSH1 0x2 DUP4 ADD DUP1 SLOAD PUSH2 0x18EA JUMPI DUP8 DUP5 SSTORE PUSH2 0x1791 DUP6 PUSH1 0x1 DUP7 ADD SWAP1 PUSH1 0xFF DUP1 NOT DUP4 SLOAD AND SWAP2 ISZERO ISZERO AND OR SWAP1 SSTORE JUMP JUMPDEST TIMESTAMP SWAP1 SSTORE DUP2 MLOAD PUSH1 0x3 DUP5 ADD SWAP2 PUSH8 0xFFFFFFFFFFFFFFFF DUP3 GT PUSH2 0x13F8 JUMPI PUSH2 0x17BE DUP3 PUSH2 0x17B8 DUP6 SLOAD PUSH2 0x13A4 JUMP JUMPDEST DUP6 PUSH2 0x167E JUMP JUMPDEST DUP7 SWAP1 PUSH1 0x1F DUP4 GT PUSH1 0x1 EQ PUSH2 0x1887 JUMPI POP SWAP1 DUP1 PUSH2 0x17EC SWAP3 PUSH0 SWAP2 PUSH2 0x187C JUMPI JUMPDEST POP DUP2 PUSH1 0x1 SHL SWAP2 PUSH0 NOT SWAP1 PUSH1 0x3 SHL SHR NOT AND OR SWAP1 JUMP JUMPDEST SWAP1 SSTORE JUMPDEST PUSH1 0x1 PUSH1 0x1 PUSH1 0xA0 SHL SUB PUSH1 0x4 DUP4 ADD SWAP8 AND SWAP7 DUP8 PUSH21 0xFFFFFFFFFFFFFFFFFFFFFFFFFFFFFFFFFFFFFFFFFF NOT DUP3 SLOAD AND OR SWAP1 SSTORE PUSH3 0x15180 TIMESTAMP ADD SWAP5 DUP6 TIMESTAMP GT PUSH2 0x5F8 JUMPI PUSH32 0x17FADD484298B74931CA66BE78C452C4E6D66B66682D7BF575D3B6CABEC20D0D SWAP6 PUSH1 0x5 PUSH2 0x1877 SWAP5 ADD SSTORE DUP7 PUSH0 MSTORE PUSH0 DUP6 MSTORE TIMESTAMP PUSH1 0x4 DUP3 PUSH0 KECCAK256 ADD SSTORE DUP1 DUP1 MLOAD SWAP6 DUP7 SWAP6 ISZERO ISZERO DUP7 MSTORE DUP6 ADD MSTORE DUP4 ADD SWAP1 PUSH2 0x137F JUMP JUMPDEST SUB SWAP1 LOG3 JUMP JUMPDEST SWAP1 POP DUP5 ADD MLOAD PUSH0 PUSH2 0x17D9 JUMP JUMPDEST SWAP1 PUSH1 0x1F NOT DUP4 AND DUP5 PUSH0 MSTORE DUP9 PUSH0 KECCAK256 SWAP3 PUSH0 SWAP1 JUMPDEST DUP11 DUP4 DUP4 LT PUSH2 0x18D3 JUMPI POP POP POP SWAP1 DUP4 PUSH1 0x1 SWAP5 SWAP4 SWAP3 LT PUSH2 0x18BB JUMPI JUMPDEST POP POP DUP2 SHL ADD SWAP1 SSTORE PUSH2 0x17EF JUMP JUMPDEST DUP6 ADD MLOAD PUSH0 NOT PUSH1 0xF8 DUP5 PUSH1 0x3 SHL AND SHR NOT AND SWAP1 SSTORE PUSH0 DUP1 PUSH2 0x18AF JUMP JUMPDEST DUP2 DUP6 SWAP7 DUP3 SWAP4 SWAP5 SWAP7 DUP12 ADD MLOAD DUP2 SSTORE ADD SWAP6 ADD SWAP4 ADD SWAP1 PUSH2 0x1897 JUMP JUMPDEST PUSH1 0x64 DUP7 DUP9 MLOAD SWAP1 PUSH3 0x461BCD PUSH1 0xE5 SHL DUP3 MSTORE PUSH1 0x4 DUP3 ADD MSTORE PUSH1 0x10 PUSH1 0x24 DUP3 ADD MSTORE PUSH32 0x416C7265616479207265736F6C76656400000000000000000000000000000000 PUSH1 0x44 DUP3 ADD MSTORE REVERT JUMPDEST DUP1 ISZERO PUSH2 0x19E7 JUMPI PUSH0 DUP2 DUP1 JUMPDEST PUSH2 0x19D3 JUMPI POP PUSH2 0x1945 DUP2 PUSH2 0x1574 JUMP JUMPDEST SWAP1 PUSH2 0x1953 PUSH1 0x40 MLOAD SWAP3 DUP4 PUSH2 0x140C JUMP JUMPDEST DUP1 DUP3 MSTORE PUSH1 0x1F NOT PUSH2 0x1962 DUP3 PUSH2 0x1574 JUMP JUMPDEST ADD CALLDATASIZE PUSH1 0x20 DUP5 ADD CALLDATACOPY SWAP2 JUMPDEST DUP3 SWAP1 DUP1 ISZERO PUSH2 0x19CC JUMPI PUSH1 0xA SWAP2 PUSH1 0x30 SWAP5 DUP4 DUP4 MOD DUP7 ADD DUP1 SWAP7 GT PUSH2 0x5F8 JUMPI DUP1 ISZERO PUSH2 0x5F8 JUMPI PUSH0 NOT ADD SWAP5 DUP5 MLOAD DUP7 LT ISZERO PUSH2 0x16EC JUMPI PUSH1 0xF8 SHL PUSH32 0xFF00000000000000000000000000000000000000000000000000000000000000 AND PUSH0 BYTE SWAP1 DUP5 ADD PUSH1 0x1F ADD MSTORE8 DIV PUSH2 0x196B JUMP JUMPDEST POP POP SWAP1 POP SWAP1 JUMP JUMPDEST SWAP1 PUSH2 0x19DF PUSH1 0xA SWAP2 PUSH2 0x1566 JUMP JUMPDEST SWAP2 DIV DUP1 PUSH2 0x1937 JUMP JUMPDEST POP PUSH1 0x40 MLOAD PUSH1 0x40 DUP2 ADD DUP2 DUP2 LT PUSH8 0xFFFFFFFFFFFFFFFF DUP3 GT OR PUSH2 0x13F8 JUMPI PUSH1 0x40 MSTORE PUSH1 0x1 DUP2 MSTORE PUSH32 0x3000000000000000000000000000000000000000000000000000000000000000 PUSH1 0x20 DUP3 ADD MSTORE SWAP1 JUMP INVALID LOG2 PUSH5 0x6970667358 0x22 SLT KECCAK256 0x4E EXTCODESIZE 0xCC LT 0xF9 RETURNDATACOPY 0xF6 CALLER DUP6 PC CREATE LOG2 PUSH1 0x52 LOG1 0xDF CALLDATACOPY 0xE1 PUSH11 0x68E4327C60D3B2667EA085 BALANCE 0xB6 PUSH5 0x736F6C6343 STOP ADDMOD XOR STOP CALLER "},"methodIdentifiers":{"DISPUTE_PERIOD()":"a5bbe22b","MIN_DISPUTE_STAKE()":"03abc752","authorizedOracles(address)":"61c992a3","configureOracle(uint256,uint8,address,string,uint256,address[])":"799dcaf6","disputeVoteCount(uint256)":"76cc96af","disputeVotes(uint256,address)":"203d82cb","emergencyResolve(uint256,bool,string)":"a04382b2","getOracleConfig(uint256)":"3e1cf1d8","getResolution(uint256)":"d565a533","marketOracles(uint256)":"4c8d1eda","owner()":"8da5cb5b","predictionMarket()":"def114b6","raiseDispute(uint256)":"a5c1674e","resolutions(uint256)":"a4b7f5ce","resolveDispute(uint256,bool)":"34b25ee2","resolveMarketChainlink(uint256)":"c438ff01","resolveMarketManual(uint256,bool,string)":"3bd2b079","setAuthorizedOracle(address,bool)":"c7a6de4d","setPredictionMarket(address)":"03b88ba2","submitConsensusVote(uint256,bool,string)":"16e66e94"}}}}}