{"contracts/PredictionMarket.sol":{"PredictionMarket":{"abi":[{"inputs":[{"internalType":"address","name":"_feeCollector","type":"address"},{"internalType":"address","name":"_encryptedBetting","type":"address"},{"internalType":"address","name":"_oracleIntegration","type":"address"}],"stateMutability":"nonpayable","type":"constructor"},{"anonymous":false,"inputs":[{"indexed":true,"internalType":"uint256","name":"marketId","type":"uint256"},{"indexed":true,"internalType":"address","name":"user","type":"address"},{"indexed":false,"internalType":"bool","name":"outcome","type":"bool"},{"indexed":false,"internalType":"uint256","name":"timestamp","type":"uint256"}],"name":"BetPlaced","type":"event"},{"anonymous":false,"inputs":[{"indexed":true,"internalType":"uint256","name":"marketId","type":"uint256"},{"indexed":false,"internalType":"string","name":"question","type":"string"},{"indexed":false,"internalType":"uint256","name":"endTime","type":"uint256"},{"indexed":true,"internalType":"address","name":"creator","type":"address"}],"name":"MarketCreated","type":"event"},{"anonymous":false,"inputs":[{"indexed":true,"internalType":"uint256","name":"marketId","type":"uint256"},{"indexed":false,"internalType":"bool","name":"outcome","type":"bool"},{"indexed":false,"internalType":"uint256","name":"timestamp","type":"uint256"}],"name":"MarketResolved","type":"event"},{"anonymous":false,"inputs":[{"indexed":true,"internalType":"uint256","name":"marketId","type":"uint256"},{"indexed":true,"internalType":"address","name":"user","type":"address"},{"indexed":false,"internalType":"uint256","name":"amount","type":"uint256"}],"name":"PayoutClaimed","type":"event"},{"inputs":[],"name":"MARKET_FEE","outputs":[{"internalType":"uint256","name":"","type":"uint256"}],"stateMutability":"view","type":"function"},{"inputs":[],"name":"MAX_BET","outputs":[{"internalType":"uint256","name":"","type":"uint256"}],"stateMutability":"view","type":"function"},{"inputs":[],"name":"MIN_BET","outputs":[{"internalType":"uint256","name":"","type":"uint256"}],"stateMutability":"view","type":"function"},{"inputs":[{"internalType":"address","name":"","type":"address"}],"name":"authorizedOracles","outputs":[{"internalType":"bool","name":"","type":"bool"}],"stateMutability":"view","type":"function"},{"inputs":[{"internalType":"uint256","name":"marketId","type":"uint256"}],"name":"claimPayout","outputs":[],"stateMutability":"nonpayable","type":"function"},{"inputs":[{"internalType":"string","name":"question","type":"string"},{"internalType":"string","name":"description","type":"string"},{"internalType":"uint256","name":"endTime","type":"uint256"},{"internalType":"address","name":"oracle","type":"address"}],"name":"createMarket","outputs":[{"internalType":"uint256","name":"marketId","type":"uint256"}],"stateMutability":"nonpayable","type":"function"},{"inputs":[],"name":"emergencyWithdraw","outputs":[],"stateMutability":"nonpayable","type":"function"},{"inputs":[],"name":"encryptedBetting","outputs":[{"internalType":"contract EncryptedBetting","name":"","type":"address"}],"stateMutability":"view","type":"function"},{"inputs":[],"name":"feeCollector","outputs":[{"internalType":"address","name":"","type":"address"}],"stateMutability":"view","type":"function"},{"inputs":[{"internalType":"uint256","name":"marketId","type":"uint256"}],"name":"getMarket","outputs":[{"components":[{"internalType":"uint256","name":"id","type":"uint256"},{"internalType":"string","name":"question","type":"string"},{"internalType":"string","name":"description","type":"string"},{"internalType":"uint256","name":"endTime","type":"uint256"},{"internalType":"uint256","name":"resolutionTime","type":"uint256"},{"internalType":"uint256","name":"state","type":"uint256"},{"internalType":"bool","name":"outcome","type":"bool"},{"internalType":"address","name":"oracle","type":"address"},{"internalType":"uint256","name":"totalPool","type":"uint256"},{"internalType":"uint256","name":"yesPool","type":"uint256"},{"internalType":"uint256","name":"noPool","type":"uint256"},{"internalType":"uint256","name":"creationTime","type":"uint256"},{"internalType":"address","name":"creator","type":"address"},{"internalType":"uint256","name":"fee","type":"uint256"}],"internalType":"struct IPredictionMarket.Market","name":"","type":"tuple"}],"stateMutability":"view","type":"function"},{"inputs":[{"internalType":"uint256","name":"marketId","type":"uint256"}],"name":"getPosition","outputs":[{"components":[{"internalType":"euint64","name":"encryptedYesAmount","type":"uint256"},{"internalType":"euint64","name":"encryptedNoAmount","type":"uint256"},{"internalType":"euint32","name":"encryptedBetCount","type":"uint256"},{"internalType":"ebool","name":"hasPosition","type":"uint256"}],"internalType":"struct IPredictionMarket.Position","name":"","type":"tuple"}],"stateMutability":"view","type":"function"},{"inputs":[{"internalType":"uint256","name":"","type":"uint256"}],"name":"markets","outputs":[{"internalType":"uint256","name":"id","type":"uint256"},{"internalType":"string","name":"question","type":"string"},{"internalType":"string","name":"description","type":"string"},{"internalType":"uint256","name":"endTime","type":"uint256"},{"internalType":"uint256","name":"resolutionTime","type":"uint256"},{"internalType":"uint256","name":"state","type":"uint256"},{"internalType":"bool","name":"outcome","type":"bool"},{"internalType":"address","name":"oracle","type":"address"},{"internalType":"uint256","name":"totalPool","type":"uint256"},{"internalType":"uint256","name":"yesPool","type":"uint256"},{"internalType":"uint256","name":"noPool","type":"uint256"},{"internalType":"uint256","name":"creationTime","type":"uint256"},{"internalType":"address","name":"creator","type":"address"},{"internalType":"uint256","name":"fee","type":"uint256"}],"stateMutability":"view","type":"function"},{"inputs":[],"name":"nextMarketId","outputs":[{"internalType":"uint256","name":"","type":"uint256"}],"stateMutability":"view","type":"function"},{"inputs":[],"name":"oracleIntegration","outputs":[{"internalType":"contract OracleIntegration","name":"","type":"address"}],"stateMutability":"view","type":"function"},{"inputs":[],"name":"owner","outputs":[{"internalType":"address","name":"","type":"address"}],"stateMutability":"view","type":"function"},{"inputs":[{"internalType":"uint256","name":"marketId","type":"uint256"},{"internalType":"bytes","name":"encryptedAmount","type":"bytes"},{"internalType":"bytes","name":"encryptedOutcome","type":"bytes"},{"internalType":"bytes","name":"inputProof","type":"bytes"}],"name":"placeBet","outputs":[],"stateMutability":"payable","type":"function"},{"inputs":[{"internalType":"uint256","name":"marketId","type":"uint256"},{"internalType":"bool","name":"outcome","type":"bool"}],"name":"resolveMarket","outputs":[],"stateMutability":"nonpayable","type":"function"},{"inputs":[{"internalType":"address","name":"oracle","type":"address"},{"internalType":"bool","name":"authorized","type":"bool"}],"name":"setAuthorizedOracle","outputs":[],"stateMutability":"nonpayable","type":"function"},{"inputs":[{"internalType":"address","name":"_feeCollector","type":"address"}],"name":"setFeeCollector","outputs":[],"stateMutability":"nonpayable","type":"function"},{"stateMutability":"payable","type":"receive"}],"evm":{"bytecode":{"linkReferences":{},"object":"60e034620000ed57601f62001b0a38819003918201601f19168301916001600160401b03831184841017620000f157808492606094604052833981010312620000ed576200004d8162000105565b620000696040620000616020850162000105565b930162000105565b600160035533608052600480546001600160a01b0319166001600160a01b0393841617905591811660a0521660c0526040516119ef90816200011b823960805181818161074f01528181610808015281816109e10152610a8e015260a0518181816105200152818161099401528181610aff0152610e92015260c05181610a4a0152f35b5f80fd5b634e487b7160e01b5f52604160045260245ffd5b51906001600160a01b0382168203620000ed5756fe608080604052600436101561001c575b50361561001a575f80fd5b005b5f905f3560e01c90816336796b5c1461166357508063406ef2ef14611646578063494dc73c1461107657806357bde44614610db357806361c992a314610d765780636540742f14610d555780637e95b52314610d335780638a69614e14610ab25780638da5cb5b14610a6e5780639c6f117714610a2a578063a42dce80146109b8578063a85a9c8f14610974578063b1283e7714610876578063c415b95c1461084f578063c7a6de4d146107d3578063db2e21bc14610730578063ea27ab98146103e2578063eb02c3011461032a5763eb44fdd30361000f573461032757602036600319011261032757806040916101a0835161011881611708565b828152606060208201526060858201528260608201528260808201528260a08201528260c08201528260e08201528261010082015282610120820152826101408201528261016082015282610180820152015260043515158061031a575b61017f906118a9565b60043581528060205220600c6040519161019883611708565b805483526101a860018201611777565b60208401526101b960028201611777565b60408401526003810154606084015260048101546080840152600581015460a08401526001600160a01b03600682015460ff8116151560c086015260081c1660e0840152600781015461010084015260088101546101208401526009810154610140840152600a8101546101608401526001600160a01b03600b8201541661018084015201546101a0820152604051809160208252805160208301526101a061028c61027660208401516101c060408701526101e0860190611819565b6040840151858203601f19016060870152611819565b9160608101516080850152608081015160a085015260a081015160c085015260c0810151151560e08501526001600160a01b0360e0820151166101008501526101008101516101208501526101208101516101408501526101408101516101608501526101608101516101808501526001600160a01b03610180820151168285015201516101c08301520390f35b5060035460043510610176565b80fd5b5034610327576020806003193601126103de576040608092600435816060845161035381611739565b828152828782015282868201520152801515806103d3575b610374906118a9565b81526001835220335f52815260405f206040519061039182611739565b80549283835260018201548184019081526060600360028501549460408701958652015494019384526040519485525190840152516040830152516060820152f35b50600354811061036b565b5080fd5b5060803660031901126103275767ffffffffffffffff6004356024803583811161072c5761041490369060040161167d565b93906044358281116107285761042e90369060040161167d565b926064359081116107245761044790369060040161167d565b9286151580610719575b61045a906118a9565b868952602097898952610474600560408c200154156118f4565b878a52898952600360408b2001544210156106d657662386f26fc10000341015806106c4575b1561068157906104ab913691611873565b6104b6368584611873565b50878180518101031261067d576104de92886104d6920151953691611873565b923691611873565b5084818051810103126106795784015180151581036106795715610672576001905b34810361066857600160ff815b1603610625579085916001600160a01b037f00000000000000000000000000000000000000000000000000000000000000001691823b1561061657608484928360ff9560405196879586947f2430719b0000000000000000000000000000000000000000000000000000000086528c6004870152338c87015260448601521660648401525af1801561061a57610602575b50829052838352600760408520018054913483018093116105f05750556040519183835242908301527f4af71b021e799c62c158bd54636ca8da2fa26115a21a2dc6efe486ec104fd15f60403393a380f35b634e487b7160e01b5f5260116004525ffd5b61060b90611725565b61061657835f61059e565b8380fd5b6040513d84823e3d90fd5b606485600f856040519262461bcd60e51b845260048401528201527f416d6f756e74206d69736d6174636800000000000000000000000000000000006044820152fd5b600160ff8761050d565b8490610500565b8580fd5b5f80fd5b6064896012896040519262461bcd60e51b845260048401528201527f496e76616c69642062657420616d6f756e7400000000000000000000000000006044820152fd5b50678ac7230489e8000034111561049a565b606489600c896040519262461bcd60e51b845260048401528201527f4d61726b657420656e64656400000000000000000000000000000000000000006044820152fd5b506003548710610451565b8780fd5b8680fd5b8480fd5b5034610327578060031936011261032757808080806001600160a01b037f00000000000000000000000000000000000000000000000000000000000000001661077a81331461196e565b47905af161078661193f565b501561078f5780f35b606460405162461bcd60e51b815260206004820152601160248201527f5769746864726177616c206661696c65640000000000000000000000000000006044820152fd5b50346103275760403660031901126103275761084c6107f06116ab565b6107f86116c1565b906001600160a01b039061082f827f000000000000000000000000000000000000000000000000000000000000000016331461196e565b1683526002602052604083209060ff801983541691151516179055565b80f35b503461032757806003193601126103275760206001600160a01b0360045416604051908152f35b503461032757602036600319011261032757600435815280602052604090208054600182016108a490611777565b916108b160028201611777565b6003820154916004810154600582015460068301546007840154600885015491600986015493600a87015495600b8801546001600160a01b031697600c0154986040519c8d809d6101c09182918152602001528d0161090f91611819565b8c810360408e015261092091611819565b9960608c015260808b015260a08a015260ff8116151560c08a015260081c6001600160a01b031660e08901526101008801526101208701526101408601526101608501526101808401526101a08301520390f35b503461032757806003193601126103275760206040516001600160a01b037f0000000000000000000000000000000000000000000000000000000000000000168152f35b5034610327576020366003190112610327576109d26116ab565b6001600160a01b0390610a08827f000000000000000000000000000000000000000000000000000000000000000016331461196e565b1673ffffffffffffffffffffffffffffffffffffffff19600454161760045580f35b503461032757806003193601126103275760206040516001600160a01b037f0000000000000000000000000000000000000000000000000000000000000000168152f35b503461032757806003193601126103275760206040516001600160a01b037f0000000000000000000000000000000000000000000000000000000000000000168152f35b503461067d5760208060031936011261067d5760043580151580610d28575b610ada906118a9565b805f525f825260405f20916002600584015403610ce45760ff60066001600160a01b037f0000000000000000000000000000000000000000000000000000000000000000169401541692604051937f87c8e2d6000000000000000000000000000000000000000000000000000000008552836004860152336024860152151560448501528184606481845afa938415610c66575f94610cb5575b508315610c7157803b1561067d575f80916044604051809481937fd5dfa74a0000000000000000000000000000000000000000000000000000000083528860048401523360248401525af18015610c6657610c53575b508380808086335af1610bdb61193f565b5015610c0f577fe97cee5a4c0549d3fdc81e322b718ddf0aeb3418ec87dce4f9a7fb28d117c312906040519384523393a380f35b6064906040519062461bcd60e51b82526004820152601660248201527f5061796f7574207472616e73666572206661696c6564000000000000000000006044820152fd5b610c5e919450611725565b5f925f610bca565b6040513d5f823e3d90fd5b6064826040519062461bcd60e51b82526004820152601360248201527f4e6f207061796f757420617661696c61626c65000000000000000000000000006044820152fd5b9093508181813d8311610cdd575b610ccd8183611755565b8101031261067d5751925f610b74565b503d610cc3565b6064906040519062461bcd60e51b82526004820152601360248201527f4d61726b6574206e6f74207265736f6c766564000000000000000000000000006044820152fd5b506003548110610ad1565b3461067d575f36600319011261067d576020604051678ac7230489e800008152f35b3461067d575f36600319011261067d576020604051662386f26fc100008152f35b3461067d57602036600319011261067d576001600160a01b03610d976116ab565b165f526002602052602060ff60405f2054166040519015158152f35b3461067d57604036600319011261067d57600435610dcf6116c1565b8115158061106b575b610de1906118a9565b815f5260205f81526001600160a01b0380600660405f20015460081c1633148015611056575b1561101257835f525f825260405f2060058101610e258154156118f4565b60038201544210610fce5760029055610e4d84600683019060ff801983541691151516179055565b600442910155835f525f825260405f206040517f77ab1d48000000000000000000000000000000000000000000000000000000008152856004820152604081602481867f0000000000000000000000000000000000000000000000000000000000000000165afa908115610c66575f905f92610f95575b5060088301556009820155600c600782015491015490818102918183041490151715610f81575f80809361271082940490600454165af1610f0361193f565b5015610f3d577f6d4d544f5a6dcf38d77a232d3ef7358625c74877a1ad954fcb507872e7a05eaf91604091825191151582524290820152a2005b6064906040519062461bcd60e51b82526004820152601360248201527f466565207472616e73666572206661696c6564000000000000000000000000006044820152fd5b634e487b7160e01b5f52601160045260245ffd5b9150506040813d604011610fc6575b81610fb160409383611755565b8101031261067d578381519101519087610ec4565b3d9150610fa4565b6064846040519062461bcd60e51b82526004820152601360248201527f4d61726b6574207374696c6c20616374697665000000000000000000000000006044820152fd5b6064826040519062461bcd60e51b82526004820152601560248201527f4e6f7420617574686f72697a6564206f7261636c6500000000000000000000006044820152fd5b50335f526002825260ff60405f205416610e07565b506003548210610dd8565b3461067d57608036600319011261067d5760043567ffffffffffffffff811161067d576110a790369060040161167d565b60243567ffffffffffffffff811161067d576110c790369060040161167d565b60643592916001600160a01b038416840361067d57610e104201804211610f815760443511156116025782156115be576001600160a01b0384161561157a57600354935f198514610f815761114c6001600160a01b0392600187016003556040519461113286611708565b87865261114036888b611873565b60208701523691611873565b604084015260443560608401525f60808401525f60a08401525f60c08401521660e08201525f6101008201525f6101208201525f610140820152426101608201523361018082015261012c6101a0820152825f525f60205260405f2081518155602082015180519067ffffffffffffffff821161149d5781906111d260018501546116d0565b601f811161152a575b50602090601f83116001146114bc575f926114b1575b50508160011b915f199060031b1c19161760018201555b60408201519182519267ffffffffffffffff841161149d5761122d60028401546116d0565b601f8111611459575b50916020969186938890601f87116001146113c35791867f57d0d124b72f81ed1da0dc728fc33db342705974792928796f6577b8db5c3d5396976101a093600c955f926113b8575b50508160011b915f199060031b1c19161760028501555b606081015160038501556080810151600485015560a08101516005850155600684016112d360c08301511515829060ff801983541691151516179055565b60e08201517fffffffffffffffffffffff0000000000000000000000000000000000000000ff74ffffffffffffffffffffffffffffffffffffffff0083549260081b169116179055610100810151600785015561012081015160088501556101408101516009850155610160810151600a850155600b84016001600160a01b036101808301511673ffffffffffffffffffffffffffffffffffffffff19825416179055015191015583604051916040835281604084015260608301375f60608583010152604435868201526060813395601f80199101168101030190a3604051908152f35b015190508c8061127e565b9590600284015f52895f20965f5b601f198416811061143f5750827f57d0d124b72f81ed1da0dc728fc33db342705974792928796f6577b8db5c3d539798600c95936001936101a096601f19811610611427575b505050811b016002850155611295565b01515f1960f88460031b161c191690558c8080611417565b8282015189556001909801978a9750918b01918b016113d1565b600284015f5260205f20601f860160051c810160208710611496575b601f830160051c8201811061148b575050611236565b5f8155600101611475565b5080611475565b634e487b7160e01b5f52604160045260245ffd5b0151905087806111f1565b9250600184015f5260205f20905f935b601f198416851061150f576001945083601f198116106114f7575b505050811b016001820155611208565b01515f1960f88460031b161c191690558780806114e7565b818101518355602094850194600190930192909101906114cc565b909150600184015f5260205f20601f840160051c810160208510611573575b90849392915b601f830160051c820181106115655750506111db565b5f815585945060010161154f565b5080611549565b606460405162461bcd60e51b815260206004820152600f60248201527f4f7261636c6520726571756972656400000000000000000000000000000000006044820152fd5b606460405162461bcd60e51b815260206004820152601160248201527f5175657374696f6e2072657175697265640000000000000000000000000000006044820152fd5b606460405162461bcd60e51b815260206004820152601160248201527f456e642074696d6520746f6f20736f6f6e0000000000000000000000000000006044820152fd5b3461067d575f36600319011261067d576020600354604051908152f35b3461067d575f36600319011261067d578061012c60209252f35b9181601f8401121561067d5782359167ffffffffffffffff831161067d576020838186019501011161067d57565b600435906001600160a01b038216820361067d57565b60243590811515820361067d57565b90600182811c921680156116fe575b60208310146116ea57565b634e487b7160e01b5f52602260045260245ffd5b91607f16916116df565b6101c0810190811067ffffffffffffffff82111761149d57604052565b67ffffffffffffffff811161149d57604052565b6080810190811067ffffffffffffffff82111761149d57604052565b90601f8019910116810190811067ffffffffffffffff82111761149d57604052565b9060405191825f8254611789816116d0565b908184526020946001916001811690815f146117f757506001146117b9575b5050506117b792500383611755565b565b5f90815285812095935091905b8183106117df5750506117b793508201015f80806117a8565b855488840185015294850194879450918301916117c6565b925050506117b794925060ff191682840152151560051b8201015f80806117a8565b91908251928382525f5b848110611843575050825f602080949584010152601f8019910116010190565b602081830181015184830182015201611823565b67ffffffffffffffff811161149d57601f01601f191660200190565b92919261187f82611857565b9161188d6040519384611755565b82948184528183011161067d578281602093845f960137010152565b156118b057565b606460405162461bcd60e51b815260206004820152600e60248201527f496e76616c6964206d61726b65740000000000000000000000000000000000006044820152fd5b156118fb57565b606460405162461bcd60e51b815260206004820152601160248201527f4d61726b6574206e6f74206163746976650000000000000000000000000000006044820152fd5b3d15611969573d9061195082611857565b9161195e6040519384611755565b82523d5f602084013e565b606090565b1561197557565b606460405162461bcd60e51b815260206004820152600e60248201527f4e6f7420617574686f72697a65640000000000000000000000000000000000006044820152fdfea2646970667358221220c74062dc8d00b34ad1acee7150ce399cb84d1b563803f1ba32602f37d4f0936d64736f6c63430008180033","opcodes":"PUSH1 0xE0 CALLVALUE PUSH3 0xED JUMPI PUSH1 0x1F PUSH3 0x1B0A CODESIZE DUP2 SWAP1 SUB SWAP2 DUP3 ADD PUSH1 0x1F NOT AND DUP4 ADD SWAP2 PUSH1 0x1 PUSH1 0x1 PUSH1 0x40 SHL SUB DUP4 GT DUP5 DUP5 LT OR PUSH3 0xF1 JUMPI DUP1 DUP5 SWAP3 PUSH1 0x60 SWAP5 PUSH1 0x40 MSTORE DUP4 CODECOPY DUP2 ADD SUB SLT PUSH3 0xED JUMPI PUSH3 0x4D DUP2 PUSH3 0x105 JUMP JUMPDEST PUSH3 0x69 PUSH1 0x40 PUSH3 0x61 PUSH1 0x20 DUP6 ADD PUSH3 0x105 JUMP JUMPDEST SWAP4 ADD PUSH3 0x105 JUMP JUMPDEST PUSH1 0x1 PUSH1 0x3 SSTORE CALLER PUSH1 0x80 MSTORE PUSH1 0x4 DUP1 SLOAD PUSH1 0x1 PUSH1 0x1 PUSH1 0xA0 SHL SUB NOT AND PUSH1 0x1 PUSH1 0x1 PUSH1 0xA0 SHL SUB SWAP4 DUP5 AND OR SWAP1 SSTORE SWAP2 DUP2 AND PUSH1 0xA0 MSTORE AND PUSH1 0xC0 MSTORE PUSH1 0x40 MLOAD PUSH2 0x19EF SWAP1 DUP2 PUSH3 0x11B DUP3 CODECOPY PUSH1 0x80 MLOAD DUP2 DUP2 DUP2 PUSH2 0x74F ADD MSTORE DUP2 DUP2 PUSH2 0x808 ADD MSTORE DUP2 DUP2 PUSH2 0x9E1 ADD MSTORE PUSH2 0xA8E ADD MSTORE PUSH1 0xA0 MLOAD DUP2 DUP2 DUP2 PUSH2 0x520 ADD MSTORE DUP2 DUP2 PUSH2 0x994 ADD MSTORE DUP2 DUP2 PUSH2 0xAFF ADD MSTORE PUSH2 0xE92 ADD MSTORE PUSH1 0xC0 MLOAD DUP2 PUSH2 0xA4A ADD MSTORE RETURN JUMPDEST PUSH0 DUP1 REVERT JUMPDEST PUSH4 0x4E487B71 PUSH1 0xE0 SHL PUSH0 MSTORE PUSH1 0x41 PUSH1 0x4 MSTORE PUSH1 0x24 PUSH0 REVERT JUMPDEST MLOAD SWAP1 PUSH1 0x1 PUSH1 0x1 PUSH1 0xA0 SHL SUB DUP3 AND DUP3 SUB PUSH3 0xED JUMPI JUMP INVALID PUSH1 0x80 DUP1 PUSH1 0x40 MSTORE PUSH1 0x4 CALLDATASIZE LT ISZERO PUSH2 0x1C JUMPI JUMPDEST POP CALLDATASIZE ISZERO PUSH2 0x1A JUMPI PUSH0 DUP1 REVERT JUMPDEST STOP JUMPDEST PUSH0 SWAP1 PUSH0 CALLDATALOAD PUSH1 0xE0 SHR SWAP1 DUP2 PUSH4 0x36796B5C EQ PUSH2 0x1663 JUMPI POP DUP1 PUSH4 0x406EF2EF EQ PUSH2 0x1646 JUMPI DUP1 PUSH4 0x494DC73C EQ PUSH2 0x1076 JUMPI DUP1 PUSH4 0x57BDE446 EQ PUSH2 0xDB3 JUMPI DUP1 PUSH4 0x61C992A3 EQ PUSH2 0xD76 JUMPI DUP1 PUSH4 0x6540742F EQ PUSH2 0xD55 JUMPI DUP1 PUSH4 0x7E95B523 EQ PUSH2 0xD33 JUMPI DUP1 PUSH4 0x8A69614E EQ PUSH2 0xAB2 JUMPI DUP1 PUSH4 0x8DA5CB5B EQ PUSH2 0xA6E JUMPI DUP1 PUSH4 0x9C6F1177 EQ PUSH2 0xA2A JUMPI DUP1 PUSH4 0xA42DCE80 EQ PUSH2 0x9B8 JUMPI DUP1 PUSH4 0xA85A9C8F EQ PUSH2 0x974 JUMPI DUP1 PUSH4 0xB1283E77 EQ PUSH2 0x876 JUMPI DUP1 PUSH4 0xC415B95C EQ PUSH2 0x84F JUMPI DUP1 PUSH4 0xC7A6DE4D EQ PUSH2 0x7D3 JUMPI DUP1 PUSH4 0xDB2E21BC EQ PUSH2 0x730 JUMPI DUP1 PUSH4 0xEA27AB98 EQ PUSH2 0x3E2 JUMPI DUP1 PUSH4 0xEB02C301 EQ PUSH2 0x32A JUMPI PUSH4 0xEB44FDD3 SUB PUSH2 0xF JUMPI CALLVALUE PUSH2 0x327 JUMPI PUSH1 0x20 CALLDATASIZE PUSH1 0x3 NOT ADD SLT PUSH2 0x327 JUMPI DUP1 PUSH1 0x40 SWAP2 PUSH2 0x1A0 DUP4 MLOAD PUSH2 0x118 DUP2 PUSH2 0x1708 JUMP JUMPDEST DUP3 DUP2 MSTORE PUSH1 0x60 PUSH1 0x20 DUP3 ADD MSTORE PUSH1 0x60 DUP6 DUP3 ADD MSTORE DUP3 PUSH1 0x60 DUP3 ADD MSTORE DUP3 PUSH1 0x80 DUP3 ADD MSTORE DUP3 PUSH1 0xA0 DUP3 ADD MSTORE DUP3 PUSH1 0xC0 DUP3 ADD MSTORE DUP3 PUSH1 0xE0 DUP3 ADD MSTORE DUP3 PUSH2 0x100 DUP3 ADD MSTORE DUP3 PUSH2 0x120 DUP3 ADD MSTORE DUP3 PUSH2 0x140 DUP3 ADD MSTORE DUP3 PUSH2 0x160 DUP3 ADD MSTORE DUP3 PUSH2 0x180 DUP3 ADD MSTORE ADD MSTORE PUSH1 0x4 CALLDATALOAD ISZERO ISZERO DUP1 PUSH2 0x31A JUMPI JUMPDEST PUSH2 0x17F SWAP1 PUSH2 0x18A9 JUMP JUMPDEST PUSH1 0x4 CALLDATALOAD DUP2 MSTORE DUP1 PUSH1 0x20 MSTORE KECCAK256 PUSH1 0xC PUSH1 0x40 MLOAD SWAP2 PUSH2 0x198 DUP4 PUSH2 0x1708 JUMP JUMPDEST DUP1 SLOAD DUP4 MSTORE PUSH2 0x1A8 PUSH1 0x1 DUP3 ADD PUSH2 0x1777 JUMP JUMPDEST PUSH1 0x20 DUP5 ADD MSTORE PUSH2 0x1B9 PUSH1 0x2 DUP3 ADD PUSH2 0x1777 JUMP JUMPDEST PUSH1 0x40 DUP5 ADD MSTORE PUSH1 0x3 DUP2 ADD SLOAD PUSH1 0x60 DUP5 ADD MSTORE PUSH1 0x4 DUP2 ADD SLOAD PUSH1 0x80 DUP5 ADD MSTORE PUSH1 0x5 DUP2 ADD SLOAD PUSH1 0xA0 DUP5 ADD MSTORE PUSH1 0x1 PUSH1 0x1 PUSH1 0xA0 SHL SUB PUSH1 0x6 DUP3 ADD SLOAD PUSH1 0xFF DUP2 AND ISZERO ISZERO PUSH1 0xC0 DUP7 ADD MSTORE PUSH1 0x8 SHR AND PUSH1 0xE0 DUP5 ADD MSTORE PUSH1 0x7 DUP2 ADD SLOAD PUSH2 0x100 DUP5 ADD MSTORE PUSH1 0x8 DUP2 ADD SLOAD PUSH2 0x120 DUP5 ADD MSTORE PUSH1 0x9 DUP2 ADD SLOAD PUSH2 0x140 DUP5 ADD MSTORE PUSH1 0xA DUP2 ADD SLOAD PUSH2 0x160 DUP5 ADD MSTORE PUSH1 0x1 PUSH1 0x1 PUSH1 0xA0 SHL SUB PUSH1 0xB DUP3 ADD SLOAD AND PUSH2 0x180 DUP5 ADD MSTORE ADD SLOAD PUSH2 0x1A0 DUP3 ADD MSTORE PUSH1 0x40 MLOAD DUP1 SWAP2 PUSH1 0x20 DUP3 MSTORE DUP1 MLOAD PUSH1 0x20 DUP4 ADD MSTORE PUSH2 0x1A0 PUSH2 0x28C PUSH2 0x276 PUSH1 0x20 DUP5 ADD MLOAD PUSH2 0x1C0 PUSH1 0x40 DUP8 ADD MSTORE PUSH2 0x1E0 DUP7 ADD SWAP1 PUSH2 0x1819 JUMP JUMPDEST PUSH1 0x40 DUP5 ADD MLOAD DUP6 DUP3 SUB PUSH1 0x1F NOT ADD PUSH1 0x60 DUP8 ADD MSTORE PUSH2 0x1819 JUMP JUMPDEST SWAP2 PUSH1 0x60 DUP2 ADD MLOAD PUSH1 0x80 DUP6 ADD MSTORE PUSH1 0x80 DUP2 ADD MLOAD PUSH1 0xA0 DUP6 ADD MSTORE PUSH1 0xA0 DUP2 ADD MLOAD PUSH1 0xC0 DUP6 ADD MSTORE PUSH1 0xC0 DUP2 ADD MLOAD ISZERO ISZERO PUSH1 0xE0 DUP6 ADD MSTORE PUSH1 0x1 PUSH1 0x1 PUSH1 0xA0 SHL SUB PUSH1 0xE0 DUP3 ADD MLOAD AND PUSH2 0x100 DUP6 ADD MSTORE PUSH2 0x100 DUP2 ADD MLOAD PUSH2 0x120 DUP6 ADD MSTORE PUSH2 0x120 DUP2 ADD MLOAD PUSH2 0x140 DUP6 ADD MSTORE PUSH2 0x140 DUP2 ADD MLOAD PUSH2 0x160 DUP6 ADD MSTORE PUSH2 0x160 DUP2 ADD MLOAD PUSH2 0x180 DUP6 ADD MSTORE PUSH1 0x1 PUSH1 0x1 PUSH1 0xA0 SHL SUB PUSH2 0x180 DUP3 ADD MLOAD AND DUP3 DUP6 ADD MSTORE ADD MLOAD PUSH2 0x1C0 DUP4 ADD MSTORE SUB SWAP1 RETURN JUMPDEST POP PUSH1 0x3 SLOAD PUSH1 0x4 CALLDATALOAD LT PUSH2 0x176 JUMP JUMPDEST DUP1 REVERT JUMPDEST POP CALLVALUE PUSH2 0x327 JUMPI PUSH1 0x20 DUP1 PUSH1 0x3 NOT CALLDATASIZE ADD SLT PUSH2 0x3DE JUMPI PUSH1 0x40 PUSH1 0x80 SWAP3 PUSH1 0x4 CALLDATALOAD DUP2 PUSH1 0x60 DUP5 MLOAD PUSH2 0x353 DUP2 PUSH2 0x1739 JUMP JUMPDEST DUP3 DUP2 MSTORE DUP3 DUP8 DUP3 ADD MSTORE DUP3 DUP7 DUP3 ADD MSTORE ADD MSTORE DUP1 ISZERO ISZERO DUP1 PUSH2 0x3D3 JUMPI JUMPDEST PUSH2 0x374 SWAP1 PUSH2 0x18A9 JUMP JUMPDEST DUP2 MSTORE PUSH1 0x1 DUP4 MSTORE KECCAK256 CALLER PUSH0 MSTORE DUP2 MSTORE PUSH1 0x40 PUSH0 KECCAK256 PUSH1 0x40 MLOAD SWAP1 PUSH2 0x391 DUP3 PUSH2 0x1739 JUMP JUMPDEST DUP1 SLOAD SWAP3 DUP4 DUP4 MSTORE PUSH1 0x1 DUP3 ADD SLOAD DUP2 DUP5 ADD SWAP1 DUP2 MSTORE PUSH1 0x60 PUSH1 0x3 PUSH1 0x2 DUP6 ADD SLOAD SWAP5 PUSH1 0x40 DUP8 ADD SWAP6 DUP7 MSTORE ADD SLOAD SWAP5 ADD SWAP4 DUP5 MSTORE PUSH1 0x40 MLOAD SWAP5 DUP6 MSTORE MLOAD SWAP1 DUP5 ADD MSTORE MLOAD PUSH1 0x40 DUP4 ADD MSTORE MLOAD PUSH1 0x60 DUP3 ADD MSTORE RETURN JUMPDEST POP PUSH1 0x3 SLOAD DUP2 LT PUSH2 0x36B JUMP JUMPDEST POP DUP1 REVERT JUMPDEST POP PUSH1 0x80 CALLDATASIZE PUSH1 0x3 NOT ADD SLT PUSH2 0x327 JUMPI PUSH8 0xFFFFFFFFFFFFFFFF PUSH1 0x4 CALLDATALOAD PUSH1 0x24 DUP1 CALLDATALOAD DUP4 DUP2 GT PUSH2 0x72C JUMPI PUSH2 0x414 SWAP1 CALLDATASIZE SWAP1 PUSH1 0x4 ADD PUSH2 0x167D JUMP JUMPDEST SWAP4 SWAP1 PUSH1 0x44 CALLDATALOAD DUP3 DUP2 GT PUSH2 0x728 JUMPI PUSH2 0x42E SWAP1 CALLDATASIZE SWAP1 PUSH1 0x4 ADD PUSH2 0x167D JUMP JUMPDEST SWAP3 PUSH1 0x64 CALLDATALOAD SWAP1 DUP2 GT PUSH2 0x724 JUMPI PUSH2 0x447 SWAP1 CALLDATASIZE SWAP1 PUSH1 0x4 ADD PUSH2 0x167D JUMP JUMPDEST SWAP3 DUP7 ISZERO ISZERO DUP1 PUSH2 0x719 JUMPI JUMPDEST PUSH2 0x45A SWAP1 PUSH2 0x18A9 JUMP JUMPDEST DUP7 DUP10 MSTORE PUSH1 0x20 SWAP8 DUP10 DUP10 MSTORE PUSH2 0x474 PUSH1 0x5 PUSH1 0x40 DUP13 KECCAK256 ADD SLOAD ISZERO PUSH2 0x18F4 JUMP JUMPDEST DUP8 DUP11 MSTORE DUP10 DUP10 MSTORE PUSH1 0x3 PUSH1 0x40 DUP12 KECCAK256 ADD SLOAD TIMESTAMP LT ISZERO PUSH2 0x6D6 JUMPI PUSH7 0x2386F26FC10000 CALLVALUE LT ISZERO DUP1 PUSH2 0x6C4 JUMPI JUMPDEST ISZERO PUSH2 0x681 JUMPI SWAP1 PUSH2 0x4AB SWAP2 CALLDATASIZE SWAP2 PUSH2 0x1873 JUMP JUMPDEST PUSH2 0x4B6 CALLDATASIZE DUP6 DUP5 PUSH2 0x1873 JUMP JUMPDEST POP DUP8 DUP2 DUP1 MLOAD DUP2 ADD SUB SLT PUSH2 0x67D JUMPI PUSH2 0x4DE SWAP3 DUP9 PUSH2 0x4D6 SWAP3 ADD MLOAD SWAP6 CALLDATASIZE SWAP2 PUSH2 0x1873 JUMP JUMPDEST SWAP3 CALLDATASIZE SWAP2 PUSH2 0x1873 JUMP JUMPDEST POP DUP5 DUP2 DUP1 MLOAD DUP2 ADD SUB SLT PUSH2 0x679 JUMPI DUP5 ADD MLOAD DUP1 ISZERO ISZERO DUP2 SUB PUSH2 0x679 JUMPI ISZERO PUSH2 0x672 JUMPI PUSH1 0x1 SWAP1 JUMPDEST CALLVALUE DUP2 SUB PUSH2 0x668 JUMPI PUSH1 0x1 PUSH1 0xFF DUP2 JUMPDEST AND SUB PUSH2 0x625 JUMPI SWAP1 DUP6 SWAP2 PUSH1 0x1 PUSH1 0x1 PUSH1 0xA0 SHL SUB PUSH32 0x0 AND SWAP2 DUP3 EXTCODESIZE ISZERO PUSH2 0x616 JUMPI PUSH1 0x84 DUP5 SWAP3 DUP4 PUSH1 0xFF SWAP6 PUSH1 0x40 MLOAD SWAP7 DUP8 SWAP6 DUP7 SWAP5 PUSH32 0x2430719B00000000000000000000000000000000000000000000000000000000 DUP7 MSTORE DUP13 PUSH1 0x4 DUP8 ADD MSTORE CALLER DUP13 DUP8 ADD MSTORE PUSH1 0x44 DUP7 ADD MSTORE AND PUSH1 0x64 DUP5 ADD MSTORE GAS CALL DUP1 ISZERO PUSH2 0x61A JUMPI PUSH2 0x602 JUMPI JUMPDEST POP DUP3 SWAP1 MSTORE DUP4 DUP4 MSTORE PUSH1 0x7 PUSH1 0x40 DUP6 KECCAK256 ADD DUP1 SLOAD SWAP2 CALLVALUE DUP4 ADD DUP1 SWAP4 GT PUSH2 0x5F0 JUMPI POP SSTORE PUSH1 0x40 MLOAD SWAP2 DUP4 DUP4 MSTORE TIMESTAMP SWAP1 DUP4 ADD MSTORE PUSH32 0x4AF71B021E799C62C158BD54636CA8DA2FA26115A21A2DC6EFE486EC104FD15F PUSH1 0x40 CALLER SWAP4 LOG3 DUP1 RETURN JUMPDEST PUSH4 0x4E487B71 PUSH1 0xE0 SHL PUSH0 MSTORE PUSH1 0x11 PUSH1 0x4 MSTORE PUSH0 REVERT JUMPDEST PUSH2 0x60B SWAP1 PUSH2 0x1725 JUMP JUMPDEST PUSH2 0x616 JUMPI DUP4 PUSH0 PUSH2 0x59E JUMP JUMPDEST DUP4 DUP1 REVERT JUMPDEST PUSH1 0x40 MLOAD RETURNDATASIZE DUP5 DUP3 RETURNDATACOPY RETURNDATASIZE SWAP1 REVERT JUMPDEST PUSH1 0x64 DUP6 PUSH1 0xF DUP6 PUSH1 0x40 MLOAD SWAP3 PUSH3 0x461BCD PUSH1 0xE5 SHL DUP5 MSTORE PUSH1 0x4 DUP5 ADD MSTORE DUP3 ADD MSTORE PUSH32 0x416D6F756E74206D69736D617463680000000000000000000000000000000000 PUSH1 0x44 DUP3 ADD MSTORE REVERT JUMPDEST PUSH1 0x1 PUSH1 0xFF DUP8 PUSH2 0x50D JUMP JUMPDEST DUP5 SWAP1 PUSH2 0x500 JUMP JUMPDEST DUP6 DUP1 REVERT JUMPDEST PUSH0 DUP1 REVERT JUMPDEST PUSH1 0x64 DUP10 PUSH1 0x12 DUP10 PUSH1 0x40 MLOAD SWAP3 PUSH3 0x461BCD PUSH1 0xE5 SHL DUP5 MSTORE PUSH1 0x4 DUP5 ADD MSTORE DUP3 ADD MSTORE PUSH32 0x496E76616C69642062657420616D6F756E740000000000000000000000000000 PUSH1 0x44 DUP3 ADD MSTORE REVERT JUMPDEST POP PUSH8 0x8AC7230489E80000 CALLVALUE GT ISZERO PUSH2 0x49A JUMP JUMPDEST PUSH1 0x64 DUP10 PUSH1 0xC DUP10 PUSH1 0x40 MLOAD SWAP3 PUSH3 0x461BCD PUSH1 0xE5 SHL DUP5 MSTORE PUSH1 0x4 DUP5 ADD MSTORE DUP3 ADD MSTORE PUSH32 0x4D61726B657420656E6465640000000000000000000000000000000000000000 PUSH1 0x44 DUP3 ADD MSTORE REVERT JUMPDEST POP PUSH1 0x3 SLOAD DUP8 LT PUSH2 0x451 JUMP JUMPDEST DUP8 DUP1 REVERT JUMPDEST DUP7 DUP1 REVERT JUMPDEST DUP5 DUP1 REVERT JUMPDEST POP CALLVALUE PUSH2 0x327 JUMPI DUP1 PUSH1 0x3 NOT CALLDATASIZE ADD SLT PUSH2 0x327 JUMPI DUP1 DUP1 DUP1 DUP1 PUSH1 0x1 PUSH1 0x1 PUSH1 0xA0 SHL SUB PUSH32 0x0 AND PUSH2 0x77A DUP2 CALLER EQ PUSH2 0x196E JUMP JUMPDEST SELFBALANCE SWAP1 GAS CALL PUSH2 0x786 PUSH2 0x193F JUMP JUMPDEST POP ISZERO PUSH2 0x78F JUMPI DUP1 RETURN JUMPDEST PUSH1 0x64 PUSH1 0x40 MLOAD PUSH3 0x461BCD PUSH1 0xE5 SHL DUP2 MSTORE PUSH1 0x20 PUSH1 0x4 DUP3 ADD MSTORE PUSH1 0x11 PUSH1 0x24 DUP3 ADD MSTORE PUSH32 0x5769746864726177616C206661696C6564000000000000000000000000000000 PUSH1 0x44 DUP3 ADD MSTORE REVERT JUMPDEST POP CALLVALUE PUSH2 0x327 JUMPI PUSH1 0x40 CALLDATASIZE PUSH1 0x3 NOT ADD SLT PUSH2 0x327 JUMPI PUSH2 0x84C PUSH2 0x7F0 PUSH2 0x16AB JUMP JUMPDEST PUSH2 0x7F8 PUSH2 0x16C1 JUMP JUMPDEST SWAP1 PUSH1 0x1 PUSH1 0x1 PUSH1 0xA0 SHL SUB SWAP1 PUSH2 0x82F DUP3 PUSH32 0x0 AND CALLER EQ PUSH2 0x196E JUMP JUMPDEST AND DUP4 MSTORE PUSH1 0x2 PUSH1 0x20 MSTORE PUSH1 0x40 DUP4 KECCAK256 SWAP1 PUSH1 0xFF DUP1 NOT DUP4 SLOAD AND SWAP2 ISZERO ISZERO AND OR SWAP1 SSTORE JUMP JUMPDEST DUP1 RETURN JUMPDEST POP CALLVALUE PUSH2 0x327 JUMPI DUP1 PUSH1 0x3 NOT CALLDATASIZE ADD SLT PUSH2 0x327 JUMPI PUSH1 0x20 PUSH1 0x1 PUSH1 0x1 PUSH1 0xA0 SHL SUB PUSH1 0x4 SLOAD AND PUSH1 0x40 MLOAD SWAP1 DUP2 MSTORE RETURN JUMPDEST POP CALLVALUE PUSH2 0x327 JUMPI PUSH1 0x20 CALLDATASIZE PUSH1 0x3 NOT ADD SLT PUSH2 0x327 JUMPI PUSH1 0x4 CALLDATALOAD DUP2 MSTORE DUP1 PUSH1 0x20 MSTORE PUSH1 0x40 SWAP1 KECCAK256 DUP1 SLOAD PUSH1 0x1 DUP3 ADD PUSH2 0x8A4 SWAP1 PUSH2 0x1777 JUMP JUMPDEST SWAP2 PUSH2 0x8B1 PUSH1 0x2 DUP3 ADD PUSH2 0x1777 JUMP JUMPDEST PUSH1 0x3 DUP3 ADD SLOAD SWAP2 PUSH1 0x4 DUP2 ADD SLOAD PUSH1 0x5 DUP3 ADD SLOAD PUSH1 0x6 DUP4 ADD SLOAD PUSH1 0x7 DUP5 ADD SLOAD PUSH1 0x8 DUP6 ADD SLOAD SWAP2 PUSH1 0x9 DUP7 ADD SLOAD SWAP4 PUSH1 0xA DUP8 ADD SLOAD SWAP6 PUSH1 0xB DUP9 ADD SLOAD PUSH1 0x1 PUSH1 0x1 PUSH1 0xA0 SHL SUB AND SWAP8 PUSH1 0xC ADD SLOAD SWAP9 PUSH1 0x40 MLOAD SWAP13 DUP14 DUP1 SWAP14 PUSH2 0x1C0 SWAP2 DUP3 SWAP2 DUP2 MSTORE PUSH1 0x20 ADD MSTORE DUP14 ADD PUSH2 0x90F SWAP2 PUSH2 0x1819 JUMP JUMPDEST DUP13 DUP2 SUB PUSH1 0x40 DUP15 ADD MSTORE PUSH2 0x920 SWAP2 PUSH2 0x1819 JUMP JUMPDEST SWAP10 PUSH1 0x60 DUP13 ADD MSTORE PUSH1 0x80 DUP12 ADD MSTORE PUSH1 0xA0 DUP11 ADD MSTORE PUSH1 0xFF DUP2 AND ISZERO ISZERO PUSH1 0xC0 DUP11 ADD MSTORE PUSH1 0x8 SHR PUSH1 0x1 PUSH1 0x1 PUSH1 0xA0 SHL SUB AND PUSH1 0xE0 DUP10 ADD MSTORE PUSH2 0x100 DUP9 ADD MSTORE PUSH2 0x120 DUP8 ADD MSTORE PUSH2 0x140 DUP7 ADD MSTORE PUSH2 0x160 DUP6 ADD MSTORE PUSH2 0x180 DUP5 ADD MSTORE PUSH2 0x1A0 DUP4 ADD MSTORE SUB SWAP1 RETURN JUMPDEST POP CALLVALUE PUSH2 0x327 JUMPI DUP1 PUSH1 0x3 NOT CALLDATASIZE ADD SLT PUSH2 0x327 JUMPI PUSH1 0x20 PUSH1 0x40 MLOAD PUSH1 0x1 PUSH1 0x1 PUSH1 0xA0 SHL SUB PUSH32 0x0 AND DUP2 MSTORE RETURN JUMPDEST POP CALLVALUE PUSH2 0x327 JUMPI PUSH1 0x20 CALLDATASIZE PUSH1 0x3 NOT ADD SLT PUSH2 0x327 JUMPI PUSH2 0x9D2 PUSH2 0x16AB JUMP JUMPDEST PUSH1 0x1 PUSH1 0x1 PUSH1 0xA0 SHL SUB SWAP1 PUSH2 0xA08 DUP3 PUSH32 0x0 AND CALLER EQ PUSH2 0x196E JUMP JUMPDEST AND PUSH20 0xFFFFFFFFFFFFFFFFFFFFFFFFFFFFFFFFFFFFFFFF NOT PUSH1 0x4 SLOAD AND OR PUSH1 0x4 SSTORE DUP1 RETURN JUMPDEST POP CALLVALUE PUSH2 0x327 JUMPI DUP1 PUSH1 0x3 NOT CALLDATASIZE ADD SLT PUSH2 0x327 JUMPI PUSH1 0x20 PUSH1 0x40 MLOAD PUSH1 0x1 PUSH1 0x1 PUSH1 0xA0 SHL SUB PUSH32 0x0 AND DUP2 MSTORE RETURN JUMPDEST POP CALLVALUE PUSH2 0x327 JUMPI DUP1 PUSH1 0x3 NOT CALLDATASIZE ADD SLT PUSH2 0x327 JUMPI PUSH1 0x20 PUSH1 0x40 MLOAD PUSH1 0x1 PUSH1 0x1 PUSH1 0xA0 SHL SUB PUSH32 0x0 AND DUP2 MSTORE RETURN JUMPDEST POP CALLVALUE PUSH2 0x67D JUMPI PUSH1 0x20 DUP1 PUSH1 0x3 NOT CALLDATASIZE ADD SLT PUSH2 0x67D JUMPI PUSH1 0x4 CALLDATALOAD DUP1 ISZERO ISZERO DUP1 PUSH2 0xD28 JUMPI JUMPDEST PUSH2 0xADA SWAP1 PUSH2 0x18A9 JUMP JUMPDEST DUP1 PUSH0 MSTORE PUSH0 DUP3 MSTORE PUSH1 0x40 PUSH0 KECCAK256 SWAP2 PUSH1 0x2 PUSH1 0x5 DUP5 ADD SLOAD SUB PUSH2 0xCE4 JUMPI PUSH1 0xFF PUSH1 0x6 PUSH1 0x1 PUSH1 0x1 PUSH1 0xA0 SHL SUB PUSH32 0x0 AND SWAP5 ADD SLOAD AND SWAP3 PUSH1 0x40 MLOAD SWAP4 PUSH32 0x87C8E2D600000000000000000000000000000000000000000000000000000000 DUP6 MSTORE DUP4 PUSH1 0x4 DUP7 ADD MSTORE CALLER PUSH1 0x24 DUP7 ADD MSTORE ISZERO ISZERO PUSH1 0x44 DUP6 ADD MSTORE DUP2 DUP5 PUSH1 0x64 DUP2 DUP5 GAS STATICCALL SWAP4 DUP5 ISZERO PUSH2 0xC66 JUMPI PUSH0 SWAP5 PUSH2 0xCB5 JUMPI JUMPDEST POP DUP4 ISZERO PUSH2 0xC71 JUMPI DUP1 EXTCODESIZE ISZERO PUSH2 0x67D JUMPI PUSH0 DUP1 SWAP2 PUSH1 0x44 PUSH1 0x40 MLOAD DUP1 SWAP5 DUP2 SWAP4 PUSH32 0xD5DFA74A00000000000000000000000000000000000000000000000000000000 DUP4 MSTORE DUP9 PUSH1 0x4 DUP5 ADD MSTORE CALLER PUSH1 0x24 DUP5 ADD MSTORE GAS CALL DUP1 ISZERO PUSH2 0xC66 JUMPI PUSH2 0xC53 JUMPI JUMPDEST POP DUP4 DUP1 DUP1 DUP1 DUP7 CALLER GAS CALL PUSH2 0xBDB PUSH2 0x193F JUMP JUMPDEST POP ISZERO PUSH2 0xC0F JUMPI PUSH32 0xE97CEE5A4C0549D3FDC81E322B718DDF0AEB3418EC87DCE4F9A7FB28D117C312 SWAP1 PUSH1 0x40 MLOAD SWAP4 DUP5 MSTORE CALLER SWAP4 LOG3 DUP1 RETURN JUMPDEST PUSH1 0x64 SWAP1 PUSH1 0x40 MLOAD SWAP1 PUSH3 0x461BCD PUSH1 0xE5 SHL DUP3 MSTORE PUSH1 0x4 DUP3 ADD MSTORE PUSH1 0x16 PUSH1 0x24 DUP3 ADD MSTORE PUSH32 0x5061796F7574207472616E73666572206661696C656400000000000000000000 PUSH1 0x44 DUP3 ADD MSTORE REVERT JUMPDEST PUSH2 0xC5E SWAP2 SWAP5 POP PUSH2 0x1725 JUMP JUMPDEST PUSH0 SWAP3 PUSH0 PUSH2 0xBCA JUMP JUMPDEST PUSH1 0x40 MLOAD RETURNDATASIZE PUSH0 DUP3 RETURNDATACOPY RETURNDATASIZE SWAP1 REVERT JUMPDEST PUSH1 0x64 DUP3 PUSH1 0x40 MLOAD SWAP1 PUSH3 0x461BCD PUSH1 0xE5 SHL DUP3 MSTORE PUSH1 0x4 DUP3 ADD MSTORE PUSH1 0x13 PUSH1 0x24 DUP3 ADD MSTORE PUSH32 0x4E6F207061796F757420617661696C61626C6500000000000000000000000000 PUSH1 0x44 DUP3 ADD MSTORE REVERT JUMPDEST SWAP1 SWAP4 POP DUP2 DUP2 DUP2 RETURNDATASIZE DUP4 GT PUSH2 0xCDD JUMPI JUMPDEST PUSH2 0xCCD DUP2 DUP4 PUSH2 0x1755 JUMP JUMPDEST DUP2 ADD SUB SLT PUSH2 0x67D JUMPI MLOAD SWAP3 PUSH0 PUSH2 0xB74 JUMP JUMPDEST POP RETURNDATASIZE PUSH2 0xCC3 JUMP JUMPDEST PUSH1 0x64 SWAP1 PUSH1 0x40 MLOAD SWAP1 PUSH3 0x461BCD PUSH1 0xE5 SHL DUP3 MSTORE PUSH1 0x4 DUP3 ADD MSTORE PUSH1 0x13 PUSH1 0x24 DUP3 ADD MSTORE PUSH32 0x4D61726B6574206E6F74207265736F6C76656400000000000000000000000000 PUSH1 0x44 DUP3 ADD MSTORE REVERT JUMPDEST POP PUSH1 0x3 SLOAD DUP2 LT PUSH2 0xAD1 JUMP JUMPDEST CALLVALUE PUSH2 0x67D JUMPI PUSH0 CALLDATASIZE PUSH1 0x3 NOT ADD SLT PUSH2 0x67D JUMPI PUSH1 0x20 PUSH1 0x40 MLOAD PUSH8 0x8AC7230489E80000 DUP2 MSTORE RETURN JUMPDEST CALLVALUE PUSH2 0x67D JUMPI PUSH0 CALLDATASIZE PUSH1 0x3 NOT ADD SLT PUSH2 0x67D JUMPI PUSH1 0x20 PUSH1 0x40 MLOAD PUSH7 0x2386F26FC10000 DUP2 MSTORE RETURN JUMPDEST CALLVALUE PUSH2 0x67D JUMPI PUSH1 0x20 CALLDATASIZE PUSH1 0x3 NOT ADD SLT PUSH2 0x67D JUMPI PUSH1 0x1 PUSH1 0x1 PUSH1 0xA0 SHL SUB PUSH2 0xD97 PUSH2 0x16AB JUMP JUMPDEST AND PUSH0 MSTORE PUSH1 0x2 PUSH1 0x20 MSTORE PUSH1 0x20 PUSH1 0xFF PUSH1 0x40 PUSH0 KECCAK256 SLOAD AND PUSH1 0x40 MLOAD SWAP1 ISZERO ISZERO DUP2 MSTORE RETURN JUMPDEST CALLVALUE PUSH2 0x67D JUMPI PUSH1 0x40 CALLDATASIZE PUSH1 0x3 NOT ADD SLT PUSH2 0x67D JUMPI PUSH1 0x4 CALLDATALOAD PUSH2 0xDCF PUSH2 0x16C1 JUMP JUMPDEST DUP2 ISZERO ISZERO DUP1 PUSH2 0x106B JUMPI JUMPDEST PUSH2 0xDE1 SWAP1 PUSH2 0x18A9 JUMP JUMPDEST DUP2 PUSH0 MSTORE PUSH1 0x20 PUSH0 DUP2 MSTORE PUSH1 0x1 PUSH1 0x1 PUSH1 0xA0 SHL SUB DUP1 PUSH1 0x6 PUSH1 0x40 PUSH0 KECCAK256 ADD SLOAD PUSH1 0x8 SHR AND CALLER EQ DUP1 ISZERO PUSH2 0x1056 JUMPI JUMPDEST ISZERO PUSH2 0x1012 JUMPI DUP4 PUSH0 MSTORE PUSH0 DUP3 MSTORE PUSH1 0x40 PUSH0 KECCAK256 PUSH1 0x5 DUP2 ADD PUSH2 0xE25 DUP2 SLOAD ISZERO PUSH2 0x18F4 JUMP JUMPDEST PUSH1 0x3 DUP3 ADD SLOAD TIMESTAMP LT PUSH2 0xFCE JUMPI PUSH1 0x2 SWAP1 SSTORE PUSH2 0xE4D DUP5 PUSH1 0x6 DUP4 ADD SWAP1 PUSH1 0xFF DUP1 NOT DUP4 SLOAD AND SWAP2 ISZERO ISZERO AND OR SWAP1 SSTORE JUMP JUMPDEST PUSH1 0x4 TIMESTAMP SWAP2 ADD SSTORE DUP4 PUSH0 MSTORE PUSH0 DUP3 MSTORE PUSH1 0x40 PUSH0 KECCAK256 PUSH1 0x40 MLOAD PUSH32 0x77AB1D4800000000000000000000000000000000000000000000000000000000 DUP2 MSTORE DUP6 PUSH1 0x4 DUP3 ADD MSTORE PUSH1 0x40 DUP2 PUSH1 0x24 DUP2 DUP7 PUSH32 0x0 AND GAS STATICCALL SWAP1 DUP2 ISZERO PUSH2 0xC66 JUMPI PUSH0 SWAP1 PUSH0 SWAP3 PUSH2 0xF95 JUMPI JUMPDEST POP PUSH1 0x8 DUP4 ADD SSTORE PUSH1 0x9 DUP3 ADD SSTORE PUSH1 0xC PUSH1 0x7 DUP3 ADD SLOAD SWAP2 ADD SLOAD SWAP1 DUP2 DUP2 MUL SWAP2 DUP2 DUP4 DIV EQ SWAP1 ISZERO OR ISZERO PUSH2 0xF81 JUMPI PUSH0 DUP1 DUP1 SWAP4 PUSH2 0x2710 DUP3 SWAP5 DIV SWAP1 PUSH1 0x4 SLOAD AND GAS CALL PUSH2 0xF03 PUSH2 0x193F JUMP JUMPDEST POP ISZERO PUSH2 0xF3D JUMPI PUSH32 0x6D4D544F5A6DCF38D77A232D3EF7358625C74877A1AD954FCB507872E7A05EAF SWAP2 PUSH1 0x40 SWAP2 DUP3 MLOAD SWAP2 ISZERO ISZERO DUP3 MSTORE TIMESTAMP SWAP1 DUP3 ADD MSTORE LOG2 STOP JUMPDEST PUSH1 0x64 SWAP1 PUSH1 0x40 MLOAD SWAP1 PUSH3 0x461BCD PUSH1 0xE5 SHL DUP3 MSTORE PUSH1 0x4 DUP3 ADD MSTORE PUSH1 0x13 PUSH1 0x24 DUP3 ADD MSTORE PUSH32 0x466565207472616E73666572206661696C656400000000000000000000000000 PUSH1 0x44 DUP3 ADD MSTORE REVERT JUMPDEST PUSH4 0x4E487B71 PUSH1 0xE0 SHL PUSH0 MSTORE PUSH1 0x11 PUSH1 0x4 MSTORE PUSH1 0x24 PUSH0 REVERT JUMPDEST SWAP2 POP POP PUSH1 0x40 DUP2 RETURNDATASIZE PUSH1 0x40 GT PUSH2 0xFC6 JUMPI JUMPDEST DUP2 PUSH2 0xFB1 PUSH1 0x40 SWAP4 DUP4 PUSH2 0x1755 JUMP JUMPDEST DUP2 ADD SUB SLT PUSH2 0x67D JUMPI DUP4 DUP2 MLOAD SWAP2 ADD MLOAD SWAP1 DUP8 PUSH2 0xEC4 JUMP JUMPDEST RETURNDATASIZE SWAP2 POP PUSH2 0xFA4 JUMP JUMPDEST PUSH1 0x64 DUP5 PUSH1 0x40 MLOAD SWAP1 PUSH3 0x461BCD PUSH1 0xE5 SHL DUP3 MSTORE PUSH1 0x4 DUP3 ADD MSTORE PUSH1 0x13 PUSH1 0x24 DUP3 ADD MSTORE PUSH32 0x4D61726B6574207374696C6C2061637469766500000000000000000000000000 PUSH1 0x44 DUP3 ADD MSTORE REVERT JUMPDEST PUSH1 0x64 DUP3 PUSH1 0x40 MLOAD SWAP1 PUSH3 0x461BCD PUSH1 0xE5 SHL DUP3 MSTORE PUSH1 0x4 DUP3 ADD MSTORE PUSH1 0x15 PUSH1 0x24 DUP3 ADD MSTORE PUSH32 0x4E6F7420617574686F72697A6564206F7261636C650000000000000000000000 PUSH1 0x44 DUP3 ADD MSTORE REVERT JUMPDEST POP CALLER PUSH0 MSTORE PUSH1 0x2 DUP3 MSTORE PUSH1 0xFF PUSH1 0x40 PUSH0 KECCAK256 SLOAD AND PUSH2 0xE07 JUMP JUMPDEST POP PUSH1 0x3 SLOAD DUP3 LT PUSH2 0xDD8 JUMP JUMPDEST CALLVALUE PUSH2 0x67D JUMPI PUSH1 0x80 CALLDATASIZE PUSH1 0x3 NOT ADD SLT PUSH2 0x67D JUMPI PUSH1 0x4 CALLDATALOAD PUSH8 0xFFFFFFFFFFFFFFFF DUP2 GT PUSH2 0x67D JUMPI PUSH2 0x10A7 SWAP1 CALLDATASIZE SWAP1 PUSH1 0x4 ADD PUSH2 0x167D JUMP JUMPDEST PUSH1 0x24 CALLDATALOAD PUSH8 0xFFFFFFFFFFFFFFFF DUP2 GT PUSH2 0x67D JUMPI PUSH2 0x10C7 SWAP1 CALLDATASIZE SWAP1 PUSH1 0x4 ADD PUSH2 0x167D JUMP JUMPDEST PUSH1 0x64 CALLDATALOAD SWAP3 SWAP2 PUSH1 0x1 PUSH1 0x1 PUSH1 0xA0 SHL SUB DUP5 AND DUP5 SUB PUSH2 0x67D JUMPI PUSH2 0xE10 TIMESTAMP ADD DUP1 TIMESTAMP GT PUSH2 0xF81 JUMPI PUSH1 0x44 CALLDATALOAD GT ISZERO PUSH2 0x1602 JUMPI DUP3 ISZERO PUSH2 0x15BE JUMPI PUSH1 0x1 PUSH1 0x1 PUSH1 0xA0 SHL SUB DUP5 AND ISZERO PUSH2 0x157A JUMPI PUSH1 0x3 SLOAD SWAP4 PUSH0 NOT DUP6 EQ PUSH2 0xF81 JUMPI PUSH2 0x114C PUSH1 0x1 PUSH1 0x1 PUSH1 0xA0 SHL SUB SWAP3 PUSH1 0x1 DUP8 ADD PUSH1 0x3 SSTORE PUSH1 0x40 MLOAD SWAP5 PUSH2 0x1132 DUP7 PUSH2 0x1708 JUMP JUMPDEST DUP8 DUP7 MSTORE PUSH2 0x1140 CALLDATASIZE DUP9 DUP12 PUSH2 0x1873 JUMP JUMPDEST PUSH1 0x20 DUP8 ADD MSTORE CALLDATASIZE SWAP2 PUSH2 0x1873 JUMP JUMPDEST PUSH1 0x40 DUP5 ADD MSTORE PUSH1 0x44 CALLDATALOAD PUSH1 0x60 DUP5 ADD MSTORE PUSH0 PUSH1 0x80 DUP5 ADD MSTORE PUSH0 PUSH1 0xA0 DUP5 ADD MSTORE PUSH0 PUSH1 0xC0 DUP5 ADD MSTORE AND PUSH1 0xE0 DUP3 ADD MSTORE PUSH0 PUSH2 0x100 DUP3 ADD MSTORE PUSH0 PUSH2 0x120 DUP3 ADD MSTORE PUSH0 PUSH2 0x140 DUP3 ADD MSTORE TIMESTAMP PUSH2 0x160 DUP3 ADD MSTORE CALLER PUSH2 0x180 DUP3 ADD MSTORE PUSH2 0x12C PUSH2 0x1A0 DUP3 ADD MSTORE DUP3 PUSH0 MSTORE PUSH0 PUSH1 0x20 MSTORE PUSH1 0x40 PUSH0 KECCAK256 DUP2 MLOAD DUP2 SSTORE PUSH1 0x20 DUP3 ADD MLOAD DUP1 MLOAD SWAP1 PUSH8 0xFFFFFFFFFFFFFFFF DUP3 GT PUSH2 0x149D JUMPI DUP2 SWAP1 PUSH2 0x11D2 PUSH1 0x1 DUP6 ADD SLOAD PUSH2 0x16D0 JUMP JUMPDEST PUSH1 0x1F DUP2 GT PUSH2 0x152A JUMPI JUMPDEST POP PUSH1 0x20 SWAP1 PUSH1 0x1F DUP4 GT PUSH1 0x1 EQ PUSH2 0x14BC JUMPI PUSH0 SWAP3 PUSH2 0x14B1 JUMPI JUMPDEST POP POP DUP2 PUSH1 0x1 SHL SWAP2 PUSH0 NOT SWAP1 PUSH1 0x3 SHL SHR NOT AND OR PUSH1 0x1 DUP3 ADD SSTORE JUMPDEST PUSH1 0x40 DUP3 ADD MLOAD SWAP2 DUP3 MLOAD SWAP3 PUSH8 0xFFFFFFFFFFFFFFFF DUP5 GT PUSH2 0x149D JUMPI PUSH2 0x122D PUSH1 0x2 DUP5 ADD SLOAD PUSH2 0x16D0 JUMP JUMPDEST PUSH1 0x1F DUP2 GT PUSH2 0x1459 JUMPI JUMPDEST POP SWAP2 PUSH1 0x20 SWAP7 SWAP2 DUP7 SWAP4 DUP9 SWAP1 PUSH1 0x1F DUP8 GT PUSH1 0x1 EQ PUSH2 0x13C3 JUMPI SWAP2 DUP7 PUSH32 0x57D0D124B72F81ED1DA0DC728FC33DB342705974792928796F6577B8DB5C3D53 SWAP7 SWAP8 PUSH2 0x1A0 SWAP4 PUSH1 0xC SWAP6 PUSH0 SWAP3 PUSH2 0x13B8 JUMPI JUMPDEST POP POP DUP2 PUSH1 0x1 SHL SWAP2 PUSH0 NOT SWAP1 PUSH1 0x3 SHL SHR NOT AND OR PUSH1 0x2 DUP6 ADD SSTORE JUMPDEST PUSH1 0x60 DUP2 ADD MLOAD PUSH1 0x3 DUP6 ADD SSTORE PUSH1 0x80 DUP2 ADD MLOAD PUSH1 0x4 DUP6 ADD SSTORE PUSH1 0xA0 DUP2 ADD MLOAD PUSH1 0x5 DUP6 ADD SSTORE PUSH1 0x6 DUP5 ADD PUSH2 0x12D3 PUSH1 0xC0 DUP4 ADD MLOAD ISZERO ISZERO DUP3 SWAP1 PUSH1 0xFF DUP1 NOT DUP4 SLOAD AND SWAP2 ISZERO ISZERO AND OR SWAP1 SSTORE JUMP JUMPDEST PUSH1 0xE0 DUP3 ADD MLOAD PUSH32 0xFFFFFFFFFFFFFFFFFFFFFF0000000000000000000000000000000000000000FF PUSH21 0xFFFFFFFFFFFFFFFFFFFFFFFFFFFFFFFFFFFFFFFF00 DUP4 SLOAD SWAP3 PUSH1 0x8 SHL AND SWAP2 AND OR SWAP1 SSTORE PUSH2 0x100 DUP2 ADD MLOAD PUSH1 0x7 DUP6 ADD SSTORE PUSH2 0x120 DUP2 ADD MLOAD PUSH1 0x8 DUP6 ADD SSTORE PUSH2 0x140 DUP2 ADD MLOAD PUSH1 0x9 DUP6 ADD SSTORE PUSH2 0x160 DUP2 ADD MLOAD PUSH1 0xA DUP6 ADD SSTORE PUSH1 0xB DUP5 ADD PUSH1 0x1 PUSH1 0x1 PUSH1 0xA0 SHL SUB PUSH2 0x180 DUP4 ADD MLOAD AND PUSH20 0xFFFFFFFFFFFFFFFFFFFFFFFFFFFFFFFFFFFFFFFF NOT DUP3 SLOAD AND OR SWAP1 SSTORE ADD MLOAD SWAP2 ADD SSTORE DUP4 PUSH1 0x40 MLOAD SWAP2 PUSH1 0x40 DUP4 MSTORE DUP2 PUSH1 0x40 DUP5 ADD MSTORE PUSH1 0x60 DUP4 ADD CALLDATACOPY PUSH0 PUSH1 0x60 DUP6 DUP4 ADD ADD MSTORE PUSH1 0x44 CALLDATALOAD DUP7 DUP3 ADD MSTORE PUSH1 0x60 DUP2 CALLER SWAP6 PUSH1 0x1F DUP1 NOT SWAP2 ADD AND DUP2 ADD SUB ADD SWAP1 LOG3 PUSH1 0x40 MLOAD SWAP1 DUP2 MSTORE RETURN JUMPDEST ADD MLOAD SWAP1 POP DUP13 DUP1 PUSH2 0x127E JUMP JUMPDEST SWAP6 SWAP1 PUSH1 0x2 DUP5 ADD PUSH0 MSTORE DUP10 PUSH0 KECCAK256 SWAP7 PUSH0 JUMPDEST PUSH1 0x1F NOT DUP5 AND DUP2 LT PUSH2 0x143F JUMPI POP DUP3 PUSH32 0x57D0D124B72F81ED1DA0DC728FC33DB342705974792928796F6577B8DB5C3D53 SWAP8 SWAP9 PUSH1 0xC SWAP6 SWAP4 PUSH1 0x1 SWAP4 PUSH2 0x1A0 SWAP7 PUSH1 0x1F NOT DUP2 AND LT PUSH2 0x1427 JUMPI JUMPDEST POP POP POP DUP2 SHL ADD PUSH1 0x2 DUP6 ADD SSTORE PUSH2 0x1295 JUMP JUMPDEST ADD MLOAD PUSH0 NOT PUSH1 0xF8 DUP5 PUSH1 0x3 SHL AND SHR NOT AND SWAP1 SSTORE DUP13 DUP1 DUP1 PUSH2 0x1417 JUMP JUMPDEST DUP3 DUP3 ADD MLOAD DUP10 SSTORE PUSH1 0x1 SWAP1 SWAP9 ADD SWAP8 DUP11 SWAP8 POP SWAP2 DUP12 ADD SWAP2 DUP12 ADD PUSH2 0x13D1 JUMP JUMPDEST PUSH1 0x2 DUP5 ADD PUSH0 MSTORE PUSH1 0x20 PUSH0 KECCAK256 PUSH1 0x1F DUP7 ADD PUSH1 0x5 SHR DUP2 ADD PUSH1 0x20 DUP8 LT PUSH2 0x1496 JUMPI JUMPDEST PUSH1 0x1F DUP4 ADD PUSH1 0x5 SHR DUP3 ADD DUP2 LT PUSH2 0x148B JUMPI POP POP PUSH2 0x1236 JUMP JUMPDEST PUSH0 DUP2 SSTORE PUSH1 0x1 ADD PUSH2 0x1475 JUMP JUMPDEST POP DUP1 PUSH2 0x1475 JUMP JUMPDEST PUSH4 0x4E487B71 PUSH1 0xE0 SHL PUSH0 MSTORE PUSH1 0x41 PUSH1 0x4 MSTORE PUSH1 0x24 PUSH0 REVERT JUMPDEST ADD MLOAD SWAP1 POP DUP8 DUP1 PUSH2 0x11F1 JUMP JUMPDEST SWAP3 POP PUSH1 0x1 DUP5 ADD PUSH0 MSTORE PUSH1 0x20 PUSH0 KECCAK256 SWAP1 PUSH0 SWAP4 JUMPDEST PUSH1 0x1F NOT DUP5 AND DUP6 LT PUSH2 0x150F JUMPI PUSH1 0x1 SWAP5 POP DUP4 PUSH1 0x1F NOT DUP2 AND LT PUSH2 0x14F7 JUMPI JUMPDEST POP POP POP DUP2 SHL ADD PUSH1 0x1 DUP3 ADD SSTORE PUSH2 0x1208 JUMP JUMPDEST ADD MLOAD PUSH0 NOT PUSH1 0xF8 DUP5 PUSH1 0x3 SHL AND SHR NOT AND SWAP1 SSTORE DUP8 DUP1 DUP1 PUSH2 0x14E7 JUMP JUMPDEST DUP2 DUP2 ADD MLOAD DUP4 SSTORE PUSH1 0x20 SWAP5 DUP6 ADD SWAP5 PUSH1 0x1 SWAP1 SWAP4 ADD SWAP3 SWAP1 SWAP2 ADD SWAP1 PUSH2 0x14CC JUMP JUMPDEST SWAP1 SWAP2 POP PUSH1 0x1 DUP5 ADD PUSH0 MSTORE PUSH1 0x20 PUSH0 KECCAK256 PUSH1 0x1F DUP5 ADD PUSH1 0x5 SHR DUP2 ADD PUSH1 0x20 DUP6 LT PUSH2 0x1573 JUMPI JUMPDEST SWAP1 DUP5 SWAP4 SWAP3 SWAP2 JUMPDEST PUSH1 0x1F DUP4 ADD PUSH1 0x5 SHR DUP3 ADD DUP2 LT PUSH2 0x1565 JUMPI POP POP PUSH2 0x11DB JUMP JUMPDEST PUSH0 DUP2 SSTORE DUP6 SWAP5 POP PUSH1 0x1 ADD PUSH2 0x154F JUMP JUMPDEST POP DUP1 PUSH2 0x1549 JUMP JUMPDEST PUSH1 0x64 PUSH1 0x40 MLOAD PUSH3 0x461BCD PUSH1 0xE5 SHL DUP2 MSTORE PUSH1 0x20 PUSH1 0x4 DUP3 ADD MSTORE PUSH1 0xF PUSH1 0x24 DUP3 ADD MSTORE PUSH32 0x4F7261636C652072657175697265640000000000000000000000000000000000 PUSH1 0x44 DUP3 ADD MSTORE REVERT JUMPDEST PUSH1 0x64 PUSH1 0x40 MLOAD PUSH3 0x461BCD PUSH1 0xE5 SHL DUP2 MSTORE PUSH1 0x20 PUSH1 0x4 DUP3 ADD MSTORE PUSH1 0x11 PUSH1 0x24 DUP3 ADD MSTORE PUSH32 0x5175657374696F6E207265717569726564000000000000000000000000000000 PUSH1 0x44 DUP3 ADD MSTORE REVERT JUMPDEST PUSH1 0x64 PUSH1 0x40 MLOAD PUSH3 0x461BCD PUSH1 0xE5 SHL DUP2 MSTORE PUSH1 0x20 PUSH1 0x4 DUP3 ADD MSTORE PUSH1 0x11 PUSH1 0x24 DUP3 ADD MSTORE PUSH32 0x456E642074696D6520746F6F20736F6F6E000000000000000000000000000000 PUSH1 0x44 DUP3 ADD MSTORE REVERT JUMPDEST CALLVALUE PUSH2 0x67D JUMPI PUSH0 CALLDATASIZE PUSH1 0x3 NOT ADD SLT PUSH2 0x67D JUMPI PUSH1 0x20 PUSH1 0x3 SLOAD PUSH1 0x40 MLOAD SWAP1 DUP2 MSTORE RETURN JUMPDEST CALLVALUE PUSH2 0x67D JUMPI PUSH0 CALLDATASIZE PUSH1 0x3 NOT ADD SLT PUSH2 0x67D JUMPI DUP1 PUSH2 0x12C PUSH1 0x20 SWAP3 MSTORE RETURN JUMPDEST SWAP2 DUP2 PUSH1 0x1F DUP5 ADD SLT ISZERO PUSH2 0x67D JUMPI DUP3 CALLDATALOAD SWAP2 PUSH8 0xFFFFFFFFFFFFFFFF DUP4 GT PUSH2 0x67D JUMPI PUSH1 0x20 DUP4 DUP2 DUP7 ADD SWAP6 ADD ADD GT PUSH2 0x67D JUMPI JUMP JUMPDEST PUSH1 0x4 CALLDATALOAD SWAP1 PUSH1 0x1 PUSH1 0x1 PUSH1 0xA0 SHL SUB DUP3 AND DUP3 SUB PUSH2 0x67D JUMPI JUMP JUMPDEST PUSH1 0x24 CALLDATALOAD SWAP1 DUP2 ISZERO ISZERO DUP3 SUB PUSH2 0x67D JUMPI JUMP JUMPDEST SWAP1 PUSH1 0x1 DUP3 DUP2 SHR SWAP3 AND DUP1 ISZERO PUSH2 0x16FE JUMPI JUMPDEST PUSH1 0x20 DUP4 LT EQ PUSH2 0x16EA JUMPI JUMP JUMPDEST PUSH4 0x4E487B71 PUSH1 0xE0 SHL PUSH0 MSTORE PUSH1 0x22 PUSH1 0x4 MSTORE PUSH1 0x24 PUSH0 REVERT JUMPDEST SWAP2 PUSH1 0x7F AND SWAP2 PUSH2 0x16DF JUMP JUMPDEST PUSH2 0x1C0 DUP2 ADD SWAP1 DUP2 LT PUSH8 0xFFFFFFFFFFFFFFFF DUP3 GT OR PUSH2 0x149D JUMPI PUSH1 0x40 MSTORE JUMP JUMPDEST PUSH8 0xFFFFFFFFFFFFFFFF DUP2 GT PUSH2 0x149D JUMPI PUSH1 0x40 MSTORE JUMP JUMPDEST PUSH1 0x80 DUP2 ADD SWAP1 DUP2 LT PUSH8 0xFFFFFFFFFFFFFFFF DUP3 GT OR PUSH2 0x149D JUMPI PUSH1 0x40 MSTORE JUMP JUMPDEST SWAP1 PUSH1 0x1F DUP1 NOT SWAP2 ADD AND DUP2 ADD SWAP1 DUP2 LT PUSH8 0xFFFFFFFFFFFFFFFF DUP3 GT OR PUSH2 0x149D JUMPI PUSH1 0x40 MSTORE JUMP JUMPDEST SWAP1 PUSH1 0x40 MLOAD SWAP2 DUP3 PUSH0 DUP3 SLOAD PUSH2 0x1789 DUP2 PUSH2 0x16D0 JUMP JUMPDEST SWAP1 DUP2 DUP5 MSTORE PUSH1 0x20 SWAP5 PUSH1 0x1 SWAP2 PUSH1 0x1 DUP2 AND SWAP1 DUP2 PUSH0 EQ PUSH2 0x17F7 JUMPI POP PUSH1 0x1 EQ PUSH2 0x17B9 JUMPI JUMPDEST POP POP POP PUSH2 0x17B7 SWAP3 POP SUB DUP4 PUSH2 0x1755 JUMP JUMPDEST JUMP JUMPDEST PUSH0 SWAP1 DUP2 MSTORE DUP6 DUP2 KECCAK256 SWAP6 SWAP4 POP SWAP2 SWAP1 JUMPDEST DUP2 DUP4 LT PUSH2 0x17DF JUMPI POP POP PUSH2 0x17B7 SWAP4 POP DUP3 ADD ADD PUSH0 DUP1 DUP1 PUSH2 0x17A8 JUMP JUMPDEST DUP6 SLOAD DUP9 DUP5 ADD DUP6 ADD MSTORE SWAP5 DUP6 ADD SWAP5 DUP8 SWAP5 POP SWAP2 DUP4 ADD SWAP2 PUSH2 0x17C6 JUMP JUMPDEST SWAP3 POP POP POP PUSH2 0x17B7 SWAP5 SWAP3 POP PUSH1 0xFF NOT AND DUP3 DUP5 ADD MSTORE ISZERO ISZERO PUSH1 0x5 SHL DUP3 ADD ADD PUSH0 DUP1 DUP1 PUSH2 0x17A8 JUMP JUMPDEST SWAP2 SWAP1 DUP3 MLOAD SWAP3 DUP4 DUP3 MSTORE PUSH0 JUMPDEST DUP5 DUP2 LT PUSH2 0x1843 JUMPI POP POP DUP3 PUSH0 PUSH1 0x20 DUP1 SWAP5 SWAP6 DUP5 ADD ADD MSTORE PUSH1 0x1F DUP1 NOT SWAP2 ADD AND ADD ADD SWAP1 JUMP JUMPDEST PUSH1 0x20 DUP2 DUP4 ADD DUP2 ADD MLOAD DUP5 DUP4 ADD DUP3 ADD MSTORE ADD PUSH2 0x1823 JUMP JUMPDEST PUSH8 0xFFFFFFFFFFFFFFFF DUP2 GT PUSH2 0x149D JUMPI PUSH1 0x1F ADD PUSH1 0x1F NOT AND PUSH1 0x20 ADD SWAP1 JUMP JUMPDEST SWAP3 SWAP2 SWAP3 PUSH2 0x187F DUP3 PUSH2 0x1857 JUMP JUMPDEST SWAP2 PUSH2 0x188D PUSH1 0x40 MLOAD SWAP4 DUP5 PUSH2 0x1755 JUMP JUMPDEST DUP3 SWAP5 DUP2 DUP5 MSTORE DUP2 DUP4 ADD GT PUSH2 0x67D JUMPI DUP3 DUP2 PUSH1 0x20 SWAP4 DUP5 PUSH0 SWAP7 ADD CALLDATACOPY ADD ADD MSTORE JUMP JUMPDEST ISZERO PUSH2 0x18B0 JUMPI JUMP JUMPDEST PUSH1 0x64 PUSH1 0x40 MLOAD PUSH3 0x461BCD PUSH1 0xE5 SHL DUP2 MSTORE PUSH1 0x20 PUSH1 0x4 DUP3 ADD MSTORE PUSH1 0xE PUSH1 0x24 DUP3 ADD MSTORE PUSH32 0x496E76616C6964206D61726B6574000000000000000000000000000000000000 PUSH1 0x44 DUP3 ADD MSTORE REVERT JUMPDEST ISZERO PUSH2 0x18FB JUMPI JUMP JUMPDEST PUSH1 0x64 PUSH1 0x40 MLOAD PUSH3 0x461BCD PUSH1 0xE5 SHL DUP2 MSTORE PUSH1 0x20 PUSH1 0x4 DUP3 ADD MSTORE PUSH1 0x11 PUSH1 0x24 DUP3 ADD MSTORE PUSH32 0x4D61726B6574206E6F7420616374697665000000000000000000000000000000 PUSH1 0x44 DUP3 ADD MSTORE REVERT JUMPDEST RETURNDATASIZE ISZERO PUSH2 0x1969 JUMPI RETURNDATASIZE SWAP1 PUSH2 0x1950 DUP3 PUSH2 0x1857 JUMP JUMPDEST SWAP2 PUSH2 0x195E PUSH1 0x40 MLOAD SWAP4 DUP5 PUSH2 0x1755 JUMP JUMPDEST DUP3 MSTORE RETURNDATASIZE PUSH0 PUSH1 0x20 DUP5 ADD RETURNDATACOPY JUMP JUMPDEST PUSH1 0x60 SWAP1 JUMP JUMPDEST ISZERO PUSH2 0x1975 JUMPI JUMP JUMPDEST PUSH1 0x64 PUSH1 0x40 MLOAD PUSH3 0x461BCD PUSH1 0xE5 SHL DUP2 MSTORE PUSH1 0x20 PUSH1 0x4 DUP3 ADD MSTORE PUSH1 0xE PUSH1 0x24 DUP3 ADD MSTORE PUSH32 0x4E6F7420617574686F72697A6564000000000000000000000000000000000000 PUSH1 0x44 DUP3 ADD MSTORE REVERT INVALID LOG2 PUSH5 0x6970667358 0x22 SLT KECCAK256 0xC7 BLOCKHASH PUSH3 0xDC8D00 0xB3 BLOBBASEFEE 0xD1 0xAC 0xEE PUSH18 0x50CE399CB84D1B563803F1BA32602F37D4F0 SWAP4 PUSH14 0x64736F6C63430008180033000000 "},"methodIdentifiers":{"MARKET_FEE()":"36796b5c","MAX_BET()":"7e95b523","MIN_BET()":"6540742f","authorizedOracles(address)":"61c992a3","claimPayout(uint256)":"8a69614e","createMarket(string,string,uint256,address)":"494dc73c","emergencyWithdraw()":"db2e21bc","encryptedBetting()":"a85a9c8f","feeCollector()":"c415b95c","getMarket(uint256)":"eb44fdd3","getPosition(uint256)":"eb02c301","markets(uint256)":"b1283e77","nextMarketId()":"406ef2ef","oracleIntegration()":"9c6f1177","owner()":"8da5cb5b","placeBet(uint256,bytes,bytes,bytes)":"ea27ab98","resolveMarket(uint256,bool)":"57bde446","setAuthorizedOracle(address,bool)":"c7a6de4d","setFeeCollector(address)":"a42dce80"}}}}}