{"contracts/EncryptedBetting.sol":{"EncryptedBetting":{"abi":[{"inputs":[],"stateMutability":"nonpayable","type":"constructor"},{"anonymous":false,"inputs":[{"indexed":true,"internalType":"uint256","name":"marketId","type":"uint256"},{"indexed":true,"internalType":"address","name":"user","type":"address"},{"indexed":false,"internalType":"uint256","name":"timestamp","type":"uint256"}],"name":"EncryptedBetPlaced","type":"event"},{"anonymous":false,"inputs":[{"indexed":true,"internalType":"uint256","name":"marketId","type":"uint256"},{"indexed":true,"internalType":"address","name":"user","type":"address"},{"indexed":false,"internalType":"uint256","name":"timestamp","type":"uint256"}],"name":"PositionUpdated","type":"event"},{"inputs":[{"internalType":"address","name":"","type":"address"}],"name":"authorizedCallers","outputs":[{"internalType":"bool","name":"","type":"bool"}],"stateMutability":"view","type":"function"},{"inputs":[{"internalType":"uint256","name":"marketId","type":"uint256"},{"internalType":"address","name":"user","type":"address"},{"internalType":"bool","name":"finalOutcome","type":"bool"}],"name":"calculatePayout","outputs":[{"internalType":"uint256","name":"payout","type":"uint256"}],"stateMutability":"view","type":"function"},{"inputs":[{"internalType":"uint256","name":"marketId","type":"uint256"},{"internalType":"address","name":"user","type":"address"}],"name":"emergencyDecryptPosition","outputs":[{"internalType":"uint256","name":"yesAmount","type":"uint256"},{"internalType":"uint256","name":"noAmount","type":"uint256"},{"internalType":"uint256","name":"betCount","type":"uint256"}],"stateMutability":"nonpayable","type":"function"},{"inputs":[{"internalType":"uint256","name":"marketId","type":"uint256"},{"internalType":"address","name":"user","type":"address"}],"name":"getEncryptedPosition","outputs":[{"components":[{"internalType":"euint64","name":"yesAmount","type":"uint256"},{"internalType":"euint64","name":"noAmount","type":"uint256"},{"internalType":"euint32","name":"betCount","type":"uint256"},{"internalType":"ebool","name":"hasPosition","type":"uint256"},{"internalType":"ebool","name":"hasClaimed","type":"uint256"}],"internalType":"struct EncryptedBetting.EncryptedPosition","name":"position","type":"tuple"}],"stateMutability":"view","type":"function"},{"inputs":[{"internalType":"uint256","name":"marketId","type":"uint256"}],"name":"getMarketStats","outputs":[{"internalType":"euint64","name":"totalYesPool","type":"uint256"},{"internalType":"euint64","name":"totalNoPool","type":"uint256"},{"internalType":"euint32","name":"totalBetters","type":"uint256"}],"stateMutability":"view","type":"function"},{"inputs":[{"internalType":"uint256","name":"marketId","type":"uint256"}],"name":"getOddsData","outputs":[{"internalType":"uint256","name":"yesRatio","type":"uint256"},{"internalType":"uint256","name":"noRatio","type":"uint256"}],"stateMutability":"view","type":"function"},{"inputs":[{"internalType":"uint256","name":"marketId","type":"uint256"}],"name":"getPoolSizes","outputs":[{"internalType":"uint256","name":"yesPool","type":"uint256"},{"internalType":"uint256","name":"noPool","type":"uint256"}],"stateMutability":"view","type":"function"},{"inputs":[{"internalType":"uint256","name":"marketId","type":"uint256"},{"internalType":"address","name":"user","type":"address"}],"name":"getUserTotalBet","outputs":[{"internalType":"euint64","name":"totalAmount","type":"uint256"}],"stateMutability":"view","type":"function"},{"inputs":[{"internalType":"uint256","name":"marketId","type":"uint256"},{"internalType":"address","name":"user","type":"address"}],"name":"hasPosition","outputs":[{"internalType":"ebool","name":"","type":"uint256"}],"stateMutability":"view","type":"function"},{"inputs":[{"internalType":"uint256","name":"marketId","type":"uint256"},{"internalType":"address","name":"user","type":"address"}],"name":"markClaimed","outputs":[],"stateMutability":"nonpayable","type":"function"},{"inputs":[],"name":"owner","outputs":[{"internalType":"address","name":"","type":"address"}],"stateMutability":"view","type":"function"},{"inputs":[],"name":"predictionMarket","outputs":[{"internalType":"address","name":"","type":"address"}],"stateMutability":"view","type":"function"},{"inputs":[{"internalType":"address","name":"caller","type":"address"},{"internalType":"bool","name":"authorized","type":"bool"}],"name":"setAuthorizedCaller","outputs":[],"stateMutability":"nonpayable","type":"function"},{"inputs":[{"internalType":"address","name":"_predictionMarket","type":"address"}],"name":"setPredictionMarket","outputs":[],"stateMutability":"nonpayable","type":"function"},{"inputs":[{"internalType":"uint256","name":"marketId","type":"uint256"},{"internalType":"address","name":"user","type":"address"},{"internalType":"euint64","name":"amount","type":"uint256"},{"internalType":"ebool","name":"outcome","type":"uint256"}],"name":"updatePosition","outputs":[],"stateMutability":"nonpayable","type":"function"}],"evm":{"bytecode":{"linkReferences":{},"object":"60a080604052346100385733608052610a24908161003d823960805181818161017d015281816103230152818161057601526107e80152f35b5f80fdfe604060808152600480361015610013575f80fd5b5f3560e01c90816303b88ba2146107c0578163229be1521461076f5781632430719b146105e15781632d6f5010146105b8578163454bbd291461053f578163536fff6c1461050357816353dd2c7d146103ff57816358057fe5146103c357816366adc53e1461037e578163778a9d8e146102f757816377ab1d481461029257816387c8e2d6146101a15781638da5cb5b1461015e578163d5dfa74a146100ec575063def114b6146100c2575f80fd5b346100e8575f3660031901126100e8576020906001600160a01b03600254169051908152f35b5f80fd5b9050346100e857816003193601126100e857600191610109610853565b6001600160a01b03806002541633148015610145575b610128906108b4565b83355f525f6020526003835f200191165f526020525f2001555f80f35b50335f528460205261012860ff845f205416905061011f565b82346100e8575f3660031901126100e857602090516001600160a01b037f0000000000000000000000000000000000000000000000000000000000000000168152f35b82346100e85760603660031901126100e8576101bb610853565b916044359081151582036100e8576020936001600160a01b0380600254163314801561027c575b6101eb906108b4565b82355f525f86526003855f200191165f528452825f20915f14610271578154915b0154811561026357600160ff61022282936109de565b9216149081610258575b501561024e57600160ff815b160361024657905b51908152f35b505f90610240565b600160ff5f610238565b60019150148461022c565b600160ff6102225f936109de565b60018201549161020c565b50335f908152600187528590205460ff166101e2565b9050346100e85760203660031901126100e8576001600160a01b0360025416331480156102e0575b6102c3906108b4565b355f525f602052805f206001815491015482519182526020820152f35b50335f90815260016020528290205460ff166102ba565b82346100e857806003193601126100e857606091610313610853565b906001600160a01b039061034a827f0000000000000000000000000000000000000000000000000000000000000000163314610869565b355f525f6020526003835f200191165f52602052805f20805491600260018301549201549181519384526020840152820152f35b82346100e857806003193601126100e85760209161039a610853565b90355f525f83526001600160a01b036003835f200191165f5282526003815f2001549051908152f35b82346100e85760203660031901126100e857606091355f525f602052805f20805491600260018301549201549181519384526020840152820152f35b9050346100e857816003193601126100e857610419610853565b906001600160a01b0361042a6109aa565b925f84525f6080602095828782015282888201528260608201520152168033036104c1579260a09382355f525f84526003825f2001905f528352805f20906104706109aa565b92825494858552600184015481860190815260806002860154938588019485526003870154966060890197885201549601958652835196875251908601525190840152516060830152516080820152f35b5090606492519162461bcd60e51b8352820152601a60248201527f43616e206f6e6c792076696577206f776e20706f736974696f6e0000000000006044820152fd5b82346100e85760203660031901126100e8576020906001600160a01b0361052861083d565b165f526001825260ff815f20541690519015158152f35b82346100e857806003193601126100e85761055861083d565b90602435918215158093036100e8576001600160a01b039061059d827f0000000000000000000000000000000000000000000000000000000000000000163314610869565b165f5260016020525f209060ff801983541691161790555f80f35b9050346100e85760203660031901126100e8576105d5903561093e565b82519182526020820152f35b82346100e85760803660031901126100e8578135906105fe610853565b604435936001600160a01b03806002541633148015610758575b610621906108b4565b845f525f602052835f20921694855f5260038301602052835f20600381019161064a83546109de565b92600283018054906001968783018093116107455750869491938560209997947fee83befd4dea1d6d92c76e834aa1031f1bba673e1a7a216beaa9b35e2272ae369b99966106d0945581806064351493845f1461073e5780945b1561073857505f955b6106b88582546108ff565b8155016106c68682546108ff565b90555586546108ff565b85556106e08386019182546108ff565b90550361072b5760026106f891925b019182546108ff565b905584847f8ac3dc33a8bb612eb5a834fc22070275ffed7e27716bd3d68d01f0a930085c10848451428152a351428152a3005b506106f860025f926106ef565b956106ad565b5f946106a4565b601190634e487b7160e01b5f525260245ffd5b50335f90815260016020528490205460ff16610618565b82346100e857806003193601126100e85760209161078b610853565b90355f525f83526001600160a01b036003835f200191165f5282526107b9815f2060018154910154906108ff565b9051908152f35b346100e85760203660031901126100e8576107d961083d565b6001600160a01b039061080f827f0000000000000000000000000000000000000000000000000000000000000000163314610869565b167fffffffffffffffffffffffff000000000000000000000000000000000000000060025416176002555f80f35b600435906001600160a01b03821682036100e857565b602435906001600160a01b03821682036100e857565b1561087057565b606460405162461bcd60e51b815260206004820152600960248201527f4e6f74206f776e657200000000000000000000000000000000000000000000006044820152fd5b156108bb57565b606460405162461bcd60e51b815260206004820152600e60248201527f4e6f7420617574686f72697a65640000000000000000000000000000000000006044820152fd5b9190820180921161090c57565b634e487b7160e01b5f52601160045260245ffd5b811561092a570490565b634e487b7160e01b5f52601260045260245ffd5b5f525f60205260405f20906001825492015461095a81846108ff565b92831561099e5760648102908082046064149015171561090c578361097e91610920565b9260648202918083046064149015171561090c5761099b91610920565b90565b50509050603290603290565b6040519060a0820182811067ffffffffffffffff8211176109ca57604052565b634e487b7160e01b5f52604160045260245ffd5b6001036109e9575f90565b60019056fea2646970667358221220594e9a8376cd796ca294be8a7b693fcbc49027396109b7f66d0e68751dbcbbbb64736f6c63430008180033","opcodes":"PUSH1 0xA0 DUP1 PUSH1 0x40 MSTORE CALLVALUE PUSH2 0x38 JUMPI CALLER PUSH1 0x80 MSTORE PUSH2 0xA24 SWAP1 DUP2 PUSH2 0x3D DUP3 CODECOPY PUSH1 0x80 MLOAD DUP2 DUP2 DUP2 PUSH2 0x17D ADD MSTORE DUP2 DUP2 PUSH2 0x323 ADD MSTORE DUP2 DUP2 PUSH2 0x576 ADD MSTORE PUSH2 0x7E8 ADD MSTORE RETURN JUMPDEST PUSH0 DUP1 REVERT INVALID PUSH1 0x40 PUSH1 0x80 DUP2 MSTORE PUSH1 0x4 DUP1 CALLDATASIZE LT ISZERO PUSH2 0x13 JUMPI PUSH0 DUP1 REVERT JUMPDEST PUSH0 CALLDATALOAD PUSH1 0xE0 SHR SWAP1 DUP2 PUSH4 0x3B88BA2 EQ PUSH2 0x7C0 JUMPI DUP2 PUSH4 0x229BE152 EQ PUSH2 0x76F JUMPI DUP2 PUSH4 0x2430719B EQ PUSH2 0x5E1 JUMPI DUP2 PUSH4 0x2D6F5010 EQ PUSH2 0x5B8 JUMPI DUP2 PUSH4 0x454BBD29 EQ PUSH2 0x53F JUMPI DUP2 PUSH4 0x536FFF6C EQ PUSH2 0x503 JUMPI DUP2 PUSH4 0x53DD2C7D EQ PUSH2 0x3FF JUMPI DUP2 PUSH4 0x58057FE5 EQ PUSH2 0x3C3 JUMPI DUP2 PUSH4 0x66ADC53E EQ PUSH2 0x37E JUMPI DUP2 PUSH4 0x778A9D8E EQ PUSH2 0x2F7 JUMPI DUP2 PUSH4 0x77AB1D48 EQ PUSH2 0x292 JUMPI DUP2 PUSH4 0x87C8E2D6 EQ PUSH2 0x1A1 JUMPI DUP2 PUSH4 0x8DA5CB5B EQ PUSH2 0x15E JUMPI DUP2 PUSH4 0xD5DFA74A EQ PUSH2 0xEC JUMPI POP PUSH4 0xDEF114B6 EQ PUSH2 0xC2 JUMPI PUSH0 DUP1 REVERT JUMPDEST CALLVALUE PUSH2 0xE8 JUMPI PUSH0 CALLDATASIZE PUSH1 0x3 NOT ADD SLT PUSH2 0xE8 JUMPI PUSH1 0x20 SWAP1 PUSH1 0x1 PUSH1 0x1 PUSH1 0xA0 SHL SUB PUSH1 0x2 SLOAD AND SWAP1 MLOAD SWAP1 DUP2 MSTORE RETURN JUMPDEST PUSH0 DUP1 REVERT JUMPDEST SWAP1 POP CALLVALUE PUSH2 0xE8 JUMPI DUP2 PUSH1 0x3 NOT CALLDATASIZE ADD SLT PUSH2 0xE8 JUMPI PUSH1 0x1 SWAP2 PUSH2 0x109 PUSH2 0x853 JUMP JUMPDEST PUSH1 0x1 PUSH1 0x1 PUSH1 0xA0 SHL SUB DUP1 PUSH1 0x2 SLOAD AND CALLER EQ DUP1 ISZERO PUSH2 0x145 JUMPI JUMPDEST PUSH2 0x128 SWAP1 PUSH2 0x8B4 JUMP JUMPDEST DUP4 CALLDATALOAD PUSH0 MSTORE PUSH0 PUSH1 0x20 MSTORE PUSH1 0x3 DUP4 PUSH0 KECCAK256 ADD SWAP2 AND PUSH0 MSTORE PUSH1 0x20 MSTORE PUSH0 KECCAK256 ADD SSTORE PUSH0 DUP1 RETURN JUMPDEST POP CALLER PUSH0 MSTORE DUP5 PUSH1 0x20 MSTORE PUSH2 0x128 PUSH1 0xFF DUP5 PUSH0 KECCAK256 SLOAD AND SWAP1 POP PUSH2 0x11F JUMP JUMPDEST DUP3 CALLVALUE PUSH2 0xE8 JUMPI PUSH0 CALLDATASIZE PUSH1 0x3 NOT ADD SLT PUSH2 0xE8 JUMPI PUSH1 0x20 SWAP1 MLOAD PUSH1 0x1 PUSH1 0x1 PUSH1 0xA0 SHL SUB PUSH32 0x0 AND DUP2 MSTORE RETURN JUMPDEST DUP3 CALLVALUE PUSH2 0xE8 JUMPI PUSH1 0x60 CALLDATASIZE PUSH1 0x3 NOT ADD SLT PUSH2 0xE8 JUMPI PUSH2 0x1BB PUSH2 0x853 JUMP JUMPDEST SWAP2 PUSH1 0x44 CALLDATALOAD SWAP1 DUP2 ISZERO ISZERO DUP3 SUB PUSH2 0xE8 JUMPI PUSH1 0x20 SWAP4 PUSH1 0x1 PUSH1 0x1 PUSH1 0xA0 SHL SUB DUP1 PUSH1 0x2 SLOAD AND CALLER EQ DUP1 ISZERO PUSH2 0x27C JUMPI JUMPDEST PUSH2 0x1EB SWAP1 PUSH2 0x8B4 JUMP JUMPDEST DUP3 CALLDATALOAD PUSH0 MSTORE PUSH0 DUP7 MSTORE PUSH1 0x3 DUP6 PUSH0 KECCAK256 ADD SWAP2 AND PUSH0 MSTORE DUP5 MSTORE DUP3 PUSH0 KECCAK256 SWAP2 PUSH0 EQ PUSH2 0x271 JUMPI DUP2 SLOAD SWAP2 JUMPDEST ADD SLOAD DUP2 ISZERO PUSH2 0x263 JUMPI PUSH1 0x1 PUSH1 0xFF PUSH2 0x222 DUP3 SWAP4 PUSH2 0x9DE JUMP JUMPDEST SWAP3 AND EQ SWAP1 DUP2 PUSH2 0x258 JUMPI JUMPDEST POP ISZERO PUSH2 0x24E JUMPI PUSH1 0x1 PUSH1 0xFF DUP2 JUMPDEST AND SUB PUSH2 0x246 JUMPI SWAP1 JUMPDEST MLOAD SWAP1 DUP2 MSTORE RETURN JUMPDEST POP PUSH0 SWAP1 PUSH2 0x240 JUMP JUMPDEST PUSH1 0x1 PUSH1 0xFF PUSH0 PUSH2 0x238 JUMP JUMPDEST PUSH1 0x1 SWAP2 POP EQ DUP5 PUSH2 0x22C JUMP JUMPDEST PUSH1 0x1 PUSH1 0xFF PUSH2 0x222 PUSH0 SWAP4 PUSH2 0x9DE JUMP JUMPDEST PUSH1 0x1 DUP3 ADD SLOAD SWAP2 PUSH2 0x20C JUMP JUMPDEST POP CALLER PUSH0 SWAP1 DUP2 MSTORE PUSH1 0x1 DUP8 MSTORE DUP6 SWAP1 KECCAK256 SLOAD PUSH1 0xFF AND PUSH2 0x1E2 JUMP JUMPDEST SWAP1 POP CALLVALUE PUSH2 0xE8 JUMPI PUSH1 0x20 CALLDATASIZE PUSH1 0x3 NOT ADD SLT PUSH2 0xE8 JUMPI PUSH1 0x1 PUSH1 0x1 PUSH1 0xA0 SHL SUB PUSH1 0x2 SLOAD AND CALLER EQ DUP1 ISZERO PUSH2 0x2E0 JUMPI JUMPDEST PUSH2 0x2C3 SWAP1 PUSH2 0x8B4 JUMP JUMPDEST CALLDATALOAD PUSH0 MSTORE PUSH0 PUSH1 0x20 MSTORE DUP1 PUSH0 KECCAK256 PUSH1 0x1 DUP2 SLOAD SWAP2 ADD SLOAD DUP3 MLOAD SWAP2 DUP3 MSTORE PUSH1 0x20 DUP3 ADD MSTORE RETURN JUMPDEST POP CALLER PUSH0 SWAP1 DUP2 MSTORE PUSH1 0x1 PUSH1 0x20 MSTORE DUP3 SWAP1 KECCAK256 SLOAD PUSH1 0xFF AND PUSH2 0x2BA JUMP JUMPDEST DUP3 CALLVALUE PUSH2 0xE8 JUMPI DUP1 PUSH1 0x3 NOT CALLDATASIZE ADD SLT PUSH2 0xE8 JUMPI PUSH1 0x60 SWAP2 PUSH2 0x313 PUSH2 0x853 JUMP JUMPDEST SWAP1 PUSH1 0x1 PUSH1 0x1 PUSH1 0xA0 SHL SUB SWAP1 PUSH2 0x34A DUP3 PUSH32 0x0 AND CALLER EQ PUSH2 0x869 JUMP JUMPDEST CALLDATALOAD PUSH0 MSTORE PUSH0 PUSH1 0x20 MSTORE PUSH1 0x3 DUP4 PUSH0 KECCAK256 ADD SWAP2 AND PUSH0 MSTORE PUSH1 0x20 MSTORE DUP1 PUSH0 KECCAK256 DUP1 SLOAD SWAP2 PUSH1 0x2 PUSH1 0x1 DUP4 ADD SLOAD SWAP3 ADD SLOAD SWAP2 DUP2 MLOAD SWAP4 DUP5 MSTORE PUSH1 0x20 DUP5 ADD MSTORE DUP3 ADD MSTORE RETURN JUMPDEST DUP3 CALLVALUE PUSH2 0xE8 JUMPI DUP1 PUSH1 0x3 NOT CALLDATASIZE ADD SLT PUSH2 0xE8 JUMPI PUSH1 0x20 SWAP2 PUSH2 0x39A PUSH2 0x853 JUMP JUMPDEST SWAP1 CALLDATALOAD PUSH0 MSTORE PUSH0 DUP4 MSTORE PUSH1 0x1 PUSH1 0x1 PUSH1 0xA0 SHL SUB PUSH1 0x3 DUP4 PUSH0 KECCAK256 ADD SWAP2 AND PUSH0 MSTORE DUP3 MSTORE PUSH1 0x3 DUP2 PUSH0 KECCAK256 ADD SLOAD SWAP1 MLOAD SWAP1 DUP2 MSTORE RETURN JUMPDEST DUP3 CALLVALUE PUSH2 0xE8 JUMPI PUSH1 0x20 CALLDATASIZE PUSH1 0x3 NOT ADD SLT PUSH2 0xE8 JUMPI PUSH1 0x60 SWAP2 CALLDATALOAD PUSH0 MSTORE PUSH0 PUSH1 0x20 MSTORE DUP1 PUSH0 KECCAK256 DUP1 SLOAD SWAP2 PUSH1 0x2 PUSH1 0x1 DUP4 ADD SLOAD SWAP3 ADD SLOAD SWAP2 DUP2 MLOAD SWAP4 DUP5 MSTORE PUSH1 0x20 DUP5 ADD MSTORE DUP3 ADD MSTORE RETURN JUMPDEST SWAP1 POP CALLVALUE PUSH2 0xE8 JUMPI DUP2 PUSH1 0x3 NOT CALLDATASIZE ADD SLT PUSH2 0xE8 JUMPI PUSH2 0x419 PUSH2 0x853 JUMP JUMPDEST SWAP1 PUSH1 0x1 PUSH1 0x1 PUSH1 0xA0 SHL SUB PUSH2 0x42A PUSH2 0x9AA JUMP JUMPDEST SWAP3 PUSH0 DUP5 MSTORE PUSH0 PUSH1 0x80 PUSH1 0x20 SWAP6 DUP3 DUP8 DUP3 ADD MSTORE DUP3 DUP9 DUP3 ADD MSTORE DUP3 PUSH1 0x60 DUP3 ADD MSTORE ADD MSTORE AND DUP1 CALLER SUB PUSH2 0x4C1 JUMPI SWAP3 PUSH1 0xA0 SWAP4 DUP3 CALLDATALOAD PUSH0 MSTORE PUSH0 DUP5 MSTORE PUSH1 0x3 DUP3 PUSH0 KECCAK256 ADD SWAP1 PUSH0 MSTORE DUP4 MSTORE DUP1 PUSH0 KECCAK256 SWAP1 PUSH2 0x470 PUSH2 0x9AA JUMP JUMPDEST SWAP3 DUP3 SLOAD SWAP5 DUP6 DUP6 MSTORE PUSH1 0x1 DUP5 ADD SLOAD DUP2 DUP7 ADD SWAP1 DUP2 MSTORE PUSH1 0x80 PUSH1 0x2 DUP7 ADD SLOAD SWAP4 DUP6 DUP9 ADD SWAP5 DUP6 MSTORE PUSH1 0x3 DUP8 ADD SLOAD SWAP7 PUSH1 0x60 DUP10 ADD SWAP8 DUP9 MSTORE ADD SLOAD SWAP7 ADD SWAP6 DUP7 MSTORE DUP4 MLOAD SWAP7 DUP8 MSTORE MLOAD SWAP1 DUP7 ADD MSTORE MLOAD SWAP1 DUP5 ADD MSTORE MLOAD PUSH1 0x60 DUP4 ADD MSTORE MLOAD PUSH1 0x80 DUP3 ADD MSTORE RETURN JUMPDEST POP SWAP1 PUSH1 0x64 SWAP3 MLOAD SWAP2 PUSH3 0x461BCD PUSH1 0xE5 SHL DUP4 MSTORE DUP3 ADD MSTORE PUSH1 0x1A PUSH1 0x24 DUP3 ADD MSTORE PUSH32 0x43616E206F6E6C792076696577206F776E20706F736974696F6E000000000000 PUSH1 0x44 DUP3 ADD MSTORE REVERT JUMPDEST DUP3 CALLVALUE PUSH2 0xE8 JUMPI PUSH1 0x20 CALLDATASIZE PUSH1 0x3 NOT ADD SLT PUSH2 0xE8 JUMPI PUSH1 0x20 SWAP1 PUSH1 0x1 PUSH1 0x1 PUSH1 0xA0 SHL SUB PUSH2 0x528 PUSH2 0x83D JUMP JUMPDEST AND PUSH0 MSTORE PUSH1 0x1 DUP3 MSTORE PUSH1 0xFF DUP2 PUSH0 KECCAK256 SLOAD AND SWAP1 MLOAD SWAP1 ISZERO ISZERO DUP2 MSTORE RETURN JUMPDEST DUP3 CALLVALUE PUSH2 0xE8 JUMPI DUP1 PUSH1 0x3 NOT CALLDATASIZE ADD SLT PUSH2 0xE8 JUMPI PUSH2 0x558 PUSH2 0x83D JUMP JUMPDEST SWAP1 PUSH1 0x24 CALLDATALOAD SWAP2 DUP3 ISZERO ISZERO DUP1 SWAP4 SUB PUSH2 0xE8 JUMPI PUSH1 0x1 PUSH1 0x1 PUSH1 0xA0 SHL SUB SWAP1 PUSH2 0x59D DUP3 PUSH32 0x0 AND CALLER EQ PUSH2 0x869 JUMP JUMPDEST AND PUSH0 MSTORE PUSH1 0x1 PUSH1 0x20 MSTORE PUSH0 KECCAK256 SWAP1 PUSH1 0xFF DUP1 NOT DUP4 SLOAD AND SWAP2 AND OR SWAP1 SSTORE PUSH0 DUP1 RETURN JUMPDEST SWAP1 POP CALLVALUE PUSH2 0xE8 JUMPI PUSH1 0x20 CALLDATASIZE PUSH1 0x3 NOT ADD SLT PUSH2 0xE8 JUMPI PUSH2 0x5D5 SWAP1 CALLDATALOAD PUSH2 0x93E JUMP JUMPDEST DUP3 MLOAD SWAP2 DUP3 MSTORE PUSH1 0x20 DUP3 ADD MSTORE RETURN JUMPDEST DUP3 CALLVALUE PUSH2 0xE8 JUMPI PUSH1 0x80 CALLDATASIZE PUSH1 0x3 NOT ADD SLT PUSH2 0xE8 JUMPI DUP2 CALLDATALOAD SWAP1 PUSH2 0x5FE PUSH2 0x853 JUMP JUMPDEST PUSH1 0x44 CALLDATALOAD SWAP4 PUSH1 0x1 PUSH1 0x1 PUSH1 0xA0 SHL SUB DUP1 PUSH1 0x2 SLOAD AND CALLER EQ DUP1 ISZERO PUSH2 0x758 JUMPI JUMPDEST PUSH2 0x621 SWAP1 PUSH2 0x8B4 JUMP JUMPDEST DUP5 PUSH0 MSTORE PUSH0 PUSH1 0x20 MSTORE DUP4 PUSH0 KECCAK256 SWAP3 AND SWAP5 DUP6 PUSH0 MSTORE PUSH1 0x3 DUP4 ADD PUSH1 0x20 MSTORE DUP4 PUSH0 KECCAK256 PUSH1 0x3 DUP2 ADD SWAP2 PUSH2 0x64A DUP4 SLOAD PUSH2 0x9DE JUMP JUMPDEST SWAP3 PUSH1 0x2 DUP4 ADD DUP1 SLOAD SWAP1 PUSH1 0x1 SWAP7 DUP8 DUP4 ADD DUP1 SWAP4 GT PUSH2 0x745 JUMPI POP DUP7 SWAP5 SWAP2 SWAP4 DUP6 PUSH1 0x20 SWAP10 SWAP8 SWAP5 PUSH32 0xEE83BEFD4DEA1D6D92C76E834AA1031F1BBA673E1A7A216BEAA9B35E2272AE36 SWAP12 SWAP10 SWAP7 PUSH2 0x6D0 SWAP5 SSTORE DUP2 DUP1 PUSH1 0x64 CALLDATALOAD EQ SWAP4 DUP5 PUSH0 EQ PUSH2 0x73E JUMPI DUP1 SWAP5 JUMPDEST ISZERO PUSH2 0x738 JUMPI POP PUSH0 SWAP6 JUMPDEST PUSH2 0x6B8 DUP6 DUP3 SLOAD PUSH2 0x8FF JUMP JUMPDEST DUP2 SSTORE ADD PUSH2 0x6C6 DUP7 DUP3 SLOAD PUSH2 0x8FF JUMP JUMPDEST SWAP1 SSTORE SSTORE DUP7 SLOAD PUSH2 0x8FF JUMP JUMPDEST DUP6 SSTORE PUSH2 0x6E0 DUP4 DUP7 ADD SWAP2 DUP3 SLOAD PUSH2 0x8FF JUMP JUMPDEST SWAP1 SSTORE SUB PUSH2 0x72B JUMPI PUSH1 0x2 PUSH2 0x6F8 SWAP2 SWAP3 JUMPDEST ADD SWAP2 DUP3 SLOAD PUSH2 0x8FF JUMP JUMPDEST SWAP1 SSTORE DUP5 DUP5 PUSH32 0x8AC3DC33A8BB612EB5A834FC22070275FFED7E27716BD3D68D01F0A930085C10 DUP5 DUP5 MLOAD TIMESTAMP DUP2 MSTORE LOG3 MLOAD TIMESTAMP DUP2 MSTORE LOG3 STOP JUMPDEST POP PUSH2 0x6F8 PUSH1 0x2 PUSH0 SWAP3 PUSH2 0x6EF JUMP JUMPDEST SWAP6 PUSH2 0x6AD JUMP JUMPDEST PUSH0 SWAP5 PUSH2 0x6A4 JUMP JUMPDEST PUSH1 0x11 SWAP1 PUSH4 0x4E487B71 PUSH1 0xE0 SHL PUSH0 MSTORE MSTORE PUSH1 0x24 PUSH0 REVERT JUMPDEST POP CALLER PUSH0 SWAP1 DUP2 MSTORE PUSH1 0x1 PUSH1 0x20 MSTORE DUP5 SWAP1 KECCAK256 SLOAD PUSH1 0xFF AND PUSH2 0x618 JUMP JUMPDEST DUP3 CALLVALUE PUSH2 0xE8 JUMPI DUP1 PUSH1 0x3 NOT CALLDATASIZE ADD SLT PUSH2 0xE8 JUMPI PUSH1 0x20 SWAP2 PUSH2 0x78B PUSH2 0x853 JUMP JUMPDEST SWAP1 CALLDATALOAD PUSH0 MSTORE PUSH0 DUP4 MSTORE PUSH1 0x1 PUSH1 0x1 PUSH1 0xA0 SHL SUB PUSH1 0x3 DUP4 PUSH0 KECCAK256 ADD SWAP2 AND PUSH0 MSTORE DUP3 MSTORE PUSH2 0x7B9 DUP2 PUSH0 KECCAK256 PUSH1 0x1 DUP2 SLOAD SWAP2 ADD SLOAD SWAP1 PUSH2 0x8FF JUMP JUMPDEST SWAP1 MLOAD SWAP1 DUP2 MSTORE RETURN JUMPDEST CALLVALUE PUSH2 0xE8 JUMPI PUSH1 0x20 CALLDATASIZE PUSH1 0x3 NOT ADD SLT PUSH2 0xE8 JUMPI PUSH2 0x7D9 PUSH2 0x83D JUMP JUMPDEST PUSH1 0x1 PUSH1 0x1 PUSH1 0xA0 SHL SUB SWAP1 PUSH2 0x80F DUP3 PUSH32 0x0 AND CALLER EQ PUSH2 0x869 JUMP JUMPDEST AND PUSH32 0xFFFFFFFFFFFFFFFFFFFFFFFF0000000000000000000000000000000000000000 PUSH1 0x2 SLOAD AND OR PUSH1 0x2 SSTORE PUSH0 DUP1 RETURN JUMPDEST PUSH1 0x4 CALLDATALOAD SWAP1 PUSH1 0x1 PUSH1 0x1 PUSH1 0xA0 SHL SUB DUP3 AND DUP3 SUB PUSH2 0xE8 JUMPI JUMP JUMPDEST PUSH1 0x24 CALLDATALOAD SWAP1 PUSH1 0x1 PUSH1 0x1 PUSH1 0xA0 SHL SUB DUP3 AND DUP3 SUB PUSH2 0xE8 JUMPI JUMP JUMPDEST ISZERO PUSH2 0x870 JUMPI JUMP JUMPDEST PUSH1 0x64 PUSH1 0x40 MLOAD PUSH3 0x461BCD PUSH1 0xE5 SHL DUP2 MSTORE PUSH1 0x20 PUSH1 0x4 DUP3 ADD MSTORE PUSH1 0x9 PUSH1 0x24 DUP3 ADD MSTORE PUSH32 0x4E6F74206F776E65720000000000000000000000000000000000000000000000 PUSH1 0x44 DUP3 ADD MSTORE REVERT JUMPDEST ISZERO PUSH2 0x8BB JUMPI JUMP JUMPDEST PUSH1 0x64 PUSH1 0x40 MLOAD PUSH3 0x461BCD PUSH1 0xE5 SHL DUP2 MSTORE PUSH1 0x20 PUSH1 0x4 DUP3 ADD MSTORE PUSH1 0xE PUSH1 0x24 DUP3 ADD MSTORE PUSH32 0x4E6F7420617574686F72697A6564000000000000000000000000000000000000 PUSH1 0x44 DUP3 ADD MSTORE REVERT JUMPDEST SWAP2 SWAP1 DUP3 ADD DUP1 SWAP3 GT PUSH2 0x90C JUMPI JUMP JUMPDEST PUSH4 0x4E487B71 PUSH1 0xE0 SHL PUSH0 MSTORE PUSH1 0x11 PUSH1 0x4 MSTORE PUSH1 0x24 PUSH0 REVERT JUMPDEST DUP2 ISZERO PUSH2 0x92A JUMPI DIV SWAP1 JUMP JUMPDEST PUSH4 0x4E487B71 PUSH1 0xE0 SHL PUSH0 MSTORE PUSH1 0x12 PUSH1 0x4 MSTORE PUSH1 0x24 PUSH0 REVERT JUMPDEST PUSH0 MSTORE PUSH0 PUSH1 0x20 MSTORE PUSH1 0x40 PUSH0 KECCAK256 SWAP1 PUSH1 0x1 DUP3 SLOAD SWAP3 ADD SLOAD PUSH2 0x95A DUP2 DUP5 PUSH2 0x8FF JUMP JUMPDEST SWAP3 DUP4 ISZERO PUSH2 0x99E JUMPI PUSH1 0x64 DUP2 MUL SWAP1 DUP1 DUP3 DIV PUSH1 0x64 EQ SWAP1 ISZERO OR ISZERO PUSH2 0x90C JUMPI DUP4 PUSH2 0x97E SWAP2 PUSH2 0x920 JUMP JUMPDEST SWAP3 PUSH1 0x64 DUP3 MUL SWAP2 DUP1 DUP4 DIV PUSH1 0x64 EQ SWAP1 ISZERO OR ISZERO PUSH2 0x90C JUMPI PUSH2 0x99B SWAP2 PUSH2 0x920 JUMP JUMPDEST SWAP1 JUMP JUMPDEST POP POP SWAP1 POP PUSH1 0x32 SWAP1 PUSH1 0x32 SWAP1 JUMP JUMPDEST PUSH1 0x40 MLOAD SWAP1 PUSH1 0xA0 DUP3 ADD DUP3 DUP2 LT PUSH8 0xFFFFFFFFFFFFFFFF DUP3 GT OR PUSH2 0x9CA JUMPI PUSH1 0x40 MSTORE JUMP JUMPDEST PUSH4 0x4E487B71 PUSH1 0xE0 SHL PUSH0 MSTORE PUSH1 0x41 PUSH1 0x4 MSTORE PUSH1 0x24 PUSH0 REVERT JUMPDEST PUSH1 0x1 SUB PUSH2 0x9E9 JUMPI PUSH0 SWAP1 JUMP JUMPDEST PUSH1 0x1 SWAP1 JUMP INVALID LOG2 PUSH5 0x6970667358 0x22 SLT KECCAK256 MSIZE 0x4E SWAP11 DUP4 PUSH23 0xCD796CA294BE8A7B693FCBC49027396109B7F66D0E6875 SAR 0xBC 0xBB 0xBB PUSH5 0x736F6C6343 STOP ADDMOD XOR STOP CALLER "},"methodIdentifiers":{"authorizedCallers(address)":"536fff6c","calculatePayout(uint256,address,bool)":"87c8e2d6","emergencyDecryptPosition(uint256,address)":"778a9d8e","getEncryptedPosition(uint256,address)":"53dd2c7d","getMarketStats(uint256)":"58057fe5","getOddsData(uint256)":"2d6f5010","getPoolSizes(uint256)":"77ab1d48","getUserTotalBet(uint256,address)":"229be152","hasPosition(uint256,address)":"66adc53e","markClaimed(uint256,address)":"d5dfa74a","owner()":"8da5cb5b","predictionMarket()":"def114b6","setAuthorizedCaller(address,bool)":"454bbd29","setPredictionMarket(address)":"03b88ba2","updatePosition(uint256,address,uint256,uint256)":"2430719b"}}}}}